{
  "contractName": "ChainPark",
  "abi": [
    {
      "inputs": [
        {
          "internalType": "uint256[]",
          "name": "_lotMaxCapacities",
          "type": "uint256[]"
        },
        {
          "internalType": "address",
          "name": "_ubpcContractAddr",
          "type": "address"
        },
        {
          "internalType": "uint256",
          "name": "_maxFee",
          "type": "uint256"
        },
        {
          "internalType": "uint256",
          "name": "_dailyIncome",
          "type": "uint256"
        }
      ],
      "stateMutability": "nonpayable",
      "type": "constructor"
    },
    {
      "anonymous": false,
      "inputs": [
        {
          "indexed": true,
          "internalType": "address",
          "name": "user",
          "type": "address"
        },
        {
          "indexed": false,
          "internalType": "uint256",
          "name": "amount",
          "type": "uint256"
        }
      ],
      "name": "Claimed",
      "type": "event"
    },
    {
      "anonymous": false,
      "inputs": [
        {
          "indexed": true,
          "internalType": "address",
          "name": "user",
          "type": "address"
        },
        {
          "indexed": false,
          "internalType": "uint256",
          "name": "lotIndex",
          "type": "uint256"
        }
      ],
      "name": "Left",
      "type": "event"
    },
    {
      "anonymous": false,
      "inputs": [
        {
          "indexed": true,
          "internalType": "address",
          "name": "user",
          "type": "address"
        },
        {
          "indexed": false,
          "internalType": "uint256",
          "name": "lotIndex",
          "type": "uint256"
        }
      ],
      "name": "Parked",
      "type": "event"
    },
    {
      "inputs": [
        {
          "internalType": "address",
          "name": "",
          "type": "address"
        }
      ],
      "name": "currentlyParked",
      "outputs": [
        {
          "internalType": "uint256",
          "name": "",
          "type": "uint256"
        }
      ],
      "stateMutability": "view",
      "type": "function",
      "constant": true
    },
    {
      "inputs": [
        {
          "internalType": "uint256",
          "name": "",
          "type": "uint256"
        }
      ],
      "name": "lotCurrentCapacities",
      "outputs": [
        {
          "internalType": "uint256",
          "name": "",
          "type": "uint256"
        }
      ],
      "stateMutability": "view",
      "type": "function",
      "constant": true
    },
    {
      "inputs": [
        {
          "internalType": "uint256",
          "name": "",
          "type": "uint256"
        }
      ],
      "name": "lotMaxCapacities",
      "outputs": [
        {
          "internalType": "uint256",
          "name": "",
          "type": "uint256"
        }
      ],
      "stateMutability": "view",
      "type": "function",
      "constant": true
    },
    {
      "inputs": [],
      "name": "maxFee",
      "outputs": [
        {
          "internalType": "uint256",
          "name": "",
          "type": "uint256"
        }
      ],
      "stateMutability": "view",
      "type": "function",
      "constant": true
    },
    {
      "inputs": [
        {
          "internalType": "uint256",
          "name": "lotIndex",
          "type": "uint256"
        }
      ],
      "name": "getFee",
      "outputs": [
        {
          "internalType": "uint256",
          "name": "",
          "type": "uint256"
        }
      ],
      "stateMutability": "view",
      "type": "function",
      "constant": true
    },
    {
      "inputs": [
        {
          "internalType": "uint256",
          "name": "lotIndex",
          "type": "uint256"
        }
      ],
      "name": "park",
      "outputs": [],
      "stateMutability": "payable",
      "type": "function",
      "payable": true
    },
    {
      "inputs": [
        {
          "internalType": "address",
          "name": "user",
          "type": "address"
        }
      ],
      "name": "checkUBPCBalance",
      "outputs": [
        {
          "internalType": "uint256",
          "name": "",
          "type": "uint256"
        }
      ],
      "stateMutability": "view",
      "type": "function",
      "constant": true
    },
    {
      "inputs": [],
      "name": "leave",
      "outputs": [],
      "stateMutability": "nonpayable",
      "type": "function"
    },
    {
      "inputs": [],
      "name": "claim",
      "outputs": [],
      "stateMutability": "nonpayable",
      "type": "function"
    },
    {
      "inputs": [],
      "name": "withdraw",
      "outputs": [],
      "stateMutability": "nonpayable",
      "type": "function"
    },
    {
      "inputs": [],
      "name": "getLotMaxCapacities",
      "outputs": [
        {
          "internalType": "uint256[]",
          "name": "",
          "type": "uint256[]"
        }
      ],
      "stateMutability": "view",
      "type": "function",
      "constant": true
    },
    {
      "inputs": [],
      "name": "getLotCurrentCapacities",
      "outputs": [
        {
          "internalType": "uint256[]",
          "name": "",
          "type": "uint256[]"
        }
      ],
      "stateMutability": "view",
      "type": "function",
      "constant": true
    },
    {
      "inputs": [
        {
          "internalType": "uint256[]",
          "name": "_lotMaxCapacities",
          "type": "uint256[]"
        }
      ],
      "name": "setMaxCapacities",
      "outputs": [],
      "stateMutability": "nonpayable",
      "type": "function"
    },
    {
      "inputs": [
        {
          "internalType": "uint256",
          "name": "_maxFee",
          "type": "uint256"
        }
      ],
      "name": "setMaxFee",
      "outputs": [],
      "stateMutability": "nonpayable",
      "type": "function"
    },
    {
      "inputs": [
        {
          "internalType": "uint256",
          "name": "_dailyIncome",
          "type": "uint256"
        }
      ],
      "name": "setDailyIncome",
      "outputs": [],
      "stateMutability": "nonpayable",
      "type": "function"
    },
    {
      "inputs": [
        {
          "internalType": "address",
          "name": "newAdmin",
          "type": "address"
        }
      ],
      "name": "setAdmin",
      "outputs": [],
      "stateMutability": "nonpayable",
      "type": "function"
    }
  ],
  "bytecode": "0x60806040523480156200001157600080fd5b50604051620011953803806200119583398101604081905262000034916200019b565b60008054600160a060020a0319163317905583516200005b906007906020870190620000e8565b5083516001604060020a038111156200007857620000786200014f565b604051908082528060200260200182016040528015620000a2578160200160208202803683370190505b508051620000b991600891602090910190620000e8565b5060018054600160a060020a031916600160a060020a0394909416939093179092556002556003555062000287565b82805482825590600052602060002090810192821562000126579160200282015b828111156200012657825182559160200191906001019062000109565b506200013492915062000138565b5090565b5b8082111562000134576000815560010162000139565b7f4e487b7100000000000000000000000000000000000000000000000000000000600052604160045260246000fd5b8051600160a060020a03811681146200019657600080fd5b919050565b60008060008060808587031215620001b257600080fd5b84516001604060020a0380821115620001ca57600080fd5b818701915087601f830112620001df57600080fd5b8151602082821115620001f657620001f66200014f565b808202604051601f19603f830116810181811086821117156200021d576200021d6200014f565b60405292835281830193508481018201928b8411156200023c57600080fd5b948201945b838610156200025c5785518552948201949382019362000241565b98506200026d90508982016200017e565b60408a01516060909a0151989b909a509650505050505050565b610efe80620002976000396000f3fe608060405260043610610110576000357c010000000000000000000000000000000000000000000000000000000090048063704b6c02116100a7578063d66d9e1911610076578063d66d9e191461028c578063ddd15b4c146102a1578063decc504f146102b6578063fcee45f4146102d657600080fd5b8063704b6c021461020c578063710e5d2f1461022c57806383f4eb631461024c578063c564b6271461026c57600080fd5b80634cc64f80116100e35780634cc64f801461018a5780634e71d92d146101b757806354be8be6146101cc578063628310b3146101ec57600080fd5b806301f59d161461011557806307afe4921461013e5780630ae62fe7146101535780633ccfd60b14610175575b600080fd5b34801561012157600080fd5b5061012b60025481565b6040519081526020015b60405180910390f35b61015161014c366004610c09565b6102f6565b005b34801561015f57600080fd5b506101686105c8565b6040516101359190610c22565b34801561018157600080fd5b50610151610620565b34801561019657600080fd5b5061012b6101a5366004610c66565b60066020526000908152604090205481565b3480156101c357600080fd5b5061015161067d565b3480156101d857600080fd5b506101516101e7366004610caf565b610790565b3480156101f857600080fd5b5061012b610207366004610c09565b6107d4565b34801561021857600080fd5b50610151610227366004610c66565b6107f5565b34801561023857600080fd5b50610151610247366004610c09565b610851565b34801561025857600080fd5b50610151610267366004610c09565b610883565b34801561027857600080fd5b5061012b610287366004610c09565b6108b5565b34801561029857600080fd5b506101516108c5565b3480156102ad57600080fd5b506101686109b4565b3480156102c257600080fd5b5061012b6102d1366004610c66565b610a0a565b3480156102e257600080fd5b5061012b6102f1366004610c09565b610a98565b806007818154811061030a5761030a610d6c565b90600052602060002001546008828154811061032857610328610d6c565b9060005260206000200154106103885760405160e560020a62461bcd02815260206004820152600c60248201527f4c6f742069732066756c6c2e000000000000000000000000000000000000000060448201526064015b60405180910390fd5b61039182610a98565b61039a33610a0a565b10156103eb5760405160e560020a62461bcd02815260206004820152601260248201527f496e73756666696369656e7420554250432e0000000000000000000000000000604482015260640161037f565b8160000361043e5760405160e560020a62461bcd02815260206004820152601660248201527f4c6f7420696e6465782063616e6e6f7420626520302e00000000000000000000604482015260640161037f565b336000908152600660205260409020541561049e5760405160e560020a62461bcd02815260206004820152601760248201527f596f752061726520616c7265616479207061726b65642e000000000000000000604482015260640161037f565b600154600160a060020a03166323b872dd33306104ba86610a98565b6040517c010000000000000000000000000000000000000000000000000000000063ffffffff8616028152600160a060020a03938416600482015292909116602483015260448201526064016020604051808303816000875af1158015610525573d6000803e3d6000fd5b505050506040513d601f19601f820116820180604052508101906105499190610d85565b506008828154811061055d5761055d610d6c565b6000918252602082200180549161057383610dc0565b90915550503360008181526006602052604090819020849055517fcddbea0c092495e8718375ec92f5371831dcfb5bfe86a2645e974bb42ad997a7906105bc9085815260200190565b60405180910390a25050565b6060600780548060200260200160405190810160405280929190818152602001828054801561061657602002820191906000526020600020905b815481526020019060010190808311610602575b5050505050905090565b600054600160a060020a0316331461064d5760405160e560020a62461bcd02815260040161037f90610dd9565b6040513390303180156108fc02916000818181858888f1935050505015801561067a573d6000803e3d6000fd5b50565b33600090815260046020526040812054620151809061069c9042610e36565b6106a69190610e49565b33600090815260056020526040902054909150811161070a5760405160e560020a62461bcd02815260206004820152601e60248201527f596f752068617665206e6f74207061726b656420666f722061206461792e0000604482015260640161037f565b6003543360009081526005602052604081205490919061072a9084610e36565b6107349190610e6e565b336000818152600460209081526040808320429055600590915281205590915061075e9082610b26565b60405181815233907fd8138f8a3f377c5259ca548e70e4c2de94f129f5a11036a15b69513cba2b426a906020016105bc565b600054600160a060020a031633146107bd5760405160e560020a62461bcd02815260040161037f90610dd9565b80516107d0906007906020840190610ba9565b5050565b600781815481106107e457600080fd5b600091825260209091200154905081565b600054600160a060020a031633146108225760405160e560020a62461bcd02815260040161037f90610dd9565b6000805473ffffffffffffffffffffffffffffffffffffffff1916600160a060020a0392909216919091179055565b600054600160a060020a0316331461087e5760405160e560020a62461bcd02815260040161037f90610dd9565b600255565b600054600160a060020a031633146108b05760405160e560020a62461bcd02815260040161037f90610dd9565b600355565b600881815481106107e457600080fd5b3360009081526006602052604081205490036109265760405160e560020a62461bcd02815260206004820152601360248201527f596f7520617265206e6f74207061726b65642e00000000000000000000000000604482015260640161037f565b33600090815260066020526040902054600880548290811061094a5761094a610d6c565b6000918252602082200180549161096083610e85565b90915550503360008181526006602052604080822091909155517faf65ecdc8a0d3ea90c8344c89e7001864fddf59dfdf41da2994463fe99049a59906109a99084815260200190565b60405180910390a250565b606060088054806020026020016040519081016040528092919081815260200182805480156106165760200282019190600052602060002090815481526020019060010190808311610602575050505050905090565b6001546040517f70a08231000000000000000000000000000000000000000000000000000000008152600160a060020a03838116600483015260009216906370a0823190602401602060405180830381865afa158015610a6e573d6000803e3d6000fd5b505050506040513d601f19601f82011682018060405250810190610a929190610e9c565b92915050565b600060088281548110610aad57610aad610d6c565b9060005260206000200154600003610ac757506000919050565b60078281548110610ada57610ada610d6c565b906000526020600020015460088381548110610af857610af8610d6c565b90600052602060002001546001610b0f9190610eb5565b600254610b1c9190610e6e565b610a929190610e49565b6001546040517f40c10f19000000000000000000000000000000000000000000000000000000008152600160a060020a03848116600483015260248201849052909116906340c10f1990604401600060405180830381600087803b158015610b8d57600080fd5b505af1158015610ba1573d6000803e3d6000fd5b505050505050565b828054828255906000526020600020908101928215610be4579160200282015b82811115610be4578251825591602001919060010190610bc9565b50610bf0929150610bf4565b5090565b5b80821115610bf05760008155600101610bf5565b600060208284031215610c1b57600080fd5b5035919050565b6020808252825182820181905260009190848201906040850190845b81811015610c5a57835183529284019291840191600101610c3e565b50909695505050505050565b600060208284031215610c7857600080fd5b8135600160a060020a0381168114610c8f57600080fd5b9392505050565b60e060020a634e487b7102600052604160045260246000fd5b60006020808385031215610cc257600080fd5b823567ffffffffffffffff80821115610cda57600080fd5b818501915085601f830112610cee57600080fd5b813581811115610d0057610d00610c96565b838102604051601f19603f83011681018181108582111715610d2457610d24610c96565b604052918252848201925083810185019188831115610d4257600080fd5b938501935b82851015610d6057843584529385019392850192610d47565b98975050505050505050565b60e060020a634e487b7102600052603260045260246000fd5b600060208284031215610d9757600080fd5b81518015158114610c8f57600080fd5b60e060020a634e487b7102600052601160045260246000fd5b600060018201610dd257610dd2610da7565b5060010190565b60208082526022908201527f4f6e6c792061646d696e2063616e2063616c6c20746869732066756e6374696f60408201527f6e2e000000000000000000000000000000000000000000000000000000000000606082015260800190565b81810381811115610a9257610a92610da7565b600082610e695760e060020a634e487b7102600052601260045260246000fd5b500490565b8082028115828204841417610a9257610a92610da7565b600081610e9457610e94610da7565b506000190190565b600060208284031215610eae57600080fd5b5051919050565b80820180821115610a9257610a92610da756fea26469706673582212207df8c924155a4f088b966e76edeb76e54a6c5b7a5588f9f2dcb825a692f6c6e164736f6c63430008110033",
  "immutableReferences": {},
  "source": "// SPDX-License-Identifier: MIT\npragma solidity >=0.4.22 <0.9.0;\n\n// import IERC20 from openzeppelin\nimport \"@openzeppelin/contracts/token/ERC20/IERC20.sol\";\n\nabstract contract IUBPC is IERC20 {\n  function mint(address account, uint256 amount) public virtual;\n  function claim_airdrop() public virtual;\n  function setChainPark(address _chainParkAddr) public virtual;\n}\n\n\n\ncontract ChainPark  {\n  address admin;\n  address UBPC_CONTRACT;\n  uint256 public maxFee; // the cost to park if you are the last person to park\n  uint dailyIncome; // the amount you will earn if you do not park for a day\n  //uint constant NOT_PARKED = 2**256 - 1; // use max uint to represent not parked\n  // mapping(address=>bool) staff;\n  mapping(address=>uint) lastClaimed; // timestamp\n  mapping(address=>uint) parksSinceClaim;\n  mapping(address=>uint) public currentlyParked; // NOT_PARKED if not parked, otherwise lotIndex\n  uint[] public lotMaxCapacities; // index 0 is not used. Lots are 1-indexed so that 0 can be used to represent not parked\n  uint[] public lotCurrentCapacities;\n  // enum lotType {Staff, Student, Both}\n  // lotType[] lotTypes;\n\n\n  event Parked(address indexed user, uint lotIndex);\n  event Left(address indexed user, uint lotIndex);\n  event Claimed(address indexed user, uint amount);\n\n  modifier onlyAdmin() {\n    require(msg.sender == admin, \"Only admin can call this function.\");\n    _;\n  }\n\n  // modifier onlyStaff() {\n  //   require(staff[msg.sender], \"Only staff can call this function.\");\n  //   _;\n  // }\n\n  modifier notFull(uint lotIndex) {\n    require(lotCurrentCapacities[lotIndex] < lotMaxCapacities[lotIndex], \"Lot is full.\");\n    _;\n  }\n\n  constructor(uint[] memory _lotMaxCapacities, address _ubpcContractAddr, uint256 _maxFee, uint _dailyIncome) {\n    admin = msg.sender;\n    lotMaxCapacities = _lotMaxCapacities;\n    lotCurrentCapacities = new uint[](_lotMaxCapacities.length);\n    UBPC_CONTRACT = _ubpcContractAddr;\n    maxFee = _maxFee;\n    dailyIncome = _dailyIncome;\n  }\n\n\n  function getFee(uint lotIndex) public view returns (uint) {\n    if (lotCurrentCapacities[lotIndex] == 0) {\n      return 0;\n    }\n    return maxFee * (lotCurrentCapacities[lotIndex] + 1) / lotMaxCapacities[lotIndex];\n  }\n\n  function park(uint lotIndex) public payable notFull(lotIndex) {\n    require(checkUBPCBalance(msg.sender) >= getFee(lotIndex), \"Insufficient UBPC.\");\n    require(lotIndex != 0, \"Lot index cannot be 0.\");\n    require(currentlyParked[msg.sender] == 0, \"You are already parked.\");\n\n    IUBPC(UBPC_CONTRACT).transferFrom(msg.sender, address(this), getFee(lotIndex));\n\n    lotCurrentCapacities[lotIndex]++;\n    currentlyParked[msg.sender] = lotIndex;\n    emit Parked(msg.sender, lotIndex);\n  }\n\n  function checkUBPCBalance(address user) public view returns (uint) {\n    return IUBPC(UBPC_CONTRACT).balanceOf(user);\n  }\n\n  function mint(address account, uint256 amount) internal {\n    IUBPC(UBPC_CONTRACT).mint(account, amount);\n  }\n\n  function leave() public {\n    require(currentlyParked[msg.sender] != 0, \"You are not parked.\");\n    uint lotIndex = uint(currentlyParked[msg.sender]);\n    lotCurrentCapacities[lotIndex]--;\n    currentlyParked[msg.sender] = 0;\n    emit Left(msg.sender, lotIndex);\n  }\n\n  function claim() public { // this will interact with the ERC20 token contract eventualy\n    uint daysSinceClaim = (block.timestamp - lastClaimed[msg.sender]) / 1 days;\n    require(daysSinceClaim > parksSinceClaim[msg.sender], \"You have not parked for a day.\");\n    uint amount = (daysSinceClaim - parksSinceClaim[msg.sender]) * dailyIncome; // you will not get paid for the days you parked\n    lastClaimed[msg.sender] = block.timestamp;\n    parksSinceClaim[msg.sender] = 0;\n    mint(msg.sender, amount);\n    emit Claimed(msg.sender, amount);\n  }\n\n  function withdraw() public onlyAdmin {\n    payable(msg.sender).transfer(address(this).balance);\n  }\n\n  function getLotMaxCapacities() public view returns (uint[] memory) {\n    return lotMaxCapacities;\n  }\n\n  function getLotCurrentCapacities() public view returns (uint[] memory) {\n    return lotCurrentCapacities;\n  }\n\n  function setMaxCapacities(uint[] memory _lotMaxCapacities) public onlyAdmin {\n    lotMaxCapacities = _lotMaxCapacities;\n  }\n\n  function setMaxFee(uint256 _maxFee) public onlyAdmin {\n    maxFee = _maxFee;\n  }\n\n  function setDailyIncome(uint _dailyIncome) public onlyAdmin {\n    dailyIncome = _dailyIncome;\n  }\n\n  function setAdmin(address newAdmin) public onlyAdmin {\n    admin = newAdmin;\n  }\n}\n",
  "sourcePath": "/home/sib/eth/UB-Chain-Park/truffle/contracts/ChainPark.sol",
  "compiler": {
    "name": "solc",
    "version": "0.8.17+commit.8df45f5f.Emscripten.clang"
  },
  "schemaVersion": "3.4.10",
  "updatedAt": "2022-12-04T00:48:24.185Z",
  "networkType": "ethereum",
  "devdoc": {
    "kind": "dev",
    "methods": {},
    "version": 1
  },
  "userdoc": {
    "kind": "user",
    "methods": {},
    "version": 1
  }
}