{
  "contractName": "ChainPark",
  "abi": [
    {
      "inputs": [
        {
          "internalType": "uint256[]",
          "name": "_lotMaxCapacities",
          "type": "uint256[]"
        },
        {
          "internalType": "address",
          "name": "_ubpcContractAddr",
          "type": "address"
        },
        {
          "internalType": "uint256",
          "name": "_maxFee",
          "type": "uint256"
        },
        {
          "internalType": "uint256",
          "name": "_dailyIncome",
          "type": "uint256"
        },
        {
          "internalType": "uint256",
          "name": "_staffLot",
          "type": "uint256"
        }
      ],
      "stateMutability": "nonpayable",
      "type": "constructor"
    },
    {
      "anonymous": false,
      "inputs": [
        {
          "indexed": true,
          "internalType": "address",
          "name": "user",
          "type": "address"
        },
        {
          "indexed": false,
          "internalType": "uint256",
          "name": "amount",
          "type": "uint256"
        }
      ],
      "name": "Claimed",
      "type": "event"
    },
    {
      "anonymous": false,
      "inputs": [
        {
          "indexed": true,
          "internalType": "address",
          "name": "user",
          "type": "address"
        },
        {
          "indexed": false,
          "internalType": "uint256",
          "name": "lotIndex",
          "type": "uint256"
        }
      ],
      "name": "Left",
      "type": "event"
    },
    {
      "anonymous": false,
      "inputs": [
        {
          "indexed": true,
          "internalType": "address",
          "name": "user",
          "type": "address"
        },
        {
          "indexed": false,
          "internalType": "uint256",
          "name": "lotIndex",
          "type": "uint256"
        }
      ],
      "name": "Parked",
      "type": "event"
    },
    {
      "inputs": [],
      "name": "CLAIM_WAIT_PERIOD",
      "outputs": [
        {
          "internalType": "uint256",
          "name": "",
          "type": "uint256"
        }
      ],
      "stateMutability": "view",
      "type": "function",
      "constant": true
    },
    {
      "inputs": [],
      "name": "UBPC_CONTRACT",
      "outputs": [
        {
          "internalType": "address",
          "name": "",
          "type": "address"
        }
      ],
      "stateMutability": "view",
      "type": "function",
      "constant": true
    },
    {
      "inputs": [
        {
          "internalType": "address",
          "name": "",
          "type": "address"
        }
      ],
      "name": "currentlyParked",
      "outputs": [
        {
          "internalType": "uint256",
          "name": "",
          "type": "uint256"
        }
      ],
      "stateMutability": "view",
      "type": "function",
      "constant": true
    },
    {
      "inputs": [],
      "name": "dailyIncome",
      "outputs": [
        {
          "internalType": "uint256",
          "name": "",
          "type": "uint256"
        }
      ],
      "stateMutability": "view",
      "type": "function",
      "constant": true
    },
    {
      "inputs": [
        {
          "internalType": "uint256",
          "name": "",
          "type": "uint256"
        }
      ],
      "name": "lotCurrentCapacities",
      "outputs": [
        {
          "internalType": "uint256",
          "name": "",
          "type": "uint256"
        }
      ],
      "stateMutability": "view",
      "type": "function",
      "constant": true
    },
    {
      "inputs": [
        {
          "internalType": "uint256",
          "name": "",
          "type": "uint256"
        }
      ],
      "name": "lotMaxCapacities",
      "outputs": [
        {
          "internalType": "uint256",
          "name": "",
          "type": "uint256"
        }
      ],
      "stateMutability": "view",
      "type": "function",
      "constant": true
    },
    {
      "inputs": [],
      "name": "maxFee",
      "outputs": [
        {
          "internalType": "uint256",
          "name": "",
          "type": "uint256"
        }
      ],
      "stateMutability": "view",
      "type": "function",
      "constant": true
    },
    {
      "inputs": [
        {
          "internalType": "uint256",
          "name": "lotIndex",
          "type": "uint256"
        }
      ],
      "name": "getFee",
      "outputs": [
        {
          "internalType": "uint256",
          "name": "",
          "type": "uint256"
        }
      ],
      "stateMutability": "view",
      "type": "function",
      "constant": true
    },
    {
      "inputs": [
        {
          "internalType": "uint256",
          "name": "lotIndex",
          "type": "uint256"
        }
      ],
      "name": "park",
      "outputs": [],
      "stateMutability": "nonpayable",
      "type": "function"
    },
    {
      "inputs": [],
      "name": "leave",
      "outputs": [],
      "stateMutability": "nonpayable",
      "type": "function"
    },
    {
      "inputs": [],
      "name": "claim",
      "outputs": [],
      "stateMutability": "nonpayable",
      "type": "function"
    },
    {
      "inputs": [
        {
          "internalType": "address",
          "name": "user",
          "type": "address"
        }
      ],
      "name": "checkUBPCBalance",
      "outputs": [
        {
          "internalType": "uint256",
          "name": "",
          "type": "uint256"
        }
      ],
      "stateMutability": "view",
      "type": "function",
      "constant": true
    },
    {
      "inputs": [],
      "name": "withdraw",
      "outputs": [],
      "stateMutability": "nonpayable",
      "type": "function"
    },
    {
      "inputs": [],
      "name": "getLotMaxCapacities",
      "outputs": [
        {
          "internalType": "uint256[]",
          "name": "",
          "type": "uint256[]"
        }
      ],
      "stateMutability": "view",
      "type": "function",
      "constant": true
    },
    {
      "inputs": [],
      "name": "getLotCurrentCapacities",
      "outputs": [
        {
          "internalType": "uint256[]",
          "name": "",
          "type": "uint256[]"
        }
      ],
      "stateMutability": "view",
      "type": "function",
      "constant": true
    },
    {
      "inputs": [
        {
          "internalType": "uint256[]",
          "name": "_lotMaxCapacities",
          "type": "uint256[]"
        }
      ],
      "name": "setMaxCapacities",
      "outputs": [],
      "stateMutability": "nonpayable",
      "type": "function"
    },
    {
      "inputs": [
        {
          "internalType": "uint256",
          "name": "_maxFee",
          "type": "uint256"
        }
      ],
      "name": "setMaxFee",
      "outputs": [],
      "stateMutability": "nonpayable",
      "type": "function"
    },
    {
      "inputs": [
        {
          "internalType": "uint256",
          "name": "_dailyIncome",
          "type": "uint256"
        }
      ],
      "name": "setDailyIncome",
      "outputs": [],
      "stateMutability": "nonpayable",
      "type": "function"
    },
    {
      "inputs": [
        {
          "internalType": "address",
          "name": "_staffAddr",
          "type": "address"
        }
      ],
      "name": "setStaff",
      "outputs": [],
      "stateMutability": "nonpayable",
      "type": "function"
    },
    {
      "inputs": [
        {
          "internalType": "address",
          "name": "_newAdmin",
          "type": "address"
        }
      ],
      "name": "setAdmin",
      "outputs": [],
      "stateMutability": "nonpayable",
      "type": "function"
    }
  ],
  "bytecode": "0x60806040523480156200001157600080fd5b506040516200124b3803806200124b8339810160408190526200003491620001a1565b60008054600160a060020a0319163317905584516200005b906009906020880190620000ee565b5084516001604060020a0381111562000078576200007862000155565b604051908082528060200260200182016040528015620000a2578160200160208202803683370190505b508051620000b991600a91602090910190620000ee565b5060018054600160a060020a031916600160a060020a0395909516949094179093556002919091556003556004555062000298565b8280548282559060005260206000209081019282156200012c579160200282015b828111156200012c5782518255916020019190600101906200010f565b506200013a9291506200013e565b5090565b5b808211156200013a57600081556001016200013f565b7f4e487b7100000000000000000000000000000000000000000000000000000000600052604160045260246000fd5b8051600160a060020a03811681146200019c57600080fd5b919050565b600080600080600060a08688031215620001ba57600080fd5b85516001604060020a0380821115620001d257600080fd5b818801915088601f830112620001e757600080fd5b8151602082821115620001fe57620001fe62000155565b808202604051601f19603f8301168101818110868211171562000225576200022562000155565b60405292835281830193508481018201928c8411156200024457600080fd5b948201945b83861015620002645785518552948201949382019362000249565b99506200027590508a820162000184565b60408b015160608c01516080909c01519a9d919c509a9998509650505050505050565b610fa380620002a86000396000f3fe608060405234801561001057600080fd5b5060043610610149576000357c010000000000000000000000000000000000000000000000000000000090048063704b6c02116100ca578063d66d9e191161008e578063d66d9e191461025a578063d6b0ee6414610262578063ddd15b4c1461028d578063decc504f14610295578063fcee45f4146102a857600080fd5b8063704b6c02146101fb578063710e5d2f1461020e57806383f4eb6314610221578063c564b62714610234578063d0c670b81461024757600080fd5b80633ccfd60b116101115780633ccfd60b146101a55780634cc64f80146101ad5780634e71d92d146101cd57806354be8be6146101d5578063628310b3146101e857600080fd5b806301f59d161461014e57806307afe4921461016a5780630ae62fe71461017f57806312d2e5341461019457806329848be31461019d575b600080fd5b61015760025481565b6040519081526020015b60405180910390f35b61017d610178366004610cae565b6102bb565b005b61018761061e565b6040516101619190610cc7565b61015760035481565b610157603c81565b61017d610676565b6101576101bb366004610d0b565b60086020526000908152604090205481565b61017d6106d3565b61017d6101e3366004610d54565b6107e4565b6101576101f6366004610cae565b610828565b61017d610209366004610d0b565b610849565b61017d61021c366004610cae565b6108a5565b61017d61022f366004610cae565b6108d7565b610157610242366004610cae565b610909565b61017d610255366004610d0b565b610919565b61017d61096a565b60015461027590600160a060020a031681565b604051600160a060020a039091168152602001610161565b610187610a59565b6101576102a3366004610d0b565b610aaf565b6101576102b6366004610cae565b610b3d565b80600981815481106102cf576102cf610e11565b9060005260206000200154600a82815481106102ed576102ed610e11565b90600052602060002001541061034d5760405160e560020a62461bcd02815260206004820152600c60248201527f4c6f742069732066756c6c2e000000000000000000000000000000000000000060448201526064015b60405180910390fd5b61035682610b3d565b61035f33610aaf565b10156103b05760405160e560020a62461bcd02815260206004820152601260248201527f496e73756666696369656e7420554250432e00000000000000000000000000006044820152606401610344565b816000036104035760405160e560020a62461bcd02815260206004820152601660248201527f4c6f7420696e6465782063616e6e6f7420626520302e000000000000000000006044820152606401610344565b33600090815260086020526040902054156104635760405160e560020a62461bcd02815260206004820152601760248201527f596f752061726520616c7265616479207061726b65642e0000000000000000006044820152606401610344565b60045482036104f4573360009081526005602052604090205460ff166104f45760405160e560020a62461bcd02815260206004820152602560248201527f4f6e6c792073746166662063616e207061726b20696e2074686520737461666660448201527f206c6f742e0000000000000000000000000000000000000000000000000000006064820152608401610344565b600154600160a060020a03166323b872dd333061051086610b3d565b6040517c010000000000000000000000000000000000000000000000000000000063ffffffff8616028152600160a060020a03938416600482015292909116602483015260448201526064016020604051808303816000875af115801561057b573d6000803e3d6000fd5b505050506040513d601f19601f8201168201806040525081019061059f9190610e2a565b50600a82815481106105b3576105b3610e11565b600091825260208220018054916105c983610e65565b90915550503360008181526008602052604090819020849055517fcddbea0c092495e8718375ec92f5371831dcfb5bfe86a2645e974bb42ad997a7906106129085815260200190565b60405180910390a25050565b6060600980548060200260200160405190810160405280929190818152602001828054801561066c57602002820191906000526020600020905b815481526020019060010190808311610658575b5050505050905090565b600054600160a060020a031633146106a35760405160e560020a62461bcd02815260040161034490610e7e565b6040513390303180156108fc02916000818181858888f193505050501580156106d0573d6000803e3d6000fd5b50565b33600090815260066020526040812054603c906106f09042610edb565b6106fa9190610eee565b33600090815260076020526040902054909150811161075e5760405160e560020a62461bcd02815260206004820152601e60248201527f596f752068617665206e6f74207061726b656420666f722061206461792e00006044820152606401610344565b6003543360009081526007602052604081205490919061077e9084610edb565b6107889190610f13565b33600081815260066020908152604080832042905560079091528120559091506107b29082610bcb565b60405181815233907fd8138f8a3f377c5259ca548e70e4c2de94f129f5a11036a15b69513cba2b426a90602001610612565b600054600160a060020a031633146108115760405160e560020a62461bcd02815260040161034490610e7e565b8051610824906009906020840190610c4e565b5050565b6009818154811061083857600080fd5b600091825260209091200154905081565b600054600160a060020a031633146108765760405160e560020a62461bcd02815260040161034490610e7e565b6000805473ffffffffffffffffffffffffffffffffffffffff1916600160a060020a0392909216919091179055565b600054600160a060020a031633146108d25760405160e560020a62461bcd02815260040161034490610e7e565b600255565b600054600160a060020a031633146109045760405160e560020a62461bcd02815260040161034490610e7e565b600355565b600a818154811061083857600080fd5b600054600160a060020a031633146109465760405160e560020a62461bcd02815260040161034490610e7e565b600160a060020a03166000908152600560205260409020805460ff19166001179055565b3360009081526008602052604081205490036109cb5760405160e560020a62461bcd02815260206004820152601360248201527f596f7520617265206e6f74207061726b65642e000000000000000000000000006044820152606401610344565b33600090815260086020526040902054600a8054829081106109ef576109ef610e11565b60009182526020822001805491610a0583610f2a565b90915550503360008181526008602052604080822091909155517faf65ecdc8a0d3ea90c8344c89e7001864fddf59dfdf41da2994463fe99049a5990610a4e9084815260200190565b60405180910390a250565b6060600a80548060200260200160405190810160405280929190818152602001828054801561066c5760200282019190600052602060002090815481526020019060010190808311610658575050505050905090565b6001546040517f70a08231000000000000000000000000000000000000000000000000000000008152600160a060020a03838116600483015260009216906370a0823190602401602060405180830381865afa158015610b13573d6000803e3d6000fd5b505050506040513d601f19601f82011682018060405250810190610b379190610f41565b92915050565b6000600a8281548110610b5257610b52610e11565b9060005260206000200154600003610b6c57506000919050565b60098281548110610b7f57610b7f610e11565b9060005260206000200154600a8381548110610b9d57610b9d610e11565b90600052602060002001546001610bb49190610f5a565b600254610bc19190610f13565b610b379190610eee565b6001546040517f40c10f19000000000000000000000000000000000000000000000000000000008152600160a060020a03848116600483015260248201849052909116906340c10f1990604401600060405180830381600087803b158015610c3257600080fd5b505af1158015610c46573d6000803e3d6000fd5b505050505050565b828054828255906000526020600020908101928215610c89579160200282015b82811115610c89578251825591602001919060010190610c6e565b50610c95929150610c99565b5090565b5b80821115610c955760008155600101610c9a565b600060208284031215610cc057600080fd5b5035919050565b6020808252825182820181905260009190848201906040850190845b81811015610cff57835183529284019291840191600101610ce3565b50909695505050505050565b600060208284031215610d1d57600080fd5b8135600160a060020a0381168114610d3457600080fd5b9392505050565b60e060020a634e487b7102600052604160045260246000fd5b60006020808385031215610d6757600080fd5b823567ffffffffffffffff80821115610d7f57600080fd5b818501915085601f830112610d9357600080fd5b813581811115610da557610da5610d3b565b838102604051601f19603f83011681018181108582111715610dc957610dc9610d3b565b604052918252848201925083810185019188831115610de757600080fd5b938501935b82851015610e0557843584529385019392850192610dec565b98975050505050505050565b60e060020a634e487b7102600052603260045260246000fd5b600060208284031215610e3c57600080fd5b81518015158114610d3457600080fd5b60e060020a634e487b7102600052601160045260246000fd5b600060018201610e7757610e77610e4c565b5060010190565b60208082526022908201527f4f6e6c792061646d696e2063616e2063616c6c20746869732066756e6374696f60408201527f6e2e000000000000000000000000000000000000000000000000000000000000606082015260800190565b81810381811115610b3757610b37610e4c565b600082610f0e5760e060020a634e487b7102600052601260045260246000fd5b500490565b8082028115828204841417610b3757610b37610e4c565b600081610f3957610f39610e4c565b506000190190565b600060208284031215610f5357600080fd5b5051919050565b80820180821115610b3757610b37610e4c56fea264697066735822122010e2180dae291b0adf0b7f15a2d1ecdf1cbd2ccfcffb1699850c60078f05a10d64736f6c63430008110033",
  "immutableReferences": {},
  "source": "// SPDX-License-Identifier: MIT\npragma solidity >=0.4.22 <0.9.0;\n\n// import IERC20 from openzeppelin\nimport \"@openzeppelin/contracts/token/ERC20/IERC20.sol\";\n\nabstract contract IUBPC is IERC20 {\n  function mint(address account, uint256 amount) public virtual;\n  function claim_airdrop() public virtual;\n  function setChainPark(address _chainParkAddr) public virtual;\n}\n\n\n\ncontract ChainPark  {\n\n  // In reality this would be set to 1 day, but for testing purposes we set it to 1 minute\n  uint public constant CLAIM_WAIT_PERIOD = 1 minutes; // 1 day\n  // We dont want to wait days to be able to test claim, so we set it to 1 minute\n\n  address admin;\n  address public UBPC_CONTRACT; // address of the UBParkingCredits contract\n\n  uint public maxFee; // the cost to park if you are the last person to park\n  uint public dailyIncome; // the amount you will earn if you do not park for a day\n  \n  uint staffLot; // lotIndex of lot that is reserved for staff\n  mapping(address=>bool) staff;\n\n  mapping(address=>uint) lastClaimed; // timestamp\n  mapping(address=>uint) parksSinceClaim;\n\n  mapping(address=>uint) public currentlyParked; // 0 if not parked, otherwise lotIndex\n\n  uint[] public lotMaxCapacities; // index 0 is not used. Lots are 1-indexed so that 0 can be used to represent not parked\n  uint[] public lotCurrentCapacities;\n\n\n  event Parked(address indexed user, uint lotIndex);\n  event Left(address indexed user, uint lotIndex);\n  event Claimed(address indexed user, uint amount);\n\n  modifier onlyAdmin() {\n    require(msg.sender == admin, \"Only admin can call this function.\");\n    _;\n  }\n\n  modifier notFull(uint lotIndex) {\n    require(lotCurrentCapacities[lotIndex] < lotMaxCapacities[lotIndex], \"Lot is full.\");\n    _;\n  }\n\n  constructor(uint[] memory _lotMaxCapacities, address _ubpcContractAddr, uint256 _maxFee, uint _dailyIncome, uint _staffLot) {\n    admin = msg.sender;\n    lotMaxCapacities = _lotMaxCapacities;\n    lotCurrentCapacities = new uint[](_lotMaxCapacities.length);\n    UBPC_CONTRACT = _ubpcContractAddr;\n    maxFee = _maxFee;\n    dailyIncome = _dailyIncome;\n    staffLot = _staffLot;\n  }\n\n\n  function getFee(uint lotIndex) public view returns (uint) {\n    if (lotCurrentCapacities[lotIndex] == 0) {\n      return 0; // free to park if no one is parked\n    }\n    return maxFee * (lotCurrentCapacities[lotIndex] + 1) / lotMaxCapacities[lotIndex];\n  }\n\n  function park(uint lotIndex) public notFull(lotIndex) {\n    require(checkUBPCBalance(msg.sender) >= getFee(lotIndex), \"Insufficient UBPC.\");\n    require(lotIndex != 0, \"Lot index cannot be 0.\");\n    require(currentlyParked[msg.sender] == 0, \"You are already parked.\");\n\n    if (lotIndex == staffLot) {\n      require(staff[msg.sender], \"Only staff can park in the staff lot.\");\n    }\n\n    IUBPC(UBPC_CONTRACT).transferFrom(msg.sender, address(this), getFee(lotIndex));\n\n    lotCurrentCapacities[lotIndex]++;\n    currentlyParked[msg.sender] = lotIndex;\n    emit Parked(msg.sender, lotIndex);\n  }\n\n\n  function leave() public {\n    require(currentlyParked[msg.sender] != 0, \"You are not parked.\");\n    uint lotIndex = uint(currentlyParked[msg.sender]);\n    lotCurrentCapacities[lotIndex]--;\n    currentlyParked[msg.sender] = 0;\n    emit Left(msg.sender, lotIndex);\n  }\n\n  function claim() public {\n    uint daysSinceClaim = (block.timestamp - lastClaimed[msg.sender]) / CLAIM_WAIT_PERIOD;\n    require(daysSinceClaim > parksSinceClaim[msg.sender], \"You have not parked for a day.\");\n    uint amount = (daysSinceClaim - parksSinceClaim[msg.sender]) * dailyIncome; // you will not get paid for the days you parked\n    lastClaimed[msg.sender] = block.timestamp;\n    parksSinceClaim[msg.sender] = 0;\n    mintUBPC(msg.sender, amount); // call mint function of UBPC contract\n    emit Claimed(msg.sender, amount);\n  }\n\n  function checkUBPCBalance(address user) public view returns (uint) {\n    return IUBPC(UBPC_CONTRACT).balanceOf(user);\n  }\n\n  function mintUBPC(address account, uint256 amount) internal {\n    IUBPC(UBPC_CONTRACT).mint(account, amount);\n  }\n\n  function withdraw() public onlyAdmin {\n    payable(msg.sender).transfer(address(this).balance);\n  }\n\n  function getLotMaxCapacities() public view returns (uint[] memory) {\n    return lotMaxCapacities;\n  }\n\n  function getLotCurrentCapacities() public view returns (uint[] memory) {\n    return lotCurrentCapacities;\n  }\n\n  function setMaxCapacities(uint[] memory _lotMaxCapacities) public onlyAdmin {\n    lotMaxCapacities = _lotMaxCapacities;\n  }\n\n  function setMaxFee(uint256 _maxFee) public onlyAdmin {\n    maxFee = _maxFee;\n  }\n\n  function setDailyIncome(uint _dailyIncome) public onlyAdmin {\n    dailyIncome = _dailyIncome;\n  }\n\n  function setStaff(address _staffAddr) public onlyAdmin {\n    staff[_staffAddr] = true;\n  }\n\n  function setAdmin(address _newAdmin) public onlyAdmin {\n    admin = _newAdmin;\n  }\n}\n",
  "sourcePath": "/home/sib/eth/UB-Chain-Park/truffle/contracts/ChainPark.sol",
  "compiler": {
    "name": "solc",
    "version": "0.8.17+commit.8df45f5f.Emscripten.clang"
  },
  "schemaVersion": "3.4.10",
  "updatedAt": "2022-12-04T03:43:11.611Z",
  "networkType": "ethereum",
  "devdoc": {
    "kind": "dev",
    "methods": {},
    "version": 1
  },
  "userdoc": {
    "kind": "user",
    "methods": {},
    "version": 1
  }
}