{
  "contractName": "ChainPark",
  "abi": [
    {
      "inputs": [
        {
          "internalType": "uint256[]",
          "name": "_lotMaxCapacities",
          "type": "uint256[]"
        },
        {
          "internalType": "enum ChainPark.lotType[]",
          "name": "_lotTypes",
          "type": "uint8[]"
        },
        {
          "internalType": "uint256",
          "name": "_maxFee",
          "type": "uint256"
        },
        {
          "internalType": "uint256",
          "name": "_dailyIncome",
          "type": "uint256"
        }
      ],
      "stateMutability": "nonpayable",
      "type": "constructor"
    },
    {
      "anonymous": false,
      "inputs": [
        {
          "indexed": true,
          "internalType": "address",
          "name": "user",
          "type": "address"
        },
        {
          "indexed": false,
          "internalType": "uint256",
          "name": "amount",
          "type": "uint256"
        }
      ],
      "name": "Claimed",
      "type": "event"
    },
    {
      "anonymous": false,
      "inputs": [
        {
          "indexed": true,
          "internalType": "address",
          "name": "user",
          "type": "address"
        },
        {
          "indexed": false,
          "internalType": "uint256",
          "name": "lotIndex",
          "type": "uint256"
        }
      ],
      "name": "Left",
      "type": "event"
    },
    {
      "anonymous": false,
      "inputs": [
        {
          "indexed": true,
          "internalType": "address",
          "name": "user",
          "type": "address"
        },
        {
          "indexed": false,
          "internalType": "uint256",
          "name": "lotIndex",
          "type": "uint256"
        }
      ],
      "name": "Parked",
      "type": "event"
    },
    {
      "inputs": [
        {
          "internalType": "uint256",
          "name": "",
          "type": "uint256"
        }
      ],
      "name": "lotCurrentCapacities",
      "outputs": [
        {
          "internalType": "uint256",
          "name": "",
          "type": "uint256"
        }
      ],
      "stateMutability": "view",
      "type": "function",
      "constant": true
    },
    {
      "inputs": [
        {
          "internalType": "uint256",
          "name": "",
          "type": "uint256"
        }
      ],
      "name": "lotMaxCapacities",
      "outputs": [
        {
          "internalType": "uint256",
          "name": "",
          "type": "uint256"
        }
      ],
      "stateMutability": "view",
      "type": "function",
      "constant": true
    },
    {
      "inputs": [],
      "name": "maxFee",
      "outputs": [
        {
          "internalType": "uint256",
          "name": "",
          "type": "uint256"
        }
      ],
      "stateMutability": "view",
      "type": "function",
      "constant": true
    },
    {
      "inputs": [
        {
          "internalType": "uint256[]",
          "name": "_lotMaxCapacities",
          "type": "uint256[]"
        }
      ],
      "name": "setMaxCapacities",
      "outputs": [],
      "stateMutability": "nonpayable",
      "type": "function"
    },
    {
      "inputs": [
        {
          "internalType": "enum ChainPark.lotType[]",
          "name": "_lotTypes",
          "type": "uint8[]"
        }
      ],
      "name": "setLotTypes",
      "outputs": [],
      "stateMutability": "nonpayable",
      "type": "function"
    },
    {
      "inputs": [
        {
          "internalType": "uint256",
          "name": "_maxFee",
          "type": "uint256"
        }
      ],
      "name": "setMaxFee",
      "outputs": [],
      "stateMutability": "nonpayable",
      "type": "function"
    },
    {
      "inputs": [
        {
          "internalType": "uint256",
          "name": "_dailyIncome",
          "type": "uint256"
        }
      ],
      "name": "setDailyIncome",
      "outputs": [],
      "stateMutability": "nonpayable",
      "type": "function"
    },
    {
      "inputs": [
        {
          "internalType": "address",
          "name": "newAdmin",
          "type": "address"
        }
      ],
      "name": "setAdmin",
      "outputs": [],
      "stateMutability": "nonpayable",
      "type": "function"
    },
    {
      "inputs": [
        {
          "internalType": "uint256",
          "name": "lotIndex",
          "type": "uint256"
        }
      ],
      "name": "getFee",
      "outputs": [
        {
          "internalType": "uint256",
          "name": "",
          "type": "uint256"
        }
      ],
      "stateMutability": "view",
      "type": "function",
      "constant": true
    },
    {
      "inputs": [
        {
          "internalType": "uint256",
          "name": "lotIndex",
          "type": "uint256"
        }
      ],
      "name": "park",
      "outputs": [],
      "stateMutability": "payable",
      "type": "function",
      "payable": true
    },
    {
      "inputs": [],
      "name": "leave",
      "outputs": [],
      "stateMutability": "nonpayable",
      "type": "function"
    },
    {
      "inputs": [],
      "name": "claim",
      "outputs": [],
      "stateMutability": "nonpayable",
      "type": "function"
    }
  ],
  "bytecode": "0x60806040523480156200001157600080fd5b50604051620012a1380380620012a18339810160408190526200003491620002fc565b600182905560008054600160a060020a03191633179055825162000060906009906020860190620000e2565b50835162000076906007906020870190620001a0565b5083516001604060020a03811115620000935762000093620001f5565b604051908082528060200260200182016040528015620000bd578160200160208202803683370190505b508051620000d491600891602090910190620001a0565b5060025550620003ff915050565b82805482825590600052602060002090601f016020900481019282156200018e5791602002820160005b838211156200015d57835183826101000a81548160ff021916908360028111156200013b576200013b620003d0565b021790555092602001926001016020816000010492830192600103026200010c565b80156200018c5782816101000a81549060ff02191690556001016020816000010492830192600103026200015d565b505b506200019c929150620001de565b5090565b8280548282559060005260206000209081019282156200018e579160200282015b828111156200018e578251825591602001919060010190620001c1565b5b808211156200019c5760008155600101620001df565b7f4e487b7100000000000000000000000000000000000000000000000000000000600052604160045260246000fd5b604051601f8201601f191681016001604060020a03811182821017156200024f576200024f620001f5565b604052919050565b60006001604060020a03821115620002735762000273620001f5565b5060209081020190565b600082601f8301126200028f57600080fd5b81516020620002a8620002a28362000257565b62000224565b82815291810284018101918181019086841115620002c557600080fd5b8286015b84811015620002f157805160038110620002e35760008081fd5b8352918301918301620002c9565b509695505050505050565b600080600080608085870312156200031357600080fd5b84516001604060020a03808211156200032b57600080fd5b818701915087601f8301126200034057600080fd5b8151602062000353620002a28362000257565b8281529181028401810191818101908b8411156200037057600080fd5b948201945b83861015620003905785518252948201949082019062000375565b918a0151919850909350505080821115620003aa57600080fd5b50620003b9878288016200027d565b604087015160609097015195989097509350505050565b7f4e487b7100000000000000000000000000000000000000000000000000000000600052602160045260246000fd5b610e92806200040f6000396000f3fe6080604052600436106100c4576000357c010000000000000000000000000000000000000000000000000000000090048063704b6c0211610081578063704b6c021461017b578063710e5d2f1461019b57806383f4eb63146101bb578063c564b627146101db578063d66d9e19146101fb578063fcee45f41461021057600080fd5b806301f59d16146100c957806307afe492146100f15780634e71d92d1461010657806354be8be61461011b578063628310b31461013b5780636c0414621461015b575b600080fd5b3480156100d557600080fd5b506100df60015481565b60405190815260200160405180910390f35b6101046100ff366004610b47565b610230565b005b34801561011257600080fd5b506101046103e1565b34801561012757600080fd5b50610104610136366004610bce565b61051f565b34801561014757600080fd5b506100df610156366004610b47565b61055f565b34801561016757600080fd5b50610104610176366004610c61565b610580565b34801561018757600080fd5b50610104610196366004610cf2565b6105c0565b3480156101a757600080fd5b506101046101b6366004610b47565b61061c565b3480156101c757600080fd5b506101046101d6366004610b47565b61064e565b3480156101e757600080fd5b506100df6101f6366004610b47565b610680565b34801561020757600080fd5b50610104610690565b34801561021c57600080fd5b506100df61022b366004610b47565b610782565b806007818154811061024457610244610d22565b90600052602060002001546008828154811061026257610262610d22565b9060005260206000200154106102c25760405160e560020a62461bcd02815260206004820152600c60248201527f4c6f742069732066756c6c2e000000000000000000000000000000000000000060448201526064015b60405180910390fd5b6102cb82610782565b34101561031d5760405160e560020a62461bcd02815260206004820152601360248201527f496e73756666696369656e742066756e64732e0000000000000000000000000060448201526064016102b9565b33600090815260066020526040902054600019146103805760405160e560020a62461bcd02815260206004820152601760248201527f596f752061726520616c7265616479207061726b65642e00000000000000000060448201526064016102b9565b60006009838154811061039557610395610d22565b90600052602060002090602091828204019190069054906101000a900460ff1660028111156103c6576103c6610d3b565b036103d8576103d482610816565b5050565b6103d4826109a6565b3360009081526004602052604081205462015180906104009042610d6d565b61040a9190610d80565b33600090815260056020526040902054909150811161046e5760405160e560020a62461bcd02815260206004820152601e60248201527f596f752068617665206e6f74207061726b656420666f722061206461792e000060448201526064016102b9565b6002543360009081526005602052604081205490919061048e9084610d6d565b6104989190610da5565b336000818152600460209081526040808320429055600590915280822082905551929350909183156108fc0291849190818181858888f193505050501580156104e5573d6000803e3d6000fd5b5060405181815233907fd8138f8a3f377c5259ca548e70e4c2de94f129f5a11036a15b69513cba2b426a9060200160405180910390a25050565b600054600160a060020a0316331461054c5760405160e560020a62461bcd0281526004016102b990610dbc565b80516103d4906007906020840190610a3c565b6007818154811061056f57600080fd5b600091825260209091200154905081565b600054600160a060020a031633146105ad5760405160e560020a62461bcd0281526004016102b990610dbc565b80516103d4906009906020840190610a87565b600054600160a060020a031633146105ed5760405160e560020a62461bcd0281526004016102b990610dbc565b6000805473ffffffffffffffffffffffffffffffffffffffff1916600160a060020a0392909216919091179055565b600054600160a060020a031633146106495760405160e560020a62461bcd0281526004016102b990610dbc565b600155565b600054600160a060020a0316331461067b5760405160e560020a62461bcd0281526004016102b990610dbc565b600255565b6008818154811061056f57600080fd5b336000908152600660205260409020546001016106f25760405160e560020a62461bcd02815260206004820152601360248201527f596f7520617265206e6f74207061726b65642e0000000000000000000000000060448201526064016102b9565b33600090815260066020526040902054600880548290811061071657610716610d22565b6000918252602082200180549161072c83610e19565b909155505033600081815260066020526040908190206000199055517faf65ecdc8a0d3ea90c8344c89e7001864fddf59dfdf41da2994463fe99049a59906107779084815260200190565b60405180910390a250565b60006008828154811061079757610797610d22565b90600052602060002001546000036107b157506000919050565b600782815481106107c4576107c4610d22565b9060005260206000200154600883815481106107e2576107e2610d22565b906000526020600020015460016107f99190610e30565b6001546108069190610da5565b6108109190610d80565b92915050565b3360009081526003602052604090205460ff1661089e5760405160e560020a62461bcd02815260206004820152602260248201527f4f6e6c792073746166662063616e2063616c6c20746869732066756e6374696f60448201527f6e2e00000000000000000000000000000000000000000000000000000000000060648201526084016102b9565b6001600982815481106108b3576108b3610d22565b90600052602060002090602091828204019190069054906101000a900460ff1660028111156108e4576108e4610d3b565b036109345760405160e560020a62461bcd02815260206004820152601e60248201527f54686973206c6f7420697320666f722073747564656e7473206f6e6c792e000060448201526064016102b9565b6008818154811061094757610947610d22565b6000918252602082200180549161095d83610e43565b90915550503360008181526006602052604090819020839055517fcddbea0c092495e8718375ec92f5371831dcfb5bfe86a2645e974bb42ad997a7906107779084815260200190565b6000600982815481106109bb576109bb610d22565b90600052602060002090602091828204019190069054906101000a900460ff1660028111156109ec576109ec610d3b565b036109345760405160e560020a62461bcd02815260206004820152601b60248201527f54686973206c6f7420697320666f72207374616666206f6e6c792e000000000060448201526064016102b9565b828054828255906000526020600020908101928215610a77579160200282015b82811115610a77578251825591602001919060010190610a5c565b50610a83929150610b32565b5090565b82805482825590600052602060002090601f01602090048101928215610a775791602002820160005b83821115610afc57835183826101000a81548160ff02191690836002811115610adb57610adb610d3b565b02179055509260200192600101602081600001049283019260010302610ab0565b8015610b295782816101000a81549060ff0219169055600101602081600001049283019260010302610afc565b5050610a839291505b5b80821115610a835760008155600101610b33565b600060208284031215610b5957600080fd5b5035919050565b60e060020a634e487b7102600052604160045260246000fd5b604051601f8201601f1916810167ffffffffffffffff81118282101715610ba257610ba2610b60565b604052919050565b600067ffffffffffffffff821115610bc457610bc4610b60565b5060209081020190565b60006020808385031215610be157600080fd5b823567ffffffffffffffff811115610bf857600080fd5b8301601f81018513610c0957600080fd5b8035610c1c610c1782610baa565b610b79565b81815290830282018301908381019087831115610c3857600080fd5b928401925b82841015610c5657833582529284019290840190610c3d565b979650505050505050565b60006020808385031215610c7457600080fd5b823567ffffffffffffffff811115610c8b57600080fd5b8301601f81018513610c9c57600080fd5b8035610caa610c1782610baa565b81815290830282018301908381019087831115610cc657600080fd5b928401925b82841015610c5657833560038110610ce35760008081fd5b82529284019290840190610ccb565b600060208284031215610d0457600080fd5b8135600160a060020a0381168114610d1b57600080fd5b9392505050565b60e060020a634e487b7102600052603260045260246000fd5b60e060020a634e487b7102600052602160045260246000fd5b60e060020a634e487b7102600052601160045260246000fd5b8181038181111561081057610810610d54565b600082610da05760e060020a634e487b7102600052601260045260246000fd5b500490565b808202811582820484141761081057610810610d54565b60208082526022908201527f4f6e6c792061646d696e2063616e2063616c6c20746869732066756e6374696f60408201527f6e2e000000000000000000000000000000000000000000000000000000000000606082015260800190565b600081610e2857610e28610d54565b506000190190565b8082018082111561081057610810610d54565b600060018201610e5557610e55610d54565b506001019056fea264697066735822122062b859200fe0e9631bab148729441d88100cb668f997d506d7865eb118f9697864736f6c63430008110033",
  "immutableReferences": {},
  "source": "// SPDX-License-Identifier: MIT\npragma solidity >=0.4.22 <0.9.0;\n\ncontract ChainPark {\n  address admin;\n  uint256 public maxFee; // the cost to park if you are the last person to park\n  uint dailyIncome; // the amount you will earn if you do not park for a day\n  uint constant NOT_PARKED = 2**256 - 1; // use max uint to represent not parked\n  mapping(address=>bool) staff;\n  mapping(address=>uint) lastClaimed; // timestamp\n  mapping(address=>uint) parksSinceClaim;\n  mapping(address=>uint) currentlyParked; // NOT_PARKED if not parked, otherwise lotIndex\n  uint[] public lotMaxCapacities;\n  uint[] public lotCurrentCapacities;\n  enum lotType {Staff, Student, Both}\n  lotType[] lotTypes;\n\n  event Parked(address indexed user, uint lotIndex);\n  event Left(address indexed user, uint lotIndex);\n  event Claimed(address indexed user, uint amount);\n\n  modifier onlyAdmin() {\n    require(msg.sender == admin, \"Only admin can call this function.\");\n    _;\n  }\n\n  modifier onlyStaff() {\n    require(staff[msg.sender], \"Only staff can call this function.\");\n    _;\n  }\n\n  modifier notFull(uint lotIndex) {\n    require(lotCurrentCapacities[lotIndex] < lotMaxCapacities[lotIndex], \"Lot is full.\");\n    _;\n  }\n\n  constructor(uint[] memory _lotMaxCapacities, lotType[] memory _lotTypes, uint256 _maxFee, uint _dailyIncome) {\n    maxFee = _maxFee;\n    admin = msg.sender;\n    lotTypes = _lotTypes;\n    lotMaxCapacities = _lotMaxCapacities;\n    lotCurrentCapacities = new uint[](_lotMaxCapacities.length);\n    dailyIncome = _dailyIncome;\n  }\n\n  function setMaxCapacities(uint[] memory _lotMaxCapacities) public onlyAdmin {\n    lotMaxCapacities = _lotMaxCapacities;\n  }\n\n  function setLotTypes(lotType[] memory _lotTypes) public onlyAdmin {\n    lotTypes = _lotTypes;\n  }\n\n  function setMaxFee(uint256 _maxFee) public onlyAdmin {\n    maxFee = _maxFee;\n  }\n\n  function setDailyIncome(uint _dailyIncome) public onlyAdmin {\n    dailyIncome = _dailyIncome;\n  }\n\n  function setAdmin(address newAdmin) public onlyAdmin {\n    admin = newAdmin;\n  }\n\n  function getFee(uint lotIndex) public view returns (uint) {\n    if (lotCurrentCapacities[lotIndex] == 0) {\n      return 0;\n    }\n    return maxFee * (lotCurrentCapacities[lotIndex] + 1) / lotMaxCapacities[lotIndex];\n  }\n\n  function park(uint lotIndex) public payable notFull(lotIndex) {\n    require(msg.value >= getFee(lotIndex), \"Insufficient funds.\");\n    require(currentlyParked[msg.sender] == NOT_PARKED, \"You are already parked.\");\n    if (lotTypes[lotIndex] == lotType.Staff) {\n      parkStaff(lotIndex);\n    } else {\n      parkStudent(lotIndex);\n    }\n  }\n\n  function parkStudent(uint lotIndex) private {\n    require(lotTypes[lotIndex] != lotType.Staff, \"This lot is for staff only.\");\n    lotCurrentCapacities[lotIndex]++;\n    currentlyParked[msg.sender] = lotIndex;\n    emit Parked(msg.sender, lotIndex);\n  }\n\n  function parkStaff(uint lotIndex) private onlyStaff {\n    require(lotTypes[lotIndex] != lotType.Student, \"This lot is for students only.\");\n    lotCurrentCapacities[lotIndex]++;\n    currentlyParked[msg.sender] = lotIndex;\n    emit Parked(msg.sender, lotIndex);\n  }\n\n  function leave() public {\n    require(currentlyParked[msg.sender] != NOT_PARKED, \"You are not parked.\");\n    uint lotIndex = uint(currentlyParked[msg.sender]);\n    lotCurrentCapacities[lotIndex]--;\n    currentlyParked[msg.sender] = NOT_PARKED;\n    emit Left(msg.sender, lotIndex);\n  }\n\n  function claim() public { // this will interact with the ERC20 token contract eventualy\n    uint daysSinceClaim = (block.timestamp - lastClaimed[msg.sender]) / 1 days;\n    require(daysSinceClaim > parksSinceClaim[msg.sender], \"You have not parked for a day.\");\n    uint amount = (daysSinceClaim - parksSinceClaim[msg.sender]) * dailyIncome; // you will not get paid for the days you parked\n    lastClaimed[msg.sender] = block.timestamp;\n    parksSinceClaim[msg.sender] = 0;\n    payable(msg.sender).transfer(amount);\n    emit Claimed(msg.sender, amount);\n  }\n}\n",
  "sourcePath": "/home/sib/eth/UB-Chain-Park/truffle/contracts/ChainPark.sol",
  "compiler": {
    "name": "solc",
    "version": "0.8.17+commit.8df45f5f.Emscripten.clang"
  },
  "schemaVersion": "3.4.10",
  "updatedAt": "2022-10-30T19:18:27.548Z",
  "networkType": "ethereum",
  "devdoc": {
    "kind": "dev",
    "methods": {},
    "version": 1
  },
  "userdoc": {
    "kind": "user",
    "methods": {},
    "version": 1
  }
}