{
  "contractName": "ChainPark",
  "abi": [
    {
      "inputs": [
        {
          "internalType": "uint256[]",
          "name": "_lotMaxCapacities",
          "type": "uint256[]"
        },
        {
          "internalType": "enum ChainPark.lotType[]",
          "name": "_lotTypes",
          "type": "uint8[]"
        },
        {
          "internalType": "uint256",
          "name": "_maxFee",
          "type": "uint256"
        },
        {
          "internalType": "uint256",
          "name": "_dailyIncome",
          "type": "uint256"
        }
      ],
      "stateMutability": "nonpayable",
      "type": "constructor"
    },
    {
      "anonymous": false,
      "inputs": [
        {
          "indexed": true,
          "internalType": "address",
          "name": "user",
          "type": "address"
        },
        {
          "indexed": false,
          "internalType": "uint256",
          "name": "amount",
          "type": "uint256"
        }
      ],
      "name": "Claimed",
      "type": "event"
    },
    {
      "anonymous": false,
      "inputs": [
        {
          "indexed": true,
          "internalType": "address",
          "name": "user",
          "type": "address"
        },
        {
          "indexed": false,
          "internalType": "uint256",
          "name": "lotIndex",
          "type": "uint256"
        }
      ],
      "name": "Left",
      "type": "event"
    },
    {
      "anonymous": false,
      "inputs": [
        {
          "indexed": true,
          "internalType": "address",
          "name": "user",
          "type": "address"
        },
        {
          "indexed": false,
          "internalType": "uint256",
          "name": "lotIndex",
          "type": "uint256"
        }
      ],
      "name": "Parked",
      "type": "event"
    },
    {
      "inputs": [
        {
          "internalType": "address",
          "name": "",
          "type": "address"
        }
      ],
      "name": "currentlyParked",
      "outputs": [
        {
          "internalType": "uint256",
          "name": "",
          "type": "uint256"
        }
      ],
      "stateMutability": "view",
      "type": "function",
      "constant": true
    },
    {
      "inputs": [
        {
          "internalType": "uint256",
          "name": "",
          "type": "uint256"
        }
      ],
      "name": "lotCurrentCapacities",
      "outputs": [
        {
          "internalType": "uint256",
          "name": "",
          "type": "uint256"
        }
      ],
      "stateMutability": "view",
      "type": "function",
      "constant": true
    },
    {
      "inputs": [
        {
          "internalType": "uint256",
          "name": "",
          "type": "uint256"
        }
      ],
      "name": "lotMaxCapacities",
      "outputs": [
        {
          "internalType": "uint256",
          "name": "",
          "type": "uint256"
        }
      ],
      "stateMutability": "view",
      "type": "function",
      "constant": true
    },
    {
      "inputs": [],
      "name": "maxFee",
      "outputs": [
        {
          "internalType": "uint256",
          "name": "",
          "type": "uint256"
        }
      ],
      "stateMutability": "view",
      "type": "function",
      "constant": true
    },
    {
      "inputs": [
        {
          "internalType": "uint256",
          "name": "lotIndex",
          "type": "uint256"
        }
      ],
      "name": "getFee",
      "outputs": [
        {
          "internalType": "uint256",
          "name": "",
          "type": "uint256"
        }
      ],
      "stateMutability": "view",
      "type": "function",
      "constant": true
    },
    {
      "inputs": [
        {
          "internalType": "uint256",
          "name": "lotIndex",
          "type": "uint256"
        }
      ],
      "name": "park",
      "outputs": [],
      "stateMutability": "payable",
      "type": "function",
      "payable": true
    },
    {
      "inputs": [],
      "name": "leave",
      "outputs": [],
      "stateMutability": "nonpayable",
      "type": "function"
    },
    {
      "inputs": [],
      "name": "claim",
      "outputs": [],
      "stateMutability": "nonpayable",
      "type": "function"
    },
    {
      "inputs": [],
      "name": "withdraw",
      "outputs": [],
      "stateMutability": "nonpayable",
      "type": "function"
    },
    {
      "inputs": [
        {
          "internalType": "uint256[]",
          "name": "_lotMaxCapacities",
          "type": "uint256[]"
        }
      ],
      "name": "setMaxCapacities",
      "outputs": [],
      "stateMutability": "nonpayable",
      "type": "function"
    },
    {
      "inputs": [
        {
          "internalType": "enum ChainPark.lotType[]",
          "name": "_lotTypes",
          "type": "uint8[]"
        }
      ],
      "name": "setLotTypes",
      "outputs": [],
      "stateMutability": "nonpayable",
      "type": "function"
    },
    {
      "inputs": [
        {
          "internalType": "uint256",
          "name": "_maxFee",
          "type": "uint256"
        }
      ],
      "name": "setMaxFee",
      "outputs": [],
      "stateMutability": "nonpayable",
      "type": "function"
    },
    {
      "inputs": [
        {
          "internalType": "uint256",
          "name": "_dailyIncome",
          "type": "uint256"
        }
      ],
      "name": "setDailyIncome",
      "outputs": [],
      "stateMutability": "nonpayable",
      "type": "function"
    },
    {
      "inputs": [
        {
          "internalType": "address",
          "name": "newAdmin",
          "type": "address"
        }
      ],
      "name": "setAdmin",
      "outputs": [],
      "stateMutability": "nonpayable",
      "type": "function"
    }
  ],
  "bytecode": "0x60806040523480156200001157600080fd5b50604051620011b7380380620011b78339810160408190526200003491620002fc565b600182905560008054600160a060020a03191633179055825162000060906008906020860190620000e2565b50835162000076906006906020870190620001a0565b5083516001604060020a03811115620000935762000093620001f5565b604051908082528060200260200182016040528015620000bd578160200160208202803683370190505b508051620000d491600791602090910190620001a0565b5060025550620003ff915050565b82805482825590600052602060002090601f016020900481019282156200018e5791602002820160005b838211156200015d57835183826101000a81548160ff021916908360028111156200013b576200013b620003d0565b021790555092602001926001016020816000010492830192600103026200010c565b80156200018c5782816101000a81549060ff02191690556001016020816000010492830192600103026200015d565b505b506200019c929150620001de565b5090565b8280548282559060005260206000209081019282156200018e579160200282015b828111156200018e578251825591602001919060010190620001c1565b5b808211156200019c5760008155600101620001df565b7f4e487b7100000000000000000000000000000000000000000000000000000000600052604160045260246000fd5b604051601f8201601f191681016001604060020a03811182821017156200024f576200024f620001f5565b604052919050565b60006001604060020a03821115620002735762000273620001f5565b5060209081020190565b600082601f8301126200028f57600080fd5b81516020620002a8620002a28362000257565b62000224565b82815291810284018101918181019086841115620002c557600080fd5b8286015b84811015620002f157805160038110620002e35760008081fd5b8352918301918301620002c9565b509695505050505050565b600080600080608085870312156200031357600080fd5b84516001604060020a03808211156200032b57600080fd5b818701915087601f8301126200034057600080fd5b8151602062000353620002a28362000257565b8281529181028401810191818101908b8411156200037057600080fd5b948201945b83861015620003905785518252948201949082019062000375565b918a0151919850909350505080821115620003aa57600080fd5b50620003b9878288016200027d565b604087015160609097015195989097509350505050565b7f4e487b7100000000000000000000000000000000000000000000000000000000600052602160045260246000fd5b610da8806200040f6000396000f3fe6080604052600436106100fa576000357c0100000000000000000000000000000000000000000000000000000000900480636c0414621161009c57806383f4eb631161007657806383f4eb6314610233578063c564b62714610253578063d66d9e1914610273578063fcee45f41461028857600080fd5b80636c041462146101d3578063704b6c02146101f3578063710e5d2f1461021357600080fd5b80634cc64f80116100d85780634cc64f80146101515780634e71d92d1461017e57806354be8be614610193578063628310b3146101b357600080fd5b806301f59d16146100ff57806307afe492146101275780633ccfd60b1461013c575b600080fd5b34801561010b57600080fd5b5061011560015481565b60405190815260200160405180910390f35b61013a610135366004610a5d565b6102a8565b005b34801561014857600080fd5b5061013a6104c6565b34801561015d57600080fd5b5061011561016c366004610a76565b60056020526000908152604090205481565b34801561018a57600080fd5b5061013a610523565b34801561019f57600080fd5b5061013a6101ae366004610b14565b61065a565b3480156101bf57600080fd5b506101156101ce366004610a5d565b61069e565b3480156101df57600080fd5b5061013a6101ee366004610ba7565b6106bf565b3480156101ff57600080fd5b5061013a61020e366004610a76565b6106ff565b34801561021f57600080fd5b5061013a61022e366004610a5d565b61075b565b34801561023f57600080fd5b5061013a61024e366004610a5d565b61078d565b34801561025f57600080fd5b5061011561026e366004610a5d565b6107bf565b34801561027f57600080fd5b5061013a6107cf565b34801561029457600080fd5b506101156102a3366004610a5d565b6108be565b80600681815481106102bc576102bc610c38565b9060005260206000200154600782815481106102da576102da610c38565b90600052602060002001541061033a5760405160e560020a62461bcd02815260206004820152600c60248201527f4c6f742069732066756c6c2e000000000000000000000000000000000000000060448201526064015b60405180910390fd5b610343826108be565b3410156103955760405160e560020a62461bcd02815260206004820152601360248201527f496e73756666696369656e742066756e64732e000000000000000000000000006044820152606401610331565b816000036103e85760405160e560020a62461bcd02815260206004820152601660248201527f4c6f7420696e6465782063616e6e6f7420626520302e000000000000000000006044820152606401610331565b33600090815260056020526040902054156104485760405160e560020a62461bcd02815260206004820152601760248201527f596f752061726520616c7265616479207061726b65642e0000000000000000006044820152606401610331565b6007828154811061045b5761045b610c38565b6000918252602082200180549161047183610c6a565b90915550503360008181526005602052604090819020849055517fcddbea0c092495e8718375ec92f5371831dcfb5bfe86a2645e974bb42ad997a7906104ba9085815260200190565b60405180910390a25050565b600054600160a060020a031633146104f35760405160e560020a62461bcd02815260040161033190610c83565b6040513390303180156108fc02916000818181858888f19350505050158015610520573d6000803e3d6000fd5b50565b3360009081526003602052604081205462015180906105429042610ce0565b61054c9190610cf3565b3360009081526004602052604090205490915081116105b05760405160e560020a62461bcd02815260206004820152601e60248201527f596f752068617665206e6f74207061726b656420666f722061206461792e00006044820152606401610331565b600254336000908152600460205260408120549091906105d09084610ce0565b6105da9190610d18565b336000818152600360209081526040808320429055600490915280822082905551929350909183156108fc0291849190818181858888f19350505050158015610627573d6000803e3d6000fd5b5060405181815233907fd8138f8a3f377c5259ca548e70e4c2de94f129f5a11036a15b69513cba2b426a906020016104ba565b600054600160a060020a031633146106875760405160e560020a62461bcd02815260040161033190610c83565b805161069a906006906020840190610952565b5050565b600681815481106106ae57600080fd5b600091825260209091200154905081565b600054600160a060020a031633146106ec5760405160e560020a62461bcd02815260040161033190610c83565b805161069a90600890602084019061099d565b600054600160a060020a0316331461072c5760405160e560020a62461bcd02815260040161033190610c83565b6000805473ffffffffffffffffffffffffffffffffffffffff1916600160a060020a0392909216919091179055565b600054600160a060020a031633146107885760405160e560020a62461bcd02815260040161033190610c83565b600155565b600054600160a060020a031633146107ba5760405160e560020a62461bcd02815260040161033190610c83565b600255565b600781815481106106ae57600080fd5b3360009081526005602052604081205490036108305760405160e560020a62461bcd02815260206004820152601360248201527f596f7520617265206e6f74207061726b65642e000000000000000000000000006044820152606401610331565b33600090815260056020526040902054600780548290811061085457610854610c38565b6000918252602082200180549161086a83610d2f565b90915550503360008181526005602052604080822091909155517faf65ecdc8a0d3ea90c8344c89e7001864fddf59dfdf41da2994463fe99049a59906108b39084815260200190565b60405180910390a250565b6000600782815481106108d3576108d3610c38565b90600052602060002001546000036108ed57506000919050565b6006828154811061090057610900610c38565b90600052602060002001546007838154811061091e5761091e610c38565b906000526020600020015460016109359190610d46565b6001546109429190610d18565b61094c9190610cf3565b92915050565b82805482825590600052602060002090810192821561098d579160200282015b8281111561098d578251825591602001919060010190610972565b50610999929150610a48565b5090565b82805482825590600052602060002090601f0160209004810192821561098d5791602002820160005b83821115610a1257835183826101000a81548160ff021916908360028111156109f1576109f1610d59565b021790555092602001926001016020816000010492830192600103026109c6565b8015610a3f5782816101000a81549060ff0219169055600101602081600001049283019260010302610a12565b50506109999291505b5b808211156109995760008155600101610a49565b600060208284031215610a6f57600080fd5b5035919050565b600060208284031215610a8857600080fd5b8135600160a060020a0381168114610a9f57600080fd5b9392505050565b60e060020a634e487b7102600052604160045260246000fd5b604051601f8201601f1916810167ffffffffffffffff81118282101715610ae857610ae8610aa6565b604052919050565b600067ffffffffffffffff821115610b0a57610b0a610aa6565b5060209081020190565b60006020808385031215610b2757600080fd5b823567ffffffffffffffff811115610b3e57600080fd5b8301601f81018513610b4f57600080fd5b8035610b62610b5d82610af0565b610abf565b81815290830282018301908381019087831115610b7e57600080fd5b928401925b82841015610b9c57833582529284019290840190610b83565b979650505050505050565b60006020808385031215610bba57600080fd5b823567ffffffffffffffff811115610bd157600080fd5b8301601f81018513610be257600080fd5b8035610bf0610b5d82610af0565b81815290830282018301908381019087831115610c0c57600080fd5b928401925b82841015610b9c57833560038110610c295760008081fd5b82529284019290840190610c11565b60e060020a634e487b7102600052603260045260246000fd5b60e060020a634e487b7102600052601160045260246000fd5b600060018201610c7c57610c7c610c51565b5060010190565b60208082526022908201527f4f6e6c792061646d696e2063616e2063616c6c20746869732066756e6374696f60408201527f6e2e000000000000000000000000000000000000000000000000000000000000606082015260800190565b8181038181111561094c5761094c610c51565b600082610d135760e060020a634e487b7102600052601260045260246000fd5b500490565b808202811582820484141761094c5761094c610c51565b600081610d3e57610d3e610c51565b506000190190565b8082018082111561094c5761094c610c51565b60e060020a634e487b7102600052602160045260246000fdfea264697066735822122069d9e35b0cff9000d8d1d029d6cb264e1f7672a5dfd1bee0dd12de1f8590d76764736f6c63430008110033",
  "immutableReferences": {},
  "source": "// SPDX-License-Identifier: MIT\npragma solidity >=0.4.22 <0.9.0;\n\ncontract ChainPark {\n  address admin;\n  uint256 public maxFee; // the cost to park if you are the last person to park\n  uint dailyIncome; // the amount you will earn if you do not park for a day\n  //uint constant NOT_PARKED = 2**256 - 1; // use max uint to represent not parked\n  // mapping(address=>bool) staff;\n  mapping(address=>uint) lastClaimed; // timestamp\n  mapping(address=>uint) parksSinceClaim;\n  mapping(address=>uint) public currentlyParked; // NOT_PARKED if not parked, otherwise lotIndex\n  uint[] public lotMaxCapacities; // index 0 is not used. Lots are 1-indexed so that 0 can be used to represent not parked\n  uint[] public lotCurrentCapacities;\n  enum lotType {Staff, Student, Both}\n  lotType[] lotTypes;\n\n  event Parked(address indexed user, uint lotIndex);\n  event Left(address indexed user, uint lotIndex);\n  event Claimed(address indexed user, uint amount);\n\n  modifier onlyAdmin() {\n    require(msg.sender == admin, \"Only admin can call this function.\");\n    _;\n  }\n\n  // modifier onlyStaff() {\n  //   require(staff[msg.sender], \"Only staff can call this function.\");\n  //   _;\n  // }\n\n  modifier notFull(uint lotIndex) {\n    require(lotCurrentCapacities[lotIndex] < lotMaxCapacities[lotIndex], \"Lot is full.\");\n    _;\n  }\n\n  constructor(uint[] memory _lotMaxCapacities, lotType[] memory _lotTypes, uint256 _maxFee, uint _dailyIncome) {\n    maxFee = _maxFee;\n    admin = msg.sender;\n    lotTypes = _lotTypes;\n    lotMaxCapacities = _lotMaxCapacities;\n    lotCurrentCapacities = new uint[](_lotMaxCapacities.length);\n    dailyIncome = _dailyIncome;\n  }\n\n\n  function getFee(uint lotIndex) public view returns (uint) {\n    if (lotCurrentCapacities[lotIndex] == 0) {\n      return 0;\n    }\n    return maxFee * (lotCurrentCapacities[lotIndex] + 1) / lotMaxCapacities[lotIndex];\n  }\n\n  function park(uint lotIndex) public payable notFull(lotIndex) {\n    require(msg.value >= getFee(lotIndex), \"Insufficient funds.\");\n    require(lotIndex != 0, \"Lot index cannot be 0.\");\n    require(currentlyParked[msg.sender] == 0, \"You are already parked.\");\n\n    // if (lotTypes[lotIndex] == lotType.Staff) {\n    //   parkStaff(lotIndex);\n    // } else {\n    //   parkStudent(lotIndex);\n    // }\n\n    lotCurrentCapacities[lotIndex]++;\n    currentlyParked[msg.sender] = lotIndex;\n    emit Parked(msg.sender, lotIndex);\n  }\n\n  // function parkStudent(uint lotIndex) private {\n  //   require(lotTypes[lotIndex] != lotType.Staff, \"This lot is for staff only.\");\n  //   lotCurrentCapacities[lotIndex]++;\n  //   currentlyParked[msg.sender] = lotIndex;\n  //   emit Parked(msg.sender, lotIndex);\n  // }\n\n  // function parkStaff(uint lotIndex) private onlyStaff {\n  //   require(lotTypes[lotIndex] != lotType.Student, \"This lot is for students only.\");\n  //   lotCurrentCapacities[lotIndex]++;\n  //   currentlyParked[msg.sender] = lotIndex;\n  //   emit Parked(msg.sender, lotIndex);\n  // }\n\n  function leave() public {\n    require(currentlyParked[msg.sender] != 0, \"You are not parked.\");\n    uint lotIndex = uint(currentlyParked[msg.sender]);\n    lotCurrentCapacities[lotIndex]--;\n    currentlyParked[msg.sender] = 0;\n    emit Left(msg.sender, lotIndex);\n  }\n\n  function claim() public { // this will interact with the ERC20 token contract eventualy\n    uint daysSinceClaim = (block.timestamp - lastClaimed[msg.sender]) / 1 days;\n    require(daysSinceClaim > parksSinceClaim[msg.sender], \"You have not parked for a day.\");\n    uint amount = (daysSinceClaim - parksSinceClaim[msg.sender]) * dailyIncome; // you will not get paid for the days you parked\n    lastClaimed[msg.sender] = block.timestamp;\n    parksSinceClaim[msg.sender] = 0;\n    payable(msg.sender).transfer(amount);\n    emit Claimed(msg.sender, amount);\n  }\n\n  function withdraw() public onlyAdmin {\n    payable(msg.sender).transfer(address(this).balance);\n  }\n\n  // function addStaff(address staffMember) public onlyAdmin {\n  //   staff[staffMember] = true;\n  // }\n\n\n  function setMaxCapacities(uint[] memory _lotMaxCapacities) public onlyAdmin {\n    lotMaxCapacities = _lotMaxCapacities;\n  }\n\n  function setLotTypes(lotType[] memory _lotTypes) public onlyAdmin {\n    lotTypes = _lotTypes;\n  }\n\n  function setMaxFee(uint256 _maxFee) public onlyAdmin {\n    maxFee = _maxFee;\n  }\n\n  function setDailyIncome(uint _dailyIncome) public onlyAdmin {\n    dailyIncome = _dailyIncome;\n  }\n\n  function setAdmin(address newAdmin) public onlyAdmin {\n    admin = newAdmin;\n  }\n}\n",
  "sourcePath": "/home/sib/eth/UB-Chain-Park/truffle/contracts/ChainPark.sol",
  "compiler": {
    "name": "solc",
    "version": "0.8.17+commit.8df45f5f.Emscripten.clang"
  },
  "schemaVersion": "3.4.10",
  "updatedAt": "2022-11-14T20:06:05.252Z",
  "networkType": "ethereum",
  "devdoc": {
    "kind": "dev",
    "methods": {},
    "version": 1
  },
  "userdoc": {
    "kind": "user",
    "methods": {},
    "version": 1
  }
}