{
  "contractName": "ChainPark",
  "abi": [
    {
      "inputs": [
        {
          "internalType": "uint256[]",
          "name": "_lotMaxCapacities",
          "type": "uint256[]"
        },
        {
          "internalType": "uint256",
          "name": "_maxFee",
          "type": "uint256"
        },
        {
          "internalType": "uint256",
          "name": "_dailyIncome",
          "type": "uint256"
        }
      ],
      "stateMutability": "nonpayable",
      "type": "constructor"
    },
    {
      "anonymous": false,
      "inputs": [
        {
          "indexed": true,
          "internalType": "address",
          "name": "user",
          "type": "address"
        },
        {
          "indexed": false,
          "internalType": "uint256",
          "name": "amount",
          "type": "uint256"
        }
      ],
      "name": "Claimed",
      "type": "event"
    },
    {
      "anonymous": false,
      "inputs": [
        {
          "indexed": true,
          "internalType": "address",
          "name": "user",
          "type": "address"
        },
        {
          "indexed": false,
          "internalType": "uint256",
          "name": "lotIndex",
          "type": "uint256"
        }
      ],
      "name": "Left",
      "type": "event"
    },
    {
      "anonymous": false,
      "inputs": [
        {
          "indexed": true,
          "internalType": "address",
          "name": "user",
          "type": "address"
        },
        {
          "indexed": false,
          "internalType": "uint256",
          "name": "lotIndex",
          "type": "uint256"
        }
      ],
      "name": "Parked",
      "type": "event"
    },
    {
      "inputs": [
        {
          "internalType": "address",
          "name": "",
          "type": "address"
        }
      ],
      "name": "currentlyParked",
      "outputs": [
        {
          "internalType": "uint256",
          "name": "",
          "type": "uint256"
        }
      ],
      "stateMutability": "view",
      "type": "function",
      "constant": true
    },
    {
      "inputs": [
        {
          "internalType": "uint256",
          "name": "",
          "type": "uint256"
        }
      ],
      "name": "lotCurrentCapacities",
      "outputs": [
        {
          "internalType": "uint256",
          "name": "",
          "type": "uint256"
        }
      ],
      "stateMutability": "view",
      "type": "function",
      "constant": true
    },
    {
      "inputs": [
        {
          "internalType": "uint256",
          "name": "",
          "type": "uint256"
        }
      ],
      "name": "lotMaxCapacities",
      "outputs": [
        {
          "internalType": "uint256",
          "name": "",
          "type": "uint256"
        }
      ],
      "stateMutability": "view",
      "type": "function",
      "constant": true
    },
    {
      "inputs": [],
      "name": "maxFee",
      "outputs": [
        {
          "internalType": "uint256",
          "name": "",
          "type": "uint256"
        }
      ],
      "stateMutability": "view",
      "type": "function",
      "constant": true
    },
    {
      "inputs": [
        {
          "internalType": "uint256",
          "name": "lotIndex",
          "type": "uint256"
        }
      ],
      "name": "getFee",
      "outputs": [
        {
          "internalType": "uint256",
          "name": "",
          "type": "uint256"
        }
      ],
      "stateMutability": "view",
      "type": "function",
      "constant": true
    },
    {
      "inputs": [
        {
          "internalType": "uint256",
          "name": "lotIndex",
          "type": "uint256"
        }
      ],
      "name": "park",
      "outputs": [],
      "stateMutability": "payable",
      "type": "function",
      "payable": true
    },
    {
      "inputs": [],
      "name": "leave",
      "outputs": [],
      "stateMutability": "nonpayable",
      "type": "function"
    },
    {
      "inputs": [],
      "name": "claim",
      "outputs": [],
      "stateMutability": "nonpayable",
      "type": "function"
    },
    {
      "inputs": [],
      "name": "withdraw",
      "outputs": [],
      "stateMutability": "nonpayable",
      "type": "function"
    },
    {
      "inputs": [
        {
          "internalType": "uint256[]",
          "name": "_lotMaxCapacities",
          "type": "uint256[]"
        }
      ],
      "name": "setMaxCapacities",
      "outputs": [],
      "stateMutability": "nonpayable",
      "type": "function"
    },
    {
      "inputs": [
        {
          "internalType": "uint256",
          "name": "_maxFee",
          "type": "uint256"
        }
      ],
      "name": "setMaxFee",
      "outputs": [],
      "stateMutability": "nonpayable",
      "type": "function"
    },
    {
      "inputs": [
        {
          "internalType": "uint256",
          "name": "_dailyIncome",
          "type": "uint256"
        }
      ],
      "name": "setDailyIncome",
      "outputs": [],
      "stateMutability": "nonpayable",
      "type": "function"
    },
    {
      "inputs": [
        {
          "internalType": "address",
          "name": "newAdmin",
          "type": "address"
        }
      ],
      "name": "setAdmin",
      "outputs": [],
      "stateMutability": "nonpayable",
      "type": "function"
    }
  ],
  "bytecode": "0x60806040523480156200001157600080fd5b5060405162000df938038062000df9833981016040819052620000349162000161565b600182905560008054600160a060020a03191633179055825162000060906006906020860190620000cb565b5082516001604060020a038111156200007d576200007d62000132565b604051908082528060200260200182016040528015620000a7578160200160208202803683370190505b508051620000be91600791602090910190620000cb565b50600255506200023c9050565b82805482825590600052602060002090810192821562000109579160200282015b8281111562000109578251825591602001919060010190620000ec565b50620001179291506200011b565b5090565b5b808211156200011757600081556001016200011c565b7f4e487b7100000000000000000000000000000000000000000000000000000000600052604160045260246000fd5b6000806000606084860312156200017757600080fd5b83516001604060020a03808211156200018f57600080fd5b818601915086601f830112620001a457600080fd5b8151602082821115620001bb57620001bb62000132565b808202604051601f19603f83011681018181108682111715620001e257620001e262000132565b60405292835281830193508481018201928a8411156200020157600080fd5b948201945b83861015620002215785518552948201949382019362000206565b91890151604090990151919a98995090979650505050505050565b610bad806200024c6000396000f3fe6080604052600436106100df576000357c010000000000000000000000000000000000000000000000000000000090048063628310b31161009c57806383f4eb631161007657806383f4eb63146101f8578063c564b62714610218578063d66d9e1914610238578063fcee45f41461024d57600080fd5b8063628310b314610198578063704b6c02146101b8578063710e5d2f146101d857600080fd5b806301f59d16146100e457806307afe4921461010c5780633ccfd60b146101215780634cc64f80146101365780634e71d92d1461016357806354be8be614610178575b600080fd5b3480156100f057600080fd5b506100fa60015481565b60405190815260200160405180910390f35b61011f61011a366004610937565b61026d565b005b34801561012d57600080fd5b5061011f61048b565b34801561014257600080fd5b506100fa610151366004610950565b60056020526000908152604090205481565b34801561016f57600080fd5b5061011f6104e8565b34801561018457600080fd5b5061011f610193366004610999565b61061f565b3480156101a457600080fd5b506100fa6101b3366004610937565b610663565b3480156101c457600080fd5b5061011f6101d3366004610950565b610684565b3480156101e457600080fd5b5061011f6101f3366004610937565b6106e0565b34801561020457600080fd5b5061011f610213366004610937565b610712565b34801561022457600080fd5b506100fa610233366004610937565b610744565b34801561024457600080fd5b5061011f610754565b34801561025957600080fd5b506100fa610268366004610937565b610843565b806006818154811061028157610281610a56565b90600052602060002001546007828154811061029f5761029f610a56565b9060005260206000200154106102ff5760405160e560020a62461bcd02815260206004820152600c60248201527f4c6f742069732066756c6c2e000000000000000000000000000000000000000060448201526064015b60405180910390fd5b61030882610843565b34101561035a5760405160e560020a62461bcd02815260206004820152601360248201527f496e73756666696369656e742066756e64732e0000000000000000000000000060448201526064016102f6565b816000036103ad5760405160e560020a62461bcd02815260206004820152601660248201527f4c6f7420696e6465782063616e6e6f7420626520302e0000000000000000000060448201526064016102f6565b336000908152600560205260409020541561040d5760405160e560020a62461bcd02815260206004820152601760248201527f596f752061726520616c7265616479207061726b65642e00000000000000000060448201526064016102f6565b6007828154811061042057610420610a56565b6000918252602082200180549161043683610a88565b90915550503360008181526005602052604090819020849055517fcddbea0c092495e8718375ec92f5371831dcfb5bfe86a2645e974bb42ad997a79061047f9085815260200190565b60405180910390a25050565b600054600160a060020a031633146104b85760405160e560020a62461bcd0281526004016102f690610aa1565b6040513390303180156108fc02916000818181858888f193505050501580156104e5573d6000803e3d6000fd5b50565b3360009081526003602052604081205462015180906105079042610afe565b6105119190610b11565b3360009081526004602052604090205490915081116105755760405160e560020a62461bcd02815260206004820152601e60248201527f596f752068617665206e6f74207061726b656420666f722061206461792e000060448201526064016102f6565b600254336000908152600460205260408120549091906105959084610afe565b61059f9190610b36565b336000818152600360209081526040808320429055600490915280822082905551929350909183156108fc0291849190818181858888f193505050501580156105ec573d6000803e3d6000fd5b5060405181815233907fd8138f8a3f377c5259ca548e70e4c2de94f129f5a11036a15b69513cba2b426a9060200161047f565b600054600160a060020a0316331461064c5760405160e560020a62461bcd0281526004016102f690610aa1565b805161065f9060069060208401906108d7565b5050565b6006818154811061067357600080fd5b600091825260209091200154905081565b600054600160a060020a031633146106b15760405160e560020a62461bcd0281526004016102f690610aa1565b6000805473ffffffffffffffffffffffffffffffffffffffff1916600160a060020a0392909216919091179055565b600054600160a060020a0316331461070d5760405160e560020a62461bcd0281526004016102f690610aa1565b600155565b600054600160a060020a0316331461073f5760405160e560020a62461bcd0281526004016102f690610aa1565b600255565b6007818154811061067357600080fd5b3360009081526005602052604081205490036107b55760405160e560020a62461bcd02815260206004820152601360248201527f596f7520617265206e6f74207061726b65642e0000000000000000000000000060448201526064016102f6565b3360009081526005602052604090205460078054829081106107d9576107d9610a56565b600091825260208220018054916107ef83610b4d565b90915550503360008181526005602052604080822091909155517faf65ecdc8a0d3ea90c8344c89e7001864fddf59dfdf41da2994463fe99049a59906108389084815260200190565b60405180910390a250565b60006007828154811061085857610858610a56565b906000526020600020015460000361087257506000919050565b6006828154811061088557610885610a56565b9060005260206000200154600783815481106108a3576108a3610a56565b906000526020600020015460016108ba9190610b64565b6001546108c79190610b36565b6108d19190610b11565b92915050565b828054828255906000526020600020908101928215610912579160200282015b828111156109125782518255916020019190600101906108f7565b5061091e929150610922565b5090565b5b8082111561091e5760008155600101610923565b60006020828403121561094957600080fd5b5035919050565b60006020828403121561096257600080fd5b8135600160a060020a038116811461097957600080fd5b9392505050565b60e060020a634e487b7102600052604160045260246000fd5b600060208083850312156109ac57600080fd5b823567ffffffffffffffff808211156109c457600080fd5b818501915085601f8301126109d857600080fd5b8135818111156109ea576109ea610980565b838102604051601f19603f83011681018181108582111715610a0e57610a0e610980565b604052918252848201925083810185019188831115610a2c57600080fd5b938501935b82851015610a4a57843584529385019392850192610a31565b98975050505050505050565b60e060020a634e487b7102600052603260045260246000fd5b60e060020a634e487b7102600052601160045260246000fd5b600060018201610a9a57610a9a610a6f565b5060010190565b60208082526022908201527f4f6e6c792061646d696e2063616e2063616c6c20746869732066756e6374696f60408201527f6e2e000000000000000000000000000000000000000000000000000000000000606082015260800190565b818103818111156108d1576108d1610a6f565b600082610b315760e060020a634e487b7102600052601260045260246000fd5b500490565b80820281158282048414176108d1576108d1610a6f565b600081610b5c57610b5c610a6f565b506000190190565b808201808211156108d1576108d1610a6f56fea26469706673582212205a09008d041ef659bbc6e5163501fe54a39dda2dadac9ab429d8242eb84638ac64736f6c63430008110033",
  "immutableReferences": {},
  "source": "// SPDX-License-Identifier: MIT\npragma solidity >=0.4.22 <0.9.0;\n\ncontract ChainPark {\n  address admin;\n  uint256 public maxFee; // the cost to park if you are the last person to park\n  uint dailyIncome; // the amount you will earn if you do not park for a day\n  //uint constant NOT_PARKED = 2**256 - 1; // use max uint to represent not parked\n  // mapping(address=>bool) staff;\n  mapping(address=>uint) lastClaimed; // timestamp\n  mapping(address=>uint) parksSinceClaim;\n  mapping(address=>uint) public currentlyParked; // NOT_PARKED if not parked, otherwise lotIndex\n  uint[] public lotMaxCapacities; // index 0 is not used. Lots are 1-indexed so that 0 can be used to represent not parked\n  uint[] public lotCurrentCapacities;\n  // enum lotType {Staff, Student, Both}\n  // lotType[] lotTypes;\n\n  event Parked(address indexed user, uint lotIndex);\n  event Left(address indexed user, uint lotIndex);\n  event Claimed(address indexed user, uint amount);\n\n  modifier onlyAdmin() {\n    require(msg.sender == admin, \"Only admin can call this function.\");\n    _;\n  }\n\n  // modifier onlyStaff() {\n  //   require(staff[msg.sender], \"Only staff can call this function.\");\n  //   _;\n  // }\n\n  modifier notFull(uint lotIndex) {\n    require(lotCurrentCapacities[lotIndex] < lotMaxCapacities[lotIndex], \"Lot is full.\");\n    _;\n  }\n\n  constructor(uint[] memory _lotMaxCapacities, uint256 _maxFee, uint _dailyIncome) {\n    maxFee = _maxFee;\n    admin = msg.sender;\n    lotMaxCapacities = _lotMaxCapacities;\n    lotCurrentCapacities = new uint[](_lotMaxCapacities.length);\n    dailyIncome = _dailyIncome;\n  }\n\n\n  function getFee(uint lotIndex) public view returns (uint) {\n    if (lotCurrentCapacities[lotIndex] == 0) {\n      return 0;\n    }\n    return maxFee * (lotCurrentCapacities[lotIndex] + 1) / lotMaxCapacities[lotIndex];\n  }\n\n  function park(uint lotIndex) public payable notFull(lotIndex) {\n    require(msg.value >= getFee(lotIndex), \"Insufficient funds.\");\n    require(lotIndex != 0, \"Lot index cannot be 0.\");\n    require(currentlyParked[msg.sender] == 0, \"You are already parked.\");\n\n    // if (lotTypes[lotIndex] == lotType.Staff) {\n    //   parkStaff(lotIndex);\n    // } else {\n    //   parkStudent(lotIndex);\n    // }\n\n    lotCurrentCapacities[lotIndex]++;\n    currentlyParked[msg.sender] = lotIndex;\n    emit Parked(msg.sender, lotIndex);\n  }\n\n  // function parkStudent(uint lotIndex) private {\n  //   require(lotTypes[lotIndex] != lotType.Staff, \"This lot is for staff only.\");\n  //   lotCurrentCapacities[lotIndex]++;\n  //   currentlyParked[msg.sender] = lotIndex;\n  //   emit Parked(msg.sender, lotIndex);\n  // }\n\n  // function parkStaff(uint lotIndex) private onlyStaff {\n  //   require(lotTypes[lotIndex] != lotType.Student, \"This lot is for students only.\");\n  //   lotCurrentCapacities[lotIndex]++;\n  //   currentlyParked[msg.sender] = lotIndex;\n  //   emit Parked(msg.sender, lotIndex);\n  // }\n\n  function leave() public {\n    require(currentlyParked[msg.sender] != 0, \"You are not parked.\");\n    uint lotIndex = uint(currentlyParked[msg.sender]);\n    lotCurrentCapacities[lotIndex]--;\n    currentlyParked[msg.sender] = 0;\n    emit Left(msg.sender, lotIndex);\n  }\n\n  function claim() public { // this will interact with the ERC20 token contract eventualy\n    uint daysSinceClaim = (block.timestamp - lastClaimed[msg.sender]) / 1 days;\n    require(daysSinceClaim > parksSinceClaim[msg.sender], \"You have not parked for a day.\");\n    uint amount = (daysSinceClaim - parksSinceClaim[msg.sender]) * dailyIncome; // you will not get paid for the days you parked\n    lastClaimed[msg.sender] = block.timestamp;\n    parksSinceClaim[msg.sender] = 0;\n    payable(msg.sender).transfer(amount);\n    emit Claimed(msg.sender, amount);\n  }\n\n  function withdraw() public onlyAdmin {\n    payable(msg.sender).transfer(address(this).balance);\n  }\n\n  // function addStaff(address staffMember) public onlyAdmin {\n  //   staff[staffMember] = true;\n  // }\n\n\n  function setMaxCapacities(uint[] memory _lotMaxCapacities) public onlyAdmin {\n    lotMaxCapacities = _lotMaxCapacities;\n  }\n\n  // function setLotTypes(lotType[] memory _lotTypes) public onlyAdmin {\n  //   lotTypes = _lotTypes;\n  // }\n\n  function setMaxFee(uint256 _maxFee) public onlyAdmin {\n    maxFee = _maxFee;\n  }\n\n  function setDailyIncome(uint _dailyIncome) public onlyAdmin {\n    dailyIncome = _dailyIncome;\n  }\n\n  function setAdmin(address newAdmin) public onlyAdmin {\n    admin = newAdmin;\n  }\n}\n",
  "sourcePath": "/home/sib/eth/UB-Chain-Park/truffle/contracts/ChainPark.sol",
  "compiler": {
    "name": "solc",
    "version": "0.8.17+commit.8df45f5f.Emscripten.clang"
  },
  "schemaVersion": "3.4.10",
  "updatedAt": "2022-11-15T02:28:54.788Z",
  "networkType": "ethereum",
  "devdoc": {
    "kind": "dev",
    "methods": {},
    "version": 1
  },
  "userdoc": {
    "kind": "user",
    "methods": {},
    "version": 1
  }
}