{
  "contractName": "ChainPark",
  "abi": [
    {
      "inputs": [
        {
          "internalType": "uint256[]",
          "name": "_lotMaxCapacities",
          "type": "uint256[]"
        },
        {
          "internalType": "enum ChainPark.lotType[]",
          "name": "_lotTypes",
          "type": "uint8[]"
        },
        {
          "internalType": "uint256",
          "name": "_maxFee",
          "type": "uint256"
        },
        {
          "internalType": "uint256",
          "name": "_dailyIncome",
          "type": "uint256"
        }
      ],
      "stateMutability": "nonpayable",
      "type": "constructor"
    },
    {
      "anonymous": false,
      "inputs": [
        {
          "indexed": true,
          "internalType": "address",
          "name": "user",
          "type": "address"
        },
        {
          "indexed": false,
          "internalType": "uint256",
          "name": "amount",
          "type": "uint256"
        }
      ],
      "name": "Claimed",
      "type": "event"
    },
    {
      "anonymous": false,
      "inputs": [
        {
          "indexed": true,
          "internalType": "address",
          "name": "user",
          "type": "address"
        },
        {
          "indexed": false,
          "internalType": "uint256",
          "name": "lotIndex",
          "type": "uint256"
        }
      ],
      "name": "Left",
      "type": "event"
    },
    {
      "anonymous": false,
      "inputs": [
        {
          "indexed": true,
          "internalType": "address",
          "name": "user",
          "type": "address"
        },
        {
          "indexed": false,
          "internalType": "uint256",
          "name": "lotIndex",
          "type": "uint256"
        }
      ],
      "name": "Parked",
      "type": "event"
    },
    {
      "inputs": [],
      "name": "NOT_PARKED",
      "outputs": [
        {
          "internalType": "uint256",
          "name": "",
          "type": "uint256"
        }
      ],
      "stateMutability": "view",
      "type": "function"
    },
    {
      "inputs": [],
      "name": "maxFee",
      "outputs": [
        {
          "internalType": "uint256",
          "name": "",
          "type": "uint256"
        }
      ],
      "stateMutability": "view",
      "type": "function"
    },
    {
      "inputs": [
        {
          "internalType": "uint256[]",
          "name": "_lotMaxCapacities",
          "type": "uint256[]"
        }
      ],
      "name": "setMaxCapacities",
      "outputs": [],
      "stateMutability": "nonpayable",
      "type": "function"
    },
    {
      "inputs": [
        {
          "internalType": "enum ChainPark.lotType[]",
          "name": "_lotTypes",
          "type": "uint8[]"
        }
      ],
      "name": "setLotTypes",
      "outputs": [],
      "stateMutability": "nonpayable",
      "type": "function"
    },
    {
      "inputs": [
        {
          "internalType": "uint256",
          "name": "_maxFee",
          "type": "uint256"
        }
      ],
      "name": "setMaxFee",
      "outputs": [],
      "stateMutability": "nonpayable",
      "type": "function"
    },
    {
      "inputs": [
        {
          "internalType": "uint256",
          "name": "_dailyIncome",
          "type": "uint256"
        }
      ],
      "name": "setDailyIncome",
      "outputs": [],
      "stateMutability": "nonpayable",
      "type": "function"
    },
    {
      "inputs": [
        {
          "internalType": "uint256",
          "name": "lotIndex",
          "type": "uint256"
        }
      ],
      "name": "getFee",
      "outputs": [
        {
          "internalType": "uint256",
          "name": "",
          "type": "uint256"
        }
      ],
      "stateMutability": "view",
      "type": "function"
    },
    {
      "inputs": [
        {
          "internalType": "uint256",
          "name": "lotIndex",
          "type": "uint256"
        }
      ],
      "name": "park",
      "outputs": [],
      "stateMutability": "payable",
      "type": "function"
    },
    {
      "inputs": [],
      "name": "leave",
      "outputs": [],
      "stateMutability": "nonpayable",
      "type": "function"
    },
    {
      "inputs": [],
      "name": "claim",
      "outputs": [],
      "stateMutability": "nonpayable",
      "type": "function"
    }
  ],
  "bytecode": "0x60806040523480156200001157600080fd5b5060405162001fc038038062001fc083398181016040528101906200003791906200051a565b81600181905550336000806101000a81548173ffffffffffffffffffffffffffffffffffffffff021916908373ffffffffffffffffffffffffffffffffffffffff16021790555082600990805190602001906200009692919062000127565b508360079080519060200190620000af929190620001e7565b50835167ffffffffffffffff811115620000ce57620000cd62000282565b5b604051908082528060200260200182016040528015620000fd5781602001602082028036833780820191505090505b506008908051906020019062000115929190620001e7565b508060028190555050505050620005f9565b82805482825590600052602060002090601f01602090048101928215620001d45791602002820160005b83821115620001a357835183826101000a81548160ff02191690836002811115620001815762000180620005ca565b5b0217905550926020019260010160208160000104928301926001030262000151565b8015620001d25782816101000a81549060ff0219169055600101602081600001049283019260010302620001a3565b505b509050620001e3919062000239565b5090565b82805482825590600052602060002090810192821562000226579160200282015b828111156200022557825182559160200191906001019062000208565b5b50905062000235919062000239565b5090565b5b80821115620002545760008160009055506001016200023a565b5090565b6000604051905090565b600080fd5b600080fd5b600080fd5b6000601f19601f8301169050919050565b7f4e487b7100000000000000000000000000000000000000000000000000000000600052604160045260246000fd5b620002bc8262000271565b810181811067ffffffffffffffff82111715620002de57620002dd62000282565b5b80604052505050565b6000620002f362000258565b9050620003018282620002b1565b919050565b600067ffffffffffffffff82111562000324576200032362000282565b5b602082029050602081019050919050565b600080fd5b6000819050919050565b6200034f816200033a565b81146200035b57600080fd5b50565b6000815190506200036f8162000344565b92915050565b60006200038c620003868462000306565b620002e7565b90508083825260208201905060208402830185811115620003b257620003b162000335565b5b835b81811015620003df5780620003ca88826200035e565b845260208401935050602081019050620003b4565b5050509392505050565b600082601f8301126200040157620004006200026c565b5b81516200041384826020860162000375565b91505092915050565b600067ffffffffffffffff8211156200043a576200043962000282565b5b602082029050602081019050919050565b600381106200045957600080fd5b50565b6000815190506200046d816200044b565b92915050565b60006200048a62000484846200041c565b620002e7565b90508083825260208201905060208402830185811115620004b057620004af62000335565b5b835b81811015620004dd5780620004c888826200045c565b845260208401935050602081019050620004b2565b5050509392505050565b600082601f830112620004ff57620004fe6200026c565b5b81516200051184826020860162000473565b91505092915050565b6000806000806080858703121562000537576200053662000262565b5b600085015167ffffffffffffffff81111562000558576200055762000267565b5b6200056687828801620003e9565b945050602085015167ffffffffffffffff8111156200058a576200058962000267565b5b6200059887828801620004e7565b9350506040620005ab878288016200035e565b9250506060620005be878288016200035e565b91505092959194509250565b7f4e487b7100000000000000000000000000000000000000000000000000000000600052602160045260246000fd5b6119b780620006096000396000f3fe6080604052600436106100915760003560e01c80636c041462116100595780636c04146214610148578063710e5d2f1461017157806383f4eb631461019a578063d66d9e19146101c3578063fcee45f4146101da57610091565b806301f59d161461009657806307afe492146100c157806337657abd146100dd5780634e71d92d1461010857806354be8be61461011f575b600080fd5b3480156100a257600080fd5b506100ab610217565b6040516100b89190610ff5565b60405180910390f35b6100db60048036038101906100d69190611050565b61021d565b005b3480156100e957600080fd5b506100f2610403565b6040516100ff9190610ff5565b60405180910390f35b34801561011457600080fd5b5061011d610427565b005b34801561012b57600080fd5b50610146600480360381019061014191906111d6565b610683565b005b34801561015457600080fd5b5061016f600480360381019061016a9190611307565b61072b565b005b34801561017d57600080fd5b5061019860048036038101906101939190611050565b6107d3565b005b3480156101a657600080fd5b506101c160048036038101906101bc9190611050565b61086b565b005b3480156101cf57600080fd5b506101d8610903565b005b3480156101e657600080fd5b5061020160048036038101906101fc9190611050565b610ad1565b60405161020e9190610ff5565b60405180910390f35b60015481565b806007818154811061023257610231611350565b5b90600052602060002001546008828154811061025157610250611350565b5b90600052602060002001541061029c576040517f08c379a0000000000000000000000000000000000000000000000000000000008152600401610293906113dc565b60405180910390fd5b6102a582610ad1565b3410156102e7576040517f08c379a00000000000000000000000000000000000000000000000000000000081526004016102de90611448565b60405180910390fd5b7fffffffffffffffffffffffffffffffffffffffffffffffffffffffffffffffff600660003373ffffffffffffffffffffffffffffffffffffffff1673ffffffffffffffffffffffffffffffffffffffff1681526020019081526020016000205414610388576040517f08c379a000000000000000000000000000000000000000000000000000000000815260040161037f906114b4565b60405180910390fd5b6000600281111561039c5761039b6114d4565b5b600983815481106103b0576103af611350565b5b90600052602060002090602091828204019190069054906101000a900460ff1660028111156103e2576103e16114d4565b5b036103f5576103f082610b6a565b6103ff565b6103fe82610d59565b5b5050565b7fffffffffffffffffffffffffffffffffffffffffffffffffffffffffffffffff81565b600062015180600460003373ffffffffffffffffffffffffffffffffffffffff1673ffffffffffffffffffffffffffffffffffffffff16815260200190815260200160002054426104789190611532565b6104829190611595565b9050600560003373ffffffffffffffffffffffffffffffffffffffff1673ffffffffffffffffffffffffffffffffffffffff168152602001908152602001600020548111610505576040517f08c379a00000000000000000000000000000000000000000000000000000000081526004016104fc90611612565b60405180910390fd5b6000600254600560003373ffffffffffffffffffffffffffffffffffffffff1673ffffffffffffffffffffffffffffffffffffffff16815260200190815260200160002054836105559190611532565b61055f9190611632565b905042600460003373ffffffffffffffffffffffffffffffffffffffff1673ffffffffffffffffffffffffffffffffffffffff168152602001908152602001600020819055506000600560003373ffffffffffffffffffffffffffffffffffffffff1673ffffffffffffffffffffffffffffffffffffffff168152602001908152602001600020819055503373ffffffffffffffffffffffffffffffffffffffff166108fc829081150290604051600060405180830381858888f19350505050158015610630573d6000803e3d6000fd5b503373ffffffffffffffffffffffffffffffffffffffff167fd8138f8a3f377c5259ca548e70e4c2de94f129f5a11036a15b69513cba2b426a826040516106779190610ff5565b60405180910390a25050565b60008054906101000a900473ffffffffffffffffffffffffffffffffffffffff1673ffffffffffffffffffffffffffffffffffffffff163373ffffffffffffffffffffffffffffffffffffffff1614610711576040517f08c379a0000000000000000000000000000000000000000000000000000000008152600401610708906116e6565b60405180910390fd5b8060079080519060200190610727929190610ebc565b5050565b60008054906101000a900473ffffffffffffffffffffffffffffffffffffffff1673ffffffffffffffffffffffffffffffffffffffff163373ffffffffffffffffffffffffffffffffffffffff16146107b9576040517f08c379a00000000000000000000000000000000000000000000000000000000081526004016107b0906116e6565b60405180910390fd5b80600990805190602001906107cf929190610f09565b5050565b60008054906101000a900473ffffffffffffffffffffffffffffffffffffffff1673ffffffffffffffffffffffffffffffffffffffff163373ffffffffffffffffffffffffffffffffffffffff1614610861576040517f08c379a0000000000000000000000000000000000000000000000000000000008152600401610858906116e6565b60405180910390fd5b8060018190555050565b60008054906101000a900473ffffffffffffffffffffffffffffffffffffffff1673ffffffffffffffffffffffffffffffffffffffff163373ffffffffffffffffffffffffffffffffffffffff16146108f9576040517f08c379a00000000000000000000000000000000000000000000000000000000081526004016108f0906116e6565b60405180910390fd5b8060028190555050565b7fffffffffffffffffffffffffffffffffffffffffffffffffffffffffffffffff600660003373ffffffffffffffffffffffffffffffffffffffff1673ffffffffffffffffffffffffffffffffffffffff16815260200190815260200160002054036109a4576040517f08c379a000000000000000000000000000000000000000000000000000000000815260040161099b90611752565b60405180910390fd5b6000600660003373ffffffffffffffffffffffffffffffffffffffff1673ffffffffffffffffffffffffffffffffffffffff168152602001908152602001600020549050600881815481106109fc576109fb611350565b5b906000526020600020016000815480929190610a1790611772565b91905055507fffffffffffffffffffffffffffffffffffffffffffffffffffffffffffffffff600660003373ffffffffffffffffffffffffffffffffffffffff1673ffffffffffffffffffffffffffffffffffffffff168152602001908152602001600020819055503373ffffffffffffffffffffffffffffffffffffffff167faf65ecdc8a0d3ea90c8344c89e7001864fddf59dfdf41da2994463fe99049a5982604051610ac69190610ff5565b60405180910390a250565b60008060088381548110610ae857610ae7611350565b5b906000526020600020015403610b015760009050610b65565b60078281548110610b1557610b14611350565b5b9060005260206000200154600160088481548110610b3657610b35611350565b5b9060005260206000200154610b4b919061179b565b600154610b589190611632565b610b629190611595565b90505b919050565b600360003373ffffffffffffffffffffffffffffffffffffffff1673ffffffffffffffffffffffffffffffffffffffff16815260200190815260200160002060009054906101000a900460ff16610bf6576040517f08c379a0000000000000000000000000000000000000000000000000000000008152600401610bed90611841565b60405180910390fd5b60016002811115610c0a57610c096114d4565b5b60098281548110610c1e57610c1d611350565b5b90600052602060002090602091828204019190069054906101000a900460ff166002811115610c5057610c4f6114d4565b5b03610c90576040517f08c379a0000000000000000000000000000000000000000000000000000000008152600401610c87906118ad565b60405180910390fd5b60088181548110610ca457610ca3611350565b5b906000526020600020016000815480929190610cbf906118cd565b919050555080600660003373ffffffffffffffffffffffffffffffffffffffff1673ffffffffffffffffffffffffffffffffffffffff168152602001908152602001600020819055503373ffffffffffffffffffffffffffffffffffffffff167fcddbea0c092495e8718375ec92f5371831dcfb5bfe86a2645e974bb42ad997a782604051610d4e9190610ff5565b60405180910390a250565b60006002811115610d6d57610d6c6114d4565b5b60098281548110610d8157610d80611350565b5b90600052602060002090602091828204019190069054906101000a900460ff166002811115610db357610db26114d4565b5b03610df3576040517f08c379a0000000000000000000000000000000000000000000000000000000008152600401610dea90611961565b60405180910390fd5b60088181548110610e0757610e06611350565b5b906000526020600020016000815480929190610e22906118cd565b919050555080600660003373ffffffffffffffffffffffffffffffffffffffff1673ffffffffffffffffffffffffffffffffffffffff168152602001908152602001600020819055503373ffffffffffffffffffffffffffffffffffffffff167fcddbea0c092495e8718375ec92f5371831dcfb5bfe86a2645e974bb42ad997a782604051610eb19190610ff5565b60405180910390a250565b828054828255906000526020600020908101928215610ef8579160200282015b82811115610ef7578251825591602001919060010190610edc565b5b509050610f059190610fbf565b5090565b82805482825590600052602060002090601f01602090048101928215610fae5791602002820160005b83821115610f7f57835183826101000a81548160ff02191690836002811115610f5e57610f5d6114d4565b5b02179055509260200192600101602081600001049283019260010302610f32565b8015610fac5782816101000a81549060ff0219169055600101602081600001049283019260010302610f7f565b505b509050610fbb9190610fbf565b5090565b5b80821115610fd8576000816000905550600101610fc0565b5090565b6000819050919050565b610fef81610fdc565b82525050565b600060208201905061100a6000830184610fe6565b92915050565b6000604051905090565b600080fd5b600080fd5b61102d81610fdc565b811461103857600080fd5b50565b60008135905061104a81611024565b92915050565b6000602082840312156110665761106561101a565b5b60006110748482850161103b565b91505092915050565b600080fd5b6000601f19601f8301169050919050565b7f4e487b7100000000000000000000000000000000000000000000000000000000600052604160045260246000fd5b6110cb82611082565b810181811067ffffffffffffffff821117156110ea576110e9611093565b5b80604052505050565b60006110fd611010565b905061110982826110c2565b919050565b600067ffffffffffffffff82111561112957611128611093565b5b602082029050602081019050919050565b600080fd5b600061115261114d8461110e565b6110f3565b905080838252602082019050602084028301858111156111755761117461113a565b5b835b8181101561119e578061118a888261103b565b845260208401935050602081019050611177565b5050509392505050565b600082601f8301126111bd576111bc61107d565b5b81356111cd84826020860161113f565b91505092915050565b6000602082840312156111ec576111eb61101a565b5b600082013567ffffffffffffffff81111561120a5761120961101f565b5b611216848285016111a8565b91505092915050565b600067ffffffffffffffff82111561123a57611239611093565b5b602082029050602081019050919050565b6003811061125857600080fd5b50565b60008135905061126a8161124b565b92915050565b600061128361127e8461121f565b6110f3565b905080838252602082019050602084028301858111156112a6576112a561113a565b5b835b818110156112cf57806112bb888261125b565b8452602084019350506020810190506112a8565b5050509392505050565b600082601f8301126112ee576112ed61107d565b5b81356112fe848260208601611270565b91505092915050565b60006020828403121561131d5761131c61101a565b5b600082013567ffffffffffffffff81111561133b5761133a61101f565b5b611347848285016112d9565b91505092915050565b7f4e487b7100000000000000000000000000000000000000000000000000000000600052603260045260246000fd5b600082825260208201905092915050565b7f4c6f742069732066756c6c2e0000000000000000000000000000000000000000600082015250565b60006113c6600c8361137f565b91506113d182611390565b602082019050919050565b600060208201905081810360008301526113f5816113b9565b9050919050565b7f496e73756666696369656e742066756e64732e00000000000000000000000000600082015250565b600061143260138361137f565b915061143d826113fc565b602082019050919050565b6000602082019050818103600083015261146181611425565b9050919050565b7f596f752061726520616c7265616479207061726b65642e000000000000000000600082015250565b600061149e60178361137f565b91506114a982611468565b602082019050919050565b600060208201905081810360008301526114cd81611491565b9050919050565b7f4e487b7100000000000000000000000000000000000000000000000000000000600052602160045260246000fd5b7f4e487b7100000000000000000000000000000000000000000000000000000000600052601160045260246000fd5b600061153d82610fdc565b915061154883610fdc565b92508282039050818111156115605761155f611503565b5b92915050565b7f4e487b7100000000000000000000000000000000000000000000000000000000600052601260045260246000fd5b60006115a082610fdc565b91506115ab83610fdc565b9250826115bb576115ba611566565b5b828204905092915050565b7f596f752068617665206e6f74207061726b656420666f722061206461792e0000600082015250565b60006115fc601e8361137f565b9150611607826115c6565b602082019050919050565b6000602082019050818103600083015261162b816115ef565b9050919050565b600061163d82610fdc565b915061164883610fdc565b925082820261165681610fdc565b9150828204841483151761166d5761166c611503565b5b5092915050565b7f4f6e6c792061646d696e2063616e2063616c6c20746869732066756e6374696f60008201527f6e2e000000000000000000000000000000000000000000000000000000000000602082015250565b60006116d060228361137f565b91506116db82611674565b604082019050919050565b600060208201905081810360008301526116ff816116c3565b9050919050565b7f596f7520617265206e6f74207061726b65642e00000000000000000000000000600082015250565b600061173c60138361137f565b915061174782611706565b602082019050919050565b6000602082019050818103600083015261176b8161172f565b9050919050565b600061177d82610fdc565b9150600082036117905761178f611503565b5b600182039050919050565b60006117a682610fdc565b91506117b183610fdc565b92508282019050808211156117c9576117c8611503565b5b92915050565b7f4f6e6c792073746166662063616e2063616c6c20746869732066756e6374696f60008201527f6e2e000000000000000000000000000000000000000000000000000000000000602082015250565b600061182b60228361137f565b9150611836826117cf565b604082019050919050565b6000602082019050818103600083015261185a8161181e565b9050919050565b7f54686973206c6f7420697320666f722073747564656e7473206f6e6c792e0000600082015250565b6000611897601e8361137f565b91506118a282611861565b602082019050919050565b600060208201905081810360008301526118c68161188a565b9050919050565b60006118d882610fdc565b91507fffffffffffffffffffffffffffffffffffffffffffffffffffffffffffffffff820361190a57611909611503565b5b600182019050919050565b7f54686973206c6f7420697320666f72207374616666206f6e6c792e0000000000600082015250565b600061194b601b8361137f565b915061195682611915565b602082019050919050565b6000602082019050818103600083015261197a8161193e565b905091905056fea2646970667358221220a9dda60bd5c1f86dec576a2daaeec249cfce3e73743a79269d6baea409b27fec64736f6c63430008110033",
  "immutableReferences": {},
  "source": "// SPDX-License-Identifier: MIT\npragma solidity >=0.4.22 <0.9.0;\n\ncontract ChainPark {\n  address admin;\n  uint256 public maxFee; // the cost to park if you are the last person to park\n  uint dailyIncome; // the amount you will earn if you do not park for a day\n  uint public constant NOT_PARKED = 2**256 - 1; // use max uint to represent not parked\n  mapping(address=>bool) staff;\n  mapping(address=>uint) lastClaimed; // timestamp\n  mapping(address=>uint) parksSinceClaim;\n  mapping(address=>uint) currentlyParked; // NOT_PARKED if not parked, otherwise lotIndex\n  uint[] lotMaxCapacities;\n  uint[] lotCurrentCapacities;\n  enum lotType {Staff, Student, Both}\n  lotType[] lotTypes;\n\n  event Parked(address indexed user, uint lotIndex);\n  event Left(address indexed user, uint lotIndex);\n  event Claimed(address indexed user, uint amount);\n\n  modifier onlyAdmin() {\n    require(msg.sender == admin, \"Only admin can call this function.\");\n    _;\n  }\n\n  modifier onlyStaff() {\n    require(staff[msg.sender], \"Only staff can call this function.\");\n    _;\n  }\n\n  modifier notFull(uint lotIndex) {\n    require(lotCurrentCapacities[lotIndex] < lotMaxCapacities[lotIndex], \"Lot is full.\");\n    _;\n  }\n\n  constructor(uint[] memory _lotMaxCapacities, lotType[] memory _lotTypes, uint256 _maxFee, uint _dailyIncome) {\n    maxFee = _maxFee;\n    admin = msg.sender;\n    lotTypes = _lotTypes;\n    lotMaxCapacities = _lotMaxCapacities;\n    lotCurrentCapacities = new uint[](_lotMaxCapacities.length);\n    dailyIncome = _dailyIncome;\n  }\n\n  function setMaxCapacities(uint[] memory _lotMaxCapacities) public onlyAdmin {\n    lotMaxCapacities = _lotMaxCapacities;\n  }\n\n  function setLotTypes(lotType[] memory _lotTypes) public onlyAdmin {\n    lotTypes = _lotTypes;\n  }\n\n  function setMaxFee(uint256 _maxFee) public onlyAdmin {\n    maxFee = _maxFee;\n  }\n\n  function setDailyIncome(uint _dailyIncome) public onlyAdmin {\n    dailyIncome = _dailyIncome;\n  }\n\n  function getFee(uint lotIndex) public view returns (uint) {\n    if (lotCurrentCapacities[lotIndex] == 0) {\n      return 0;\n    }\n    return maxFee * (lotCurrentCapacities[lotIndex] + 1) / lotMaxCapacities[lotIndex];\n  }\n\n  function park(uint lotIndex) public payable notFull(lotIndex) {\n    require(msg.value >= getFee(lotIndex), \"Insufficient funds.\");\n    require(currentlyParked[msg.sender] == NOT_PARKED, \"You are already parked.\");\n    if (lotTypes[lotIndex] == lotType.Staff) {\n      parkStaff(lotIndex);\n    } else {\n      parkStudent(lotIndex);\n    }\n  }\n\n  function parkStudent(uint lotIndex) private {\n    require(lotTypes[lotIndex] != lotType.Staff, \"This lot is for staff only.\");\n    lotCurrentCapacities[lotIndex]++;\n    currentlyParked[msg.sender] = lotIndex;\n    emit Parked(msg.sender, lotIndex);\n  }\n\n  function parkStaff(uint lotIndex) private onlyStaff {\n    require(lotTypes[lotIndex] != lotType.Student, \"This lot is for students only.\");\n    lotCurrentCapacities[lotIndex]++;\n    currentlyParked[msg.sender] = lotIndex;\n    emit Parked(msg.sender, lotIndex);\n  }\n\n  function leave() public {\n    require(currentlyParked[msg.sender] != NOT_PARKED, \"You are not parked.\");\n    uint lotIndex = uint(currentlyParked[msg.sender]);\n    lotCurrentCapacities[lotIndex]--;\n    currentlyParked[msg.sender] = NOT_PARKED;\n    emit Left(msg.sender, lotIndex);\n  }\n\n  function claim() public {\n    uint daysSinceClaim = (block.timestamp - lastClaimed[msg.sender]) / 1 days;\n    require(daysSinceClaim > parksSinceClaim[msg.sender], \"You have not parked for a day.\");\n    uint amount = (daysSinceClaim - parksSinceClaim[msg.sender]) * dailyIncome; // you will not get paid for the days you parked\n    lastClaimed[msg.sender] = block.timestamp;\n    parksSinceClaim[msg.sender] = 0;\n    payable(msg.sender).transfer(amount);\n    emit Claimed(msg.sender, amount);\n  }\n}\n",
  "sourcePath": "/home/sib/eth/UB-Chain-Park/truffle/contracts/ChainPark.sol",
  "compiler": {
    "name": "solc",
    "version": "0.8.17+commit.8df45f5f.Emscripten.clang"
  },
  "schemaVersion": "3.4.10",
  "updatedAt": "2022-10-26T21:19:14.735Z",
  "devdoc": {
    "kind": "dev",
    "methods": {},
    "version": 1
  },
  "userdoc": {
    "kind": "user",
    "methods": {},
    "version": 1
  }
}