{
  "contractName": "ChainPark",
  "abi": [
    {
      "inputs": [
        {
          "internalType": "uint256[]",
          "name": "_lotMaxCapacities",
          "type": "uint256[]"
        },
        {
          "internalType": "address",
          "name": "_ubpcContractAddr",
          "type": "address"
        },
        {
          "internalType": "uint256",
          "name": "_maxFee",
          "type": "uint256"
        },
        {
          "internalType": "uint256",
          "name": "_dailyIncome",
          "type": "uint256"
        },
        {
          "internalType": "uint256",
          "name": "_staffLot",
          "type": "uint256"
        }
      ],
      "stateMutability": "nonpayable",
      "type": "constructor"
    },
    {
      "anonymous": false,
      "inputs": [
        {
          "indexed": true,
          "internalType": "address",
          "name": "user",
          "type": "address"
        },
        {
          "indexed": false,
          "internalType": "uint256",
          "name": "amount",
          "type": "uint256"
        }
      ],
      "name": "Claimed",
      "type": "event"
    },
    {
      "anonymous": false,
      "inputs": [
        {
          "indexed": true,
          "internalType": "address",
          "name": "user",
          "type": "address"
        },
        {
          "indexed": false,
          "internalType": "uint256",
          "name": "lotIndex",
          "type": "uint256"
        }
      ],
      "name": "Left",
      "type": "event"
    },
    {
      "anonymous": false,
      "inputs": [
        {
          "indexed": true,
          "internalType": "address",
          "name": "user",
          "type": "address"
        },
        {
          "indexed": false,
          "internalType": "uint256",
          "name": "lotIndex",
          "type": "uint256"
        }
      ],
      "name": "Parked",
      "type": "event"
    },
    {
      "inputs": [],
      "name": "CLAIM_WAIT_PERIOD",
      "outputs": [
        {
          "internalType": "uint256",
          "name": "",
          "type": "uint256"
        }
      ],
      "stateMutability": "view",
      "type": "function",
      "constant": true
    },
    {
      "inputs": [],
      "name": "UBPC_CONTRACT",
      "outputs": [
        {
          "internalType": "address",
          "name": "",
          "type": "address"
        }
      ],
      "stateMutability": "view",
      "type": "function",
      "constant": true
    },
    {
      "inputs": [
        {
          "internalType": "address",
          "name": "",
          "type": "address"
        }
      ],
      "name": "currentlyParked",
      "outputs": [
        {
          "internalType": "uint256",
          "name": "",
          "type": "uint256"
        }
      ],
      "stateMutability": "view",
      "type": "function",
      "constant": true
    },
    {
      "inputs": [],
      "name": "dailyIncome",
      "outputs": [
        {
          "internalType": "uint256",
          "name": "",
          "type": "uint256"
        }
      ],
      "stateMutability": "view",
      "type": "function",
      "constant": true
    },
    {
      "inputs": [
        {
          "internalType": "address",
          "name": "",
          "type": "address"
        }
      ],
      "name": "lastClaimed",
      "outputs": [
        {
          "internalType": "uint256",
          "name": "",
          "type": "uint256"
        }
      ],
      "stateMutability": "view",
      "type": "function",
      "constant": true
    },
    {
      "inputs": [
        {
          "internalType": "uint256",
          "name": "",
          "type": "uint256"
        }
      ],
      "name": "lotCurrentCapacities",
      "outputs": [
        {
          "internalType": "uint256",
          "name": "",
          "type": "uint256"
        }
      ],
      "stateMutability": "view",
      "type": "function",
      "constant": true
    },
    {
      "inputs": [
        {
          "internalType": "uint256",
          "name": "",
          "type": "uint256"
        }
      ],
      "name": "lotMaxCapacities",
      "outputs": [
        {
          "internalType": "uint256",
          "name": "",
          "type": "uint256"
        }
      ],
      "stateMutability": "view",
      "type": "function",
      "constant": true
    },
    {
      "inputs": [],
      "name": "maxFee",
      "outputs": [
        {
          "internalType": "uint256",
          "name": "",
          "type": "uint256"
        }
      ],
      "stateMutability": "view",
      "type": "function",
      "constant": true
    },
    {
      "inputs": [
        {
          "internalType": "uint256",
          "name": "lotIndex",
          "type": "uint256"
        }
      ],
      "name": "getFee",
      "outputs": [
        {
          "internalType": "uint256",
          "name": "",
          "type": "uint256"
        }
      ],
      "stateMutability": "view",
      "type": "function",
      "constant": true
    },
    {
      "inputs": [
        {
          "internalType": "uint256",
          "name": "lotIndex",
          "type": "uint256"
        }
      ],
      "name": "park",
      "outputs": [],
      "stateMutability": "nonpayable",
      "type": "function"
    },
    {
      "inputs": [],
      "name": "leave",
      "outputs": [],
      "stateMutability": "nonpayable",
      "type": "function"
    },
    {
      "inputs": [],
      "name": "claim",
      "outputs": [],
      "stateMutability": "nonpayable",
      "type": "function"
    },
    {
      "inputs": [
        {
          "internalType": "address",
          "name": "user",
          "type": "address"
        }
      ],
      "name": "getClaimAmmount",
      "outputs": [
        {
          "internalType": "uint256",
          "name": "",
          "type": "uint256"
        }
      ],
      "stateMutability": "view",
      "type": "function",
      "constant": true
    },
    {
      "inputs": [
        {
          "internalType": "address",
          "name": "user",
          "type": "address"
        }
      ],
      "name": "checkUBPCBalance",
      "outputs": [
        {
          "internalType": "uint256",
          "name": "",
          "type": "uint256"
        }
      ],
      "stateMutability": "view",
      "type": "function",
      "constant": true
    },
    {
      "inputs": [],
      "name": "withdraw",
      "outputs": [],
      "stateMutability": "nonpayable",
      "type": "function"
    },
    {
      "inputs": [],
      "name": "getLotMaxCapacities",
      "outputs": [
        {
          "internalType": "uint256[]",
          "name": "",
          "type": "uint256[]"
        }
      ],
      "stateMutability": "view",
      "type": "function",
      "constant": true
    },
    {
      "inputs": [],
      "name": "getLotCurrentCapacities",
      "outputs": [
        {
          "internalType": "uint256[]",
          "name": "",
          "type": "uint256[]"
        }
      ],
      "stateMutability": "view",
      "type": "function",
      "constant": true
    },
    {
      "inputs": [
        {
          "internalType": "uint256[]",
          "name": "_lotMaxCapacities",
          "type": "uint256[]"
        }
      ],
      "name": "setMaxCapacities",
      "outputs": [],
      "stateMutability": "nonpayable",
      "type": "function"
    },
    {
      "inputs": [
        {
          "internalType": "uint256",
          "name": "_maxFee",
          "type": "uint256"
        }
      ],
      "name": "setMaxFee",
      "outputs": [],
      "stateMutability": "nonpayable",
      "type": "function"
    },
    {
      "inputs": [
        {
          "internalType": "uint256",
          "name": "_dailyIncome",
          "type": "uint256"
        }
      ],
      "name": "setDailyIncome",
      "outputs": [],
      "stateMutability": "nonpayable",
      "type": "function"
    },
    {
      "inputs": [
        {
          "internalType": "address",
          "name": "_staffAddr",
          "type": "address"
        }
      ],
      "name": "setStaff",
      "outputs": [],
      "stateMutability": "nonpayable",
      "type": "function"
    },
    {
      "inputs": [
        {
          "internalType": "address",
          "name": "_newAdmin",
          "type": "address"
        }
      ],
      "name": "setAdmin",
      "outputs": [],
      "stateMutability": "nonpayable",
      "type": "function"
    }
  ],
  "bytecode": "0x60806040523480156200001157600080fd5b506040516200130b3803806200130b8339810160408190526200003491620001a1565b60008054600160a060020a0319163317905584516200005b906009906020880190620000ee565b5084516001604060020a0381111562000078576200007862000155565b604051908082528060200260200182016040528015620000a2578160200160208202803683370190505b508051620000b991600a91602090910190620000ee565b5060018054600160a060020a031916600160a060020a0395909516949094179093556002919091556003556004555062000298565b8280548282559060005260206000209081019282156200012c579160200282015b828111156200012c5782518255916020019190600101906200010f565b506200013a9291506200013e565b5090565b5b808211156200013a57600081556001016200013f565b7f4e487b7100000000000000000000000000000000000000000000000000000000600052604160045260246000fd5b8051600160a060020a03811681146200019c57600080fd5b919050565b600080600080600060a08688031215620001ba57600080fd5b85516001604060020a0380821115620001d257600080fd5b818801915088601f830112620001e757600080fd5b8151602082821115620001fe57620001fe62000155565b808202604051601f19603f8301168101818110868211171562000225576200022562000155565b60405292835281830193508481018201928c8411156200024457600080fd5b948201945b83861015620002645785518552948201949382019362000249565b99506200027590508a820162000184565b60408b015160608c01516080909c01519a9d919c509a9998509650505050505050565b61106380620002a86000396000f3fe608060405234801561001057600080fd5b506004361061015f576000357c010000000000000000000000000000000000000000000000000000000090048063704b6c02116100d5578063d0c670b811610099578063d0c670b814610290578063d66d9e19146102a3578063d6b0ee64146102ab578063ddd15b4c146102d6578063decc504f146102de578063fcee45f4146102f157600080fd5b8063704b6c0214610231578063710e5d2f1461024457806383f4eb6314610257578063873aed001461026a578063c564b6271461027d57600080fd5b806329848be31161012757806329848be3146101d35780633ccfd60b146101db5780634cc64f80146101e35780634e71d92d1461020357806354be8be61461020b578063628310b31461021e57600080fd5b8063013eba921461016457806301f59d161461019757806307afe492146101a05780630ae62fe7146101b557806312d2e534146101ca575b600080fd5b610184610172366004610d6e565b60066020526000908152604090205481565b6040519081526020015b60405180910390f35b61018460025481565b6101b36101ae366004610d9e565b610304565b005b6101bd610687565b60405161018e9190610db7565b61018460035481565b610184603c81565b6101b36106df565b6101846101f1366004610d6e565b60086020526000908152604090205481565b6101b361073c565b6101b3610219366004610e14565b6107fc565b61018461022c366004610d9e565b610840565b6101b361023f366004610d6e565b610861565b6101b3610252366004610d9e565b6108bd565b6101b3610265366004610d9e565b6108ef565b610184610278366004610d6e565b610921565b61018461028b366004610d9e565b6109d4565b6101b361029e366004610d6e565b6109e4565b6101b3610a35565b6001546102be90600160a060020a031681565b604051600160a060020a03909116815260200161018e565b6101bd610b19565b6101846102ec366004610d6e565b610b6f565b6101846102ff366004610d9e565b610bfd565b806009818154811061031857610318610ed1565b9060005260206000200154600a828154811061033657610336610ed1565b9060005260206000200154106103965760405160e560020a62461bcd02815260206004820152600c60248201527f4c6f742069732066756c6c2e000000000000000000000000000000000000000060448201526064015b60405180910390fd5b61039f82610bfd565b6103a833610b6f565b10156103f95760405160e560020a62461bcd02815260206004820152601260248201527f496e73756666696369656e7420554250432e0000000000000000000000000000604482015260640161038d565b8160000361044c5760405160e560020a62461bcd02815260206004820152601660248201527f4c6f7420696e6465782063616e6e6f7420626520302e00000000000000000000604482015260640161038d565b33600090815260086020526040902054156104ac5760405160e560020a62461bcd02815260206004820152601760248201527f596f752061726520616c7265616479207061726b65642e000000000000000000604482015260640161038d565b600454820361053d573360009081526005602052604090205460ff1661053d5760405160e560020a62461bcd02815260206004820152602560248201527f4f6e6c792073746166662063616e207061726b20696e2074686520737461666660448201527f206c6f742e000000000000000000000000000000000000000000000000000000606482015260840161038d565b600154600160a060020a03166323b872dd333061055986610bfd565b6040517c010000000000000000000000000000000000000000000000000000000063ffffffff8616028152600160a060020a03938416600482015292909116602483015260448201526064016020604051808303816000875af11580156105c4573d6000803e3d6000fd5b505050506040513d601f19601f820116820180604052508101906105e89190610eea565b5033600090815260076020526040812080549161060483610f25565b9190505550600a828154811061061c5761061c610ed1565b6000918252602082200180549161063283610f25565b90915550503360008181526008602052604090819020849055517fcddbea0c092495e8718375ec92f5371831dcfb5bfe86a2645e974bb42ad997a79061067b9085815260200190565b60405180910390a25050565b606060098054806020026020016040519081016040528092919081815260200182805480156106d557602002820191906000526020600020905b8154815260200190600101908083116106c1575b5050505050905090565b600054600160a060020a0316331461070c5760405160e560020a62461bcd02815260040161038d90610f3e565b6040513390303180156108fc02916000818181858888f19350505050158015610739573d6000803e3d6000fd5b50565b600061074733610921565b90506000811161079c5760405160e560020a62461bcd02815260206004820152601a60248201527f596f752068617665206e6f7468696e6720746f20636c61696d2e000000000000604482015260640161038d565b33600081815260066020908152604080832042905560079091528120556107c39082610c8b565b60405181815233907fd8138f8a3f377c5259ca548e70e4c2de94f129f5a11036a15b69513cba2b426a906020015b60405180910390a250565b600054600160a060020a031633146108295760405160e560020a62461bcd02815260040161038d90610f3e565b805161083c906009906020840190610d0e565b5050565b6009818154811061085057600080fd5b600091825260209091200154905081565b600054600160a060020a0316331461088e5760405160e560020a62461bcd02815260040161038d90610f3e565b6000805473ffffffffffffffffffffffffffffffffffffffff1916600160a060020a0392909216919091179055565b600054600160a060020a031633146108ea5760405160e560020a62461bcd02815260040161038d90610f3e565b600255565b600054600160a060020a0316331461091c5760405160e560020a62461bcd02815260040161038d90610f3e565b600355565b600160a060020a03811660009081526006602052604081205480820361094f5761094c603c42610f9b565b90505b6000603c61095d8342610f9b565b6109679190610fae565b905080158061098d5750600160a060020a03841660009081526007602052604090205481105b1561099c575060009392505050565b600354600160a060020a0385166000908152600760205260409020546109c29083610f9b565b6109cc9190610fd3565b949350505050565b600a818154811061085057600080fd5b600054600160a060020a03163314610a115760405160e560020a62461bcd02815260040161038d90610f3e565b600160a060020a03166000908152600560205260409020805460ff19166001179055565b336000908152600860205260408120549003610a965760405160e560020a62461bcd02815260206004820152601360248201527f596f7520617265206e6f74207061726b65642e00000000000000000000000000604482015260640161038d565b33600090815260086020526040902054600a805482908110610aba57610aba610ed1565b60009182526020822001805491610ad083610fea565b90915550503360008181526008602052604080822091909155517faf65ecdc8a0d3ea90c8344c89e7001864fddf59dfdf41da2994463fe99049a59906107f19084815260200190565b6060600a8054806020026020016040519081016040528092919081815260200182805480156106d557602002820191906000526020600020908154815260200190600101908083116106c1575050505050905090565b6001546040517f70a08231000000000000000000000000000000000000000000000000000000008152600160a060020a03838116600483015260009216906370a0823190602401602060405180830381865afa158015610bd3573d6000803e3d6000fd5b505050506040513d601f19601f82011682018060405250810190610bf79190611001565b92915050565b6000600a8281548110610c1257610c12610ed1565b9060005260206000200154600003610c2c57506000919050565b60098281548110610c3f57610c3f610ed1565b9060005260206000200154600a8381548110610c5d57610c5d610ed1565b90600052602060002001546001610c74919061101a565b600254610c819190610fd3565b610bf79190610fae565b6001546040517f40c10f19000000000000000000000000000000000000000000000000000000008152600160a060020a03848116600483015260248201849052909116906340c10f1990604401600060405180830381600087803b158015610cf257600080fd5b505af1158015610d06573d6000803e3d6000fd5b505050505050565b828054828255906000526020600020908101928215610d49579160200282015b82811115610d49578251825591602001919060010190610d2e565b50610d55929150610d59565b5090565b5b80821115610d555760008155600101610d5a565b600060208284031215610d8057600080fd5b8135600160a060020a0381168114610d9757600080fd5b9392505050565b600060208284031215610db057600080fd5b5035919050565b6020808252825182820181905260009190848201906040850190845b81811015610def57835183529284019291840191600101610dd3565b50909695505050505050565b60e060020a634e487b7102600052604160045260246000fd5b60006020808385031215610e2757600080fd5b823567ffffffffffffffff80821115610e3f57600080fd5b818501915085601f830112610e5357600080fd5b813581811115610e6557610e65610dfb565b838102604051601f19603f83011681018181108582111715610e8957610e89610dfb565b604052918252848201925083810185019188831115610ea757600080fd5b938501935b82851015610ec557843584529385019392850192610eac565b98975050505050505050565b60e060020a634e487b7102600052603260045260246000fd5b600060208284031215610efc57600080fd5b81518015158114610d9757600080fd5b60e060020a634e487b7102600052601160045260246000fd5b600060018201610f3757610f37610f0c565b5060010190565b60208082526022908201527f4f6e6c792061646d696e2063616e2063616c6c20746869732066756e6374696f60408201527f6e2e000000000000000000000000000000000000000000000000000000000000606082015260800190565b81810381811115610bf757610bf7610f0c565b600082610fce5760e060020a634e487b7102600052601260045260246000fd5b500490565b8082028115828204841417610bf757610bf7610f0c565b600081610ff957610ff9610f0c565b506000190190565b60006020828403121561101357600080fd5b5051919050565b80820180821115610bf757610bf7610f0c56fea2646970667358221220ce2273070149f94083c592c1cc58f4f634385205237edb7d28e8b12c7d91689464736f6c63430008110033",
  "immutableReferences": {},
  "source": "// SPDX-License-Identifier: MIT\npragma solidity >=0.4.22 <0.9.0;\n\n// import IERC20 from openzeppelin\nimport \"@openzeppelin/contracts/token/ERC20/IERC20.sol\";\n\nabstract contract IUBPC is IERC20 {\n  function mint(address account, uint256 amount) public virtual;\n  function claim_airdrop() public virtual;\n  function setChainPark(address _chainParkAddr) public virtual;\n}\n\ncontract ChainPark  {\n\n  // In reality this would be set to 1 day, but for testing purposes we set it to 1 minute\n  uint public constant CLAIM_WAIT_PERIOD = 1 minutes; // 1 day\n  // We dont want to wait days to be able to test claim, so we set it to 1 minute\n\n  address admin;\n  address public UBPC_CONTRACT; // address of the UBParkingCredits contract\n\n  uint public maxFee; // the cost to park if you are the last person to park\n  uint public dailyIncome; // the amount you will earn if you do not park for a day\n  \n  uint staffLot; // lotIndex of lot that is reserved for staff\n  mapping(address=>bool) staff;\n\n  mapping(address=>uint) public lastClaimed; // timestamp\n  mapping(address=>uint) parksSinceClaim;\n\n  mapping(address=>uint) public currentlyParked; // 0 if not parked, otherwise lotIndex\n\n  uint[] public lotMaxCapacities; // index 0 is not used. Lots are 1-indexed so that 0 can be used to represent not parked\n  uint[] public lotCurrentCapacities;\n\n\n  event Parked(address indexed user, uint lotIndex);\n  event Left(address indexed user, uint lotIndex);\n  event Claimed(address indexed user, uint amount);\n\n  modifier onlyAdmin() {\n    require(msg.sender == admin, \"Only admin can call this function.\");\n    _;\n  }\n\n  modifier notFull(uint lotIndex) {\n    require(lotCurrentCapacities[lotIndex] < lotMaxCapacities[lotIndex], \"Lot is full.\");\n    _;\n  }\n\n  constructor(uint[] memory _lotMaxCapacities, address _ubpcContractAddr, uint256 _maxFee, uint _dailyIncome, uint _staffLot) {\n    admin = msg.sender;\n    lotMaxCapacities = _lotMaxCapacities;\n    lotCurrentCapacities = new uint[](_lotMaxCapacities.length);\n    UBPC_CONTRACT = _ubpcContractAddr;\n    maxFee = _maxFee;\n    dailyIncome = _dailyIncome;\n    staffLot = _staffLot;\n  }\n\n\n  function getFee(uint lotIndex) public view returns (uint) {\n    if (lotCurrentCapacities[lotIndex] == 0) {\n      return 0; // free to park if no one is parked\n    }\n    return maxFee * (lotCurrentCapacities[lotIndex] + 1) / lotMaxCapacities[lotIndex];\n  }\n\n  function park(uint lotIndex) public notFull(lotIndex) {\n    require(checkUBPCBalance(msg.sender) >= getFee(lotIndex), \"Insufficient UBPC.\");\n    require(lotIndex != 0, \"Lot index cannot be 0.\");\n    require(currentlyParked[msg.sender] == 0, \"You are already parked.\");\n\n    if (lotIndex == staffLot) {\n      require(staff[msg.sender], \"Only staff can park in the staff lot.\");\n    }\n\n    IUBPC(UBPC_CONTRACT).transferFrom(msg.sender, address(this), getFee(lotIndex));\n    \n    parksSinceClaim[msg.sender]++;\n    lotCurrentCapacities[lotIndex]++;\n    currentlyParked[msg.sender] = lotIndex;\n    emit Parked(msg.sender, lotIndex);\n  }\n\n\n  function leave() public {\n    require(currentlyParked[msg.sender] != 0, \"You are not parked.\");\n    uint lotIndex = uint(currentlyParked[msg.sender]);\n    lotCurrentCapacities[lotIndex]--;\n    currentlyParked[msg.sender] = 0;\n    emit Left(msg.sender, lotIndex);\n  }\n\n  function claim() public {\n    uint amount = getClaimAmmount(msg.sender);\n    require(amount > 0, \"You have nothing to claim.\");\n    lastClaimed[msg.sender] = block.timestamp;\n    parksSinceClaim[msg.sender] = 0;\n    mintUBPC(msg.sender, amount); // call mint function of UBPC contract\n    emit Claimed(msg.sender, amount);\n  }\n\n  function getClaimAmmount(address user) public view returns (uint) {\n\n    uint usersLastClaimTime = lastClaimed[user];\n\n    if (usersLastClaimTime == 0) { // if user has never claimed, let them claim one periods worth\n      usersLastClaimTime = block.timestamp - CLAIM_WAIT_PERIOD;\n    }\n\n    uint periodsSinceClaim = (block.timestamp - usersLastClaimTime) / CLAIM_WAIT_PERIOD;\n\n    if (periodsSinceClaim == 0 || periodsSinceClaim < parksSinceClaim[user]) {\n      return 0;\n    }\n\n    return (periodsSinceClaim - parksSinceClaim[user]) * dailyIncome;\n  }\n\n  function checkUBPCBalance(address user) public view returns (uint) {\n    return IUBPC(UBPC_CONTRACT).balanceOf(user);\n  }\n\n  function mintUBPC(address account, uint256 amount) internal {\n    IUBPC(UBPC_CONTRACT).mint(account, amount);\n  }\n\n  function withdraw() public onlyAdmin {\n    payable(msg.sender).transfer(address(this).balance);\n  }\n\n  function getLotMaxCapacities() public view returns (uint[] memory) {\n    return lotMaxCapacities;\n  }\n\n  function getLotCurrentCapacities() public view returns (uint[] memory) {\n    return lotCurrentCapacities;\n  }\n\n  function setMaxCapacities(uint[] memory _lotMaxCapacities) public onlyAdmin {\n    lotMaxCapacities = _lotMaxCapacities;\n  }\n\n  function setMaxFee(uint256 _maxFee) public onlyAdmin {\n    maxFee = _maxFee;\n  }\n\n  function setDailyIncome(uint _dailyIncome) public onlyAdmin {\n    dailyIncome = _dailyIncome;\n  }\n\n  function setStaff(address _staffAddr) public onlyAdmin {\n    staff[_staffAddr] = true;\n  }\n\n  function setAdmin(address _newAdmin) public onlyAdmin {\n    admin = _newAdmin;\n  }\n}\n",
  "sourcePath": "/home/sib/eth/UB-Chain-Park/truffle/contracts/ChainPark.sol",
  "compiler": {
    "name": "solc",
    "version": "0.8.17+commit.8df45f5f.Emscripten.clang"
  },
  "schemaVersion": "3.4.10",
  "updatedAt": "2022-12-04T04:44:35.781Z",
  "networkType": "ethereum",
  "devdoc": {
    "kind": "dev",
    "methods": {},
    "version": 1
  },
  "userdoc": {
    "kind": "user",
    "methods": {},
    "version": 1
  }
}