{
  "contractName": "ChainPark",
  "abi": [
    {
      "inputs": [
        {
          "internalType": "uint256[]",
          "name": "_lotMaxCapacities",
          "type": "uint256[]"
        },
        {
          "internalType": "address",
          "name": "_ubpcContractAddr",
          "type": "address"
        },
        {
          "internalType": "uint256",
          "name": "_maxFee",
          "type": "uint256"
        },
        {
          "internalType": "uint256",
          "name": "_dailyIncome",
          "type": "uint256"
        },
        {
          "internalType": "uint256",
          "name": "_staffLot",
          "type": "uint256"
        }
      ],
      "stateMutability": "nonpayable",
      "type": "constructor"
    },
    {
      "anonymous": false,
      "inputs": [
        {
          "indexed": true,
          "internalType": "address",
          "name": "user",
          "type": "address"
        },
        {
          "indexed": false,
          "internalType": "uint256",
          "name": "amount",
          "type": "uint256"
        }
      ],
      "name": "Claimed",
      "type": "event"
    },
    {
      "anonymous": false,
      "inputs": [
        {
          "indexed": true,
          "internalType": "address",
          "name": "user",
          "type": "address"
        },
        {
          "indexed": false,
          "internalType": "uint256",
          "name": "lotIndex",
          "type": "uint256"
        }
      ],
      "name": "Left",
      "type": "event"
    },
    {
      "anonymous": false,
      "inputs": [
        {
          "indexed": true,
          "internalType": "address",
          "name": "user",
          "type": "address"
        },
        {
          "indexed": false,
          "internalType": "uint256",
          "name": "lotIndex",
          "type": "uint256"
        }
      ],
      "name": "Parked",
      "type": "event"
    },
    {
      "inputs": [],
      "name": "UBPC_CONTRACT",
      "outputs": [
        {
          "internalType": "address",
          "name": "",
          "type": "address"
        }
      ],
      "stateMutability": "view",
      "type": "function",
      "constant": true
    },
    {
      "inputs": [
        {
          "internalType": "address",
          "name": "",
          "type": "address"
        }
      ],
      "name": "currentlyParked",
      "outputs": [
        {
          "internalType": "uint256",
          "name": "",
          "type": "uint256"
        }
      ],
      "stateMutability": "view",
      "type": "function",
      "constant": true
    },
    {
      "inputs": [
        {
          "internalType": "uint256",
          "name": "",
          "type": "uint256"
        }
      ],
      "name": "lotCurrentCapacities",
      "outputs": [
        {
          "internalType": "uint256",
          "name": "",
          "type": "uint256"
        }
      ],
      "stateMutability": "view",
      "type": "function",
      "constant": true
    },
    {
      "inputs": [
        {
          "internalType": "uint256",
          "name": "",
          "type": "uint256"
        }
      ],
      "name": "lotMaxCapacities",
      "outputs": [
        {
          "internalType": "uint256",
          "name": "",
          "type": "uint256"
        }
      ],
      "stateMutability": "view",
      "type": "function",
      "constant": true
    },
    {
      "inputs": [],
      "name": "maxFee",
      "outputs": [
        {
          "internalType": "uint256",
          "name": "",
          "type": "uint256"
        }
      ],
      "stateMutability": "view",
      "type": "function",
      "constant": true
    },
    {
      "inputs": [
        {
          "internalType": "uint256",
          "name": "lotIndex",
          "type": "uint256"
        }
      ],
      "name": "getFee",
      "outputs": [
        {
          "internalType": "uint256",
          "name": "",
          "type": "uint256"
        }
      ],
      "stateMutability": "view",
      "type": "function",
      "constant": true
    },
    {
      "inputs": [
        {
          "internalType": "uint256",
          "name": "lotIndex",
          "type": "uint256"
        }
      ],
      "name": "park",
      "outputs": [],
      "stateMutability": "nonpayable",
      "type": "function"
    },
    {
      "inputs": [
        {
          "internalType": "address",
          "name": "user",
          "type": "address"
        }
      ],
      "name": "checkUBPCBalance",
      "outputs": [
        {
          "internalType": "uint256",
          "name": "",
          "type": "uint256"
        }
      ],
      "stateMutability": "view",
      "type": "function",
      "constant": true
    },
    {
      "inputs": [],
      "name": "leave",
      "outputs": [],
      "stateMutability": "nonpayable",
      "type": "function"
    },
    {
      "inputs": [],
      "name": "claim",
      "outputs": [],
      "stateMutability": "nonpayable",
      "type": "function"
    },
    {
      "inputs": [],
      "name": "withdraw",
      "outputs": [],
      "stateMutability": "nonpayable",
      "type": "function"
    },
    {
      "inputs": [],
      "name": "getLotMaxCapacities",
      "outputs": [
        {
          "internalType": "uint256[]",
          "name": "",
          "type": "uint256[]"
        }
      ],
      "stateMutability": "view",
      "type": "function",
      "constant": true
    },
    {
      "inputs": [],
      "name": "getLotCurrentCapacities",
      "outputs": [
        {
          "internalType": "uint256[]",
          "name": "",
          "type": "uint256[]"
        }
      ],
      "stateMutability": "view",
      "type": "function",
      "constant": true
    },
    {
      "inputs": [
        {
          "internalType": "uint256[]",
          "name": "_lotMaxCapacities",
          "type": "uint256[]"
        }
      ],
      "name": "setMaxCapacities",
      "outputs": [],
      "stateMutability": "nonpayable",
      "type": "function"
    },
    {
      "inputs": [
        {
          "internalType": "uint256",
          "name": "_maxFee",
          "type": "uint256"
        }
      ],
      "name": "setMaxFee",
      "outputs": [],
      "stateMutability": "nonpayable",
      "type": "function"
    },
    {
      "inputs": [
        {
          "internalType": "uint256",
          "name": "_dailyIncome",
          "type": "uint256"
        }
      ],
      "name": "setDailyIncome",
      "outputs": [],
      "stateMutability": "nonpayable",
      "type": "function"
    },
    {
      "inputs": [
        {
          "internalType": "address",
          "name": "_staffAddr",
          "type": "address"
        }
      ],
      "name": "setStaff",
      "outputs": [],
      "stateMutability": "nonpayable",
      "type": "function"
    },
    {
      "inputs": [
        {
          "internalType": "address",
          "name": "newAdmin",
          "type": "address"
        }
      ],
      "name": "setAdmin",
      "outputs": [],
      "stateMutability": "nonpayable",
      "type": "function"
    }
  ],
  "bytecode": "0x60806040523480156200001157600080fd5b5060405162001226380380620012268339810160408190526200003491620001a1565b60008054600160a060020a0319163317905584516200005b906009906020880190620000ee565b5084516001604060020a0381111562000078576200007862000155565b604051908082528060200260200182016040528015620000a2578160200160208202803683370190505b508051620000b991600a91602090910190620000ee565b5060018054600160a060020a031916600160a060020a0395909516949094179093556002919091556003556004555062000298565b8280548282559060005260206000209081019282156200012c579160200282015b828111156200012c5782518255916020019190600101906200010f565b506200013a9291506200013e565b5090565b5b808211156200013a57600081556001016200013f565b7f4e487b7100000000000000000000000000000000000000000000000000000000600052604160045260246000fd5b8051600160a060020a03811681146200019c57600080fd5b919050565b600080600080600060a08688031215620001ba57600080fd5b85516001604060020a0380821115620001d257600080fd5b818801915088601f830112620001e757600080fd5b8151602082821115620001fe57620001fe62000155565b808202604051601f19603f8301168101818110868211171562000225576200022562000155565b60405292835281830193508481018201928c8411156200024457600080fd5b948201945b83861015620002645785518552948201949382019362000249565b99506200027590508a820162000184565b60408b015160608c01516080909c01519a9d919c509a9998509650505050505050565b610f7e80620002a86000396000f3fe608060405234801561001057600080fd5b5060043610610133576000357c010000000000000000000000000000000000000000000000000000000090048063710e5d2f116100bf578063d66d9e191161008e578063d66d9e1914610233578063d6b0ee641461023b578063ddd15b4c14610266578063decc504f1461026e578063fcee45f41461028157600080fd5b8063710e5d2f146101e757806383f4eb63146101fa578063c564b6271461020d578063d0c670b81461022057600080fd5b80634cc64f80116101065780634cc64f80146101865780634e71d92d146101a657806354be8be6146101ae578063628310b3146101c1578063704b6c02146101d457600080fd5b806301f59d161461013857806307afe492146101545780630ae62fe7146101695780633ccfd60b1461017e575b600080fd5b61014160025481565b6040519081526020015b60405180910390f35b610167610162366004610c89565b610294565b005b6101716105f7565b60405161014b9190610ca2565b61016761064f565b610141610194366004610ce6565b60086020526000908152604090205481565b6101676106ac565b6101676101bc366004610d2f565b6107bf565b6101416101cf366004610c89565b610803565b6101676101e2366004610ce6565b610824565b6101676101f5366004610c89565b610880565b610167610208366004610c89565b6108b2565b61014161021b366004610c89565b6108e4565b61016761022e366004610ce6565b6108f4565b610167610945565b60015461024e90600160a060020a031681565b604051600160a060020a03909116815260200161014b565b610171610a34565b61014161027c366004610ce6565b610a8a565b61014161028f366004610c89565b610b18565b80600981815481106102a8576102a8610dec565b9060005260206000200154600a82815481106102c6576102c6610dec565b9060005260206000200154106103265760405160e560020a62461bcd02815260206004820152600c60248201527f4c6f742069732066756c6c2e000000000000000000000000000000000000000060448201526064015b60405180910390fd5b61032f82610b18565b61033833610a8a565b10156103895760405160e560020a62461bcd02815260206004820152601260248201527f496e73756666696369656e7420554250432e0000000000000000000000000000604482015260640161031d565b816000036103dc5760405160e560020a62461bcd02815260206004820152601660248201527f4c6f7420696e6465782063616e6e6f7420626520302e00000000000000000000604482015260640161031d565b336000908152600860205260409020541561043c5760405160e560020a62461bcd02815260206004820152601760248201527f596f752061726520616c7265616479207061726b65642e000000000000000000604482015260640161031d565b60045482036104cd573360009081526005602052604090205460ff166104cd5760405160e560020a62461bcd02815260206004820152602560248201527f4f6e6c792073746166662063616e207061726b20696e2074686520737461666660448201527f206c6f742e000000000000000000000000000000000000000000000000000000606482015260840161031d565b600154600160a060020a03166323b872dd33306104e986610b18565b6040517c010000000000000000000000000000000000000000000000000000000063ffffffff8616028152600160a060020a03938416600482015292909116602483015260448201526064016020604051808303816000875af1158015610554573d6000803e3d6000fd5b505050506040513d601f19601f820116820180604052508101906105789190610e05565b50600a828154811061058c5761058c610dec565b600091825260208220018054916105a283610e40565b90915550503360008181526008602052604090819020849055517fcddbea0c092495e8718375ec92f5371831dcfb5bfe86a2645e974bb42ad997a7906105eb9085815260200190565b60405180910390a25050565b6060600980548060200260200160405190810160405280929190818152602001828054801561064557602002820191906000526020600020905b815481526020019060010190808311610631575b5050505050905090565b600054600160a060020a0316331461067c5760405160e560020a62461bcd02815260040161031d90610e59565b6040513390303180156108fc02916000818181858888f193505050501580156106a9573d6000803e3d6000fd5b50565b3360009081526006602052604081205462015180906106cb9042610eb6565b6106d59190610ec9565b3360009081526007602052604090205490915081116107395760405160e560020a62461bcd02815260206004820152601e60248201527f596f752068617665206e6f74207061726b656420666f722061206461792e0000604482015260640161031d565b600354336000908152600760205260408120549091906107599084610eb6565b6107639190610eee565b336000818152600660209081526040808320429055600790915281205590915061078d9082610ba6565b60405181815233907fd8138f8a3f377c5259ca548e70e4c2de94f129f5a11036a15b69513cba2b426a906020016105eb565b600054600160a060020a031633146107ec5760405160e560020a62461bcd02815260040161031d90610e59565b80516107ff906009906020840190610c29565b5050565b6009818154811061081357600080fd5b600091825260209091200154905081565b600054600160a060020a031633146108515760405160e560020a62461bcd02815260040161031d90610e59565b6000805473ffffffffffffffffffffffffffffffffffffffff1916600160a060020a0392909216919091179055565b600054600160a060020a031633146108ad5760405160e560020a62461bcd02815260040161031d90610e59565b600255565b600054600160a060020a031633146108df5760405160e560020a62461bcd02815260040161031d90610e59565b600355565b600a818154811061081357600080fd5b600054600160a060020a031633146109215760405160e560020a62461bcd02815260040161031d90610e59565b600160a060020a03166000908152600560205260409020805460ff19166001179055565b3360009081526008602052604081205490036109a65760405160e560020a62461bcd02815260206004820152601360248201527f596f7520617265206e6f74207061726b65642e00000000000000000000000000604482015260640161031d565b33600090815260086020526040902054600a8054829081106109ca576109ca610dec565b600091825260208220018054916109e083610f05565b90915550503360008181526008602052604080822091909155517faf65ecdc8a0d3ea90c8344c89e7001864fddf59dfdf41da2994463fe99049a5990610a299084815260200190565b60405180910390a250565b6060600a8054806020026020016040519081016040528092919081815260200182805480156106455760200282019190600052602060002090815481526020019060010190808311610631575050505050905090565b6001546040517f70a08231000000000000000000000000000000000000000000000000000000008152600160a060020a03838116600483015260009216906370a0823190602401602060405180830381865afa158015610aee573d6000803e3d6000fd5b505050506040513d601f19601f82011682018060405250810190610b129190610f1c565b92915050565b6000600a8281548110610b2d57610b2d610dec565b9060005260206000200154600003610b4757506000919050565b60098281548110610b5a57610b5a610dec565b9060005260206000200154600a8381548110610b7857610b78610dec565b90600052602060002001546001610b8f9190610f35565b600254610b9c9190610eee565b610b129190610ec9565b6001546040517f40c10f19000000000000000000000000000000000000000000000000000000008152600160a060020a03848116600483015260248201849052909116906340c10f1990604401600060405180830381600087803b158015610c0d57600080fd5b505af1158015610c21573d6000803e3d6000fd5b505050505050565b828054828255906000526020600020908101928215610c64579160200282015b82811115610c64578251825591602001919060010190610c49565b50610c70929150610c74565b5090565b5b80821115610c705760008155600101610c75565b600060208284031215610c9b57600080fd5b5035919050565b6020808252825182820181905260009190848201906040850190845b81811015610cda57835183529284019291840191600101610cbe565b50909695505050505050565b600060208284031215610cf857600080fd5b8135600160a060020a0381168114610d0f57600080fd5b9392505050565b60e060020a634e487b7102600052604160045260246000fd5b60006020808385031215610d4257600080fd5b823567ffffffffffffffff80821115610d5a57600080fd5b818501915085601f830112610d6e57600080fd5b813581811115610d8057610d80610d16565b838102604051601f19603f83011681018181108582111715610da457610da4610d16565b604052918252848201925083810185019188831115610dc257600080fd5b938501935b82851015610de057843584529385019392850192610dc7565b98975050505050505050565b60e060020a634e487b7102600052603260045260246000fd5b600060208284031215610e1757600080fd5b81518015158114610d0f57600080fd5b60e060020a634e487b7102600052601160045260246000fd5b600060018201610e5257610e52610e27565b5060010190565b60208082526022908201527f4f6e6c792061646d696e2063616e2063616c6c20746869732066756e6374696f60408201527f6e2e000000000000000000000000000000000000000000000000000000000000606082015260800190565b81810381811115610b1257610b12610e27565b600082610ee95760e060020a634e487b7102600052601260045260246000fd5b500490565b8082028115828204841417610b1257610b12610e27565b600081610f1457610f14610e27565b506000190190565b600060208284031215610f2e57600080fd5b5051919050565b80820180821115610b1257610b12610e2756fea26469706673582212202875536a22c513f8094cf82e03564d6ae65ce79206cd1381757b5e8bd741953364736f6c63430008110033",
  "immutableReferences": {},
  "source": "// SPDX-License-Identifier: MIT\npragma solidity >=0.4.22 <0.9.0;\n\n// import IERC20 from openzeppelin\nimport \"@openzeppelin/contracts/token/ERC20/IERC20.sol\";\n\nabstract contract IUBPC is IERC20 {\n  function mint(address account, uint256 amount) public virtual;\n  function claim_airdrop() public virtual;\n  function setChainPark(address _chainParkAddr) public virtual;\n}\n\n\n\ncontract ChainPark  {\n  address admin;\n  address public UBPC_CONTRACT;\n  uint256 public maxFee; // the cost to park if you are the last person to park\n  uint dailyIncome; // the amount you will earn if you do not park for a day\n  uint staffLot; // lotIndex for lot that is reserved for staff\n  //uint constant NOT_PARKED = 2**256 - 1; // use max uint to represent not parked\n  mapping(address=>bool) staff;\n  mapping(address=>uint) lastClaimed; // timestamp\n  mapping(address=>uint) parksSinceClaim;\n  mapping(address=>uint) public currentlyParked; // NOT_PARKED if not parked, otherwise lotIndex\n  uint[] public lotMaxCapacities; // index 0 is not used. Lots are 1-indexed so that 0 can be used to represent not parked\n  uint[] public lotCurrentCapacities;\n  // enum lotType {Staff, Student, Both}\n  // lotType[] lotTypes;\n\n\n  event Parked(address indexed user, uint lotIndex);\n  event Left(address indexed user, uint lotIndex);\n  event Claimed(address indexed user, uint amount);\n\n  modifier onlyAdmin() {\n    require(msg.sender == admin, \"Only admin can call this function.\");\n    _;\n  }\n\n  // modifier onlyStaff() {\n  //   require(staff[msg.sender], \"Only staff can call this function.\");\n  //   _;\n  // }\n\n  modifier notFull(uint lotIndex) {\n    require(lotCurrentCapacities[lotIndex] < lotMaxCapacities[lotIndex], \"Lot is full.\");\n    _;\n  }\n\n  constructor(uint[] memory _lotMaxCapacities, address _ubpcContractAddr, uint256 _maxFee, uint _dailyIncome, uint _staffLot) {\n    admin = msg.sender;\n    lotMaxCapacities = _lotMaxCapacities;\n    lotCurrentCapacities = new uint[](_lotMaxCapacities.length);\n    UBPC_CONTRACT = _ubpcContractAddr;\n    maxFee = _maxFee;\n    dailyIncome = _dailyIncome;\n    staffLot = _staffLot;\n  }\n\n\n  function getFee(uint lotIndex) public view returns (uint) {\n    if (lotCurrentCapacities[lotIndex] == 0) {\n      return 0;\n    }\n    return maxFee * (lotCurrentCapacities[lotIndex] + 1) / lotMaxCapacities[lotIndex];\n  }\n\n  function park(uint lotIndex) public notFull(lotIndex) {\n    require(checkUBPCBalance(msg.sender) >= getFee(lotIndex), \"Insufficient UBPC.\");\n    require(lotIndex != 0, \"Lot index cannot be 0.\");\n    require(currentlyParked[msg.sender] == 0, \"You are already parked.\");\n\n    if (lotIndex == staffLot) {\n      require(staff[msg.sender], \"Only staff can park in the staff lot.\");\n    }\n\n    IUBPC(UBPC_CONTRACT).transferFrom(msg.sender, address(this), getFee(lotIndex));\n\n    lotCurrentCapacities[lotIndex]++;\n    currentlyParked[msg.sender] = lotIndex;\n    emit Parked(msg.sender, lotIndex);\n  }\n\n  function checkUBPCBalance(address user) public view returns (uint) {\n    return IUBPC(UBPC_CONTRACT).balanceOf(user);\n  }\n\n  function mint(address account, uint256 amount) internal {\n    IUBPC(UBPC_CONTRACT).mint(account, amount);\n  }\n\n  function leave() public {\n    require(currentlyParked[msg.sender] != 0, \"You are not parked.\");\n    uint lotIndex = uint(currentlyParked[msg.sender]);\n    lotCurrentCapacities[lotIndex]--;\n    currentlyParked[msg.sender] = 0;\n    emit Left(msg.sender, lotIndex);\n  }\n\n  function claim() public {\n    uint daysSinceClaim = (block.timestamp - lastClaimed[msg.sender]) / 1 days;\n    require(daysSinceClaim > parksSinceClaim[msg.sender], \"You have not parked for a day.\");\n    uint amount = (daysSinceClaim - parksSinceClaim[msg.sender]) * dailyIncome; // you will not get paid for the days you parked\n    lastClaimed[msg.sender] = block.timestamp;\n    parksSinceClaim[msg.sender] = 0;\n    mint(msg.sender, amount);\n    emit Claimed(msg.sender, amount);\n  }\n\n  function withdraw() public onlyAdmin {\n    payable(msg.sender).transfer(address(this).balance);\n  }\n\n  function getLotMaxCapacities() public view returns (uint[] memory) {\n    return lotMaxCapacities;\n  }\n\n  function getLotCurrentCapacities() public view returns (uint[] memory) {\n    return lotCurrentCapacities;\n  }\n\n  function setMaxCapacities(uint[] memory _lotMaxCapacities) public onlyAdmin {\n    lotMaxCapacities = _lotMaxCapacities;\n  }\n\n  function setMaxFee(uint256 _maxFee) public onlyAdmin {\n    maxFee = _maxFee;\n  }\n\n  function setDailyIncome(uint _dailyIncome) public onlyAdmin {\n    dailyIncome = _dailyIncome;\n  }\n\n  function setStaff(address _staffAddr) public onlyAdmin {\n    staff[_staffAddr] = true;\n  }\n\n  function setAdmin(address newAdmin) public onlyAdmin {\n    admin = newAdmin;\n  }\n}\n",
  "sourcePath": "/home/sib/eth/UB-Chain-Park/truffle/contracts/ChainPark.sol",
  "compiler": {
    "name": "solc",
    "version": "0.8.17+commit.8df45f5f.Emscripten.clang"
  },
  "schemaVersion": "3.4.10",
  "updatedAt": "2022-12-04T03:09:35.767Z",
  "networkType": "ethereum",
  "devdoc": {
    "kind": "dev",
    "methods": {},
    "version": 1
  },
  "userdoc": {
    "kind": "user",
    "methods": {},
    "version": 1
  }
}