{
  "contractName": "ChainPark",
  "abi": [
    {
      "inputs": [
        {
          "internalType": "uint256[]",
          "name": "_lotMaxCapacities",
          "type": "uint256[]"
        },
        {
          "internalType": "address",
          "name": "_ubpcContractAddr",
          "type": "address"
        },
        {
          "internalType": "uint256",
          "name": "_maxFee",
          "type": "uint256"
        },
        {
          "internalType": "uint256",
          "name": "_dailyIncome",
          "type": "uint256"
        },
        {
          "internalType": "uint256",
          "name": "_staffLot",
          "type": "uint256"
        }
      ],
      "stateMutability": "nonpayable",
      "type": "constructor"
    },
    {
      "anonymous": false,
      "inputs": [
        {
          "indexed": true,
          "internalType": "address",
          "name": "user",
          "type": "address"
        },
        {
          "indexed": false,
          "internalType": "uint256",
          "name": "amount",
          "type": "uint256"
        }
      ],
      "name": "Claimed",
      "type": "event"
    },
    {
      "anonymous": false,
      "inputs": [
        {
          "indexed": true,
          "internalType": "address",
          "name": "user",
          "type": "address"
        },
        {
          "indexed": false,
          "internalType": "uint256",
          "name": "lotIndex",
          "type": "uint256"
        }
      ],
      "name": "Left",
      "type": "event"
    },
    {
      "anonymous": false,
      "inputs": [
        {
          "indexed": true,
          "internalType": "address",
          "name": "user",
          "type": "address"
        },
        {
          "indexed": false,
          "internalType": "uint256",
          "name": "lotIndex",
          "type": "uint256"
        }
      ],
      "name": "Parked",
      "type": "event"
    },
    {
      "inputs": [],
      "name": "CLAIM_WAIT_PERIOD",
      "outputs": [
        {
          "internalType": "uint256",
          "name": "",
          "type": "uint256"
        }
      ],
      "stateMutability": "view",
      "type": "function",
      "constant": true
    },
    {
      "inputs": [],
      "name": "UBPC_CONTRACT",
      "outputs": [
        {
          "internalType": "address",
          "name": "",
          "type": "address"
        }
      ],
      "stateMutability": "view",
      "type": "function",
      "constant": true
    },
    {
      "inputs": [
        {
          "internalType": "address",
          "name": "",
          "type": "address"
        }
      ],
      "name": "currentlyParked",
      "outputs": [
        {
          "internalType": "uint256",
          "name": "",
          "type": "uint256"
        }
      ],
      "stateMutability": "view",
      "type": "function",
      "constant": true
    },
    {
      "inputs": [],
      "name": "dailyIncome",
      "outputs": [
        {
          "internalType": "uint256",
          "name": "",
          "type": "uint256"
        }
      ],
      "stateMutability": "view",
      "type": "function",
      "constant": true
    },
    {
      "inputs": [
        {
          "internalType": "address",
          "name": "",
          "type": "address"
        }
      ],
      "name": "lastClaimed",
      "outputs": [
        {
          "internalType": "uint256",
          "name": "",
          "type": "uint256"
        }
      ],
      "stateMutability": "view",
      "type": "function",
      "constant": true
    },
    {
      "inputs": [
        {
          "internalType": "uint256",
          "name": "",
          "type": "uint256"
        }
      ],
      "name": "lotCurrentCapacities",
      "outputs": [
        {
          "internalType": "uint256",
          "name": "",
          "type": "uint256"
        }
      ],
      "stateMutability": "view",
      "type": "function",
      "constant": true
    },
    {
      "inputs": [
        {
          "internalType": "uint256",
          "name": "",
          "type": "uint256"
        }
      ],
      "name": "lotMaxCapacities",
      "outputs": [
        {
          "internalType": "uint256",
          "name": "",
          "type": "uint256"
        }
      ],
      "stateMutability": "view",
      "type": "function",
      "constant": true
    },
    {
      "inputs": [],
      "name": "maxFee",
      "outputs": [
        {
          "internalType": "uint256",
          "name": "",
          "type": "uint256"
        }
      ],
      "stateMutability": "view",
      "type": "function",
      "constant": true
    },
    {
      "inputs": [
        {
          "internalType": "uint256",
          "name": "lotIndex",
          "type": "uint256"
        }
      ],
      "name": "getFee",
      "outputs": [
        {
          "internalType": "uint256",
          "name": "",
          "type": "uint256"
        }
      ],
      "stateMutability": "view",
      "type": "function",
      "constant": true
    },
    {
      "inputs": [
        {
          "internalType": "uint256",
          "name": "lotIndex",
          "type": "uint256"
        }
      ],
      "name": "park",
      "outputs": [],
      "stateMutability": "nonpayable",
      "type": "function"
    },
    {
      "inputs": [],
      "name": "leave",
      "outputs": [],
      "stateMutability": "nonpayable",
      "type": "function"
    },
    {
      "inputs": [],
      "name": "claim",
      "outputs": [],
      "stateMutability": "nonpayable",
      "type": "function"
    },
    {
      "inputs": [
        {
          "internalType": "address",
          "name": "user",
          "type": "address"
        }
      ],
      "name": "getClaimAmmount",
      "outputs": [
        {
          "internalType": "uint256",
          "name": "",
          "type": "uint256"
        }
      ],
      "stateMutability": "view",
      "type": "function",
      "constant": true
    },
    {
      "inputs": [
        {
          "internalType": "address",
          "name": "user",
          "type": "address"
        }
      ],
      "name": "checkUBPCBalance",
      "outputs": [
        {
          "internalType": "uint256",
          "name": "",
          "type": "uint256"
        }
      ],
      "stateMutability": "view",
      "type": "function",
      "constant": true
    },
    {
      "inputs": [],
      "name": "withdraw",
      "outputs": [],
      "stateMutability": "nonpayable",
      "type": "function"
    },
    {
      "inputs": [],
      "name": "getLotMaxCapacities",
      "outputs": [
        {
          "internalType": "uint256[]",
          "name": "",
          "type": "uint256[]"
        }
      ],
      "stateMutability": "view",
      "type": "function",
      "constant": true
    },
    {
      "inputs": [],
      "name": "getLotCurrentCapacities",
      "outputs": [
        {
          "internalType": "uint256[]",
          "name": "",
          "type": "uint256[]"
        }
      ],
      "stateMutability": "view",
      "type": "function",
      "constant": true
    },
    {
      "inputs": [
        {
          "internalType": "uint256[]",
          "name": "_lotMaxCapacities",
          "type": "uint256[]"
        }
      ],
      "name": "setMaxCapacities",
      "outputs": [],
      "stateMutability": "nonpayable",
      "type": "function"
    },
    {
      "inputs": [
        {
          "internalType": "uint256",
          "name": "_maxFee",
          "type": "uint256"
        }
      ],
      "name": "setMaxFee",
      "outputs": [],
      "stateMutability": "nonpayable",
      "type": "function"
    },
    {
      "inputs": [
        {
          "internalType": "uint256",
          "name": "_dailyIncome",
          "type": "uint256"
        }
      ],
      "name": "setDailyIncome",
      "outputs": [],
      "stateMutability": "nonpayable",
      "type": "function"
    },
    {
      "inputs": [
        {
          "internalType": "address",
          "name": "_staffAddr",
          "type": "address"
        }
      ],
      "name": "setStaff",
      "outputs": [],
      "stateMutability": "nonpayable",
      "type": "function"
    },
    {
      "inputs": [
        {
          "internalType": "address",
          "name": "_newAdmin",
          "type": "address"
        }
      ],
      "name": "setAdmin",
      "outputs": [],
      "stateMutability": "nonpayable",
      "type": "function"
    }
  ],
  "bytecode": "0x60806040523480156200001157600080fd5b5060405162001378380380620013788339810160408190526200003491620001a1565b60008054600160a060020a0319163317905584516200005b906009906020880190620000ee565b5084516001604060020a0381111562000078576200007862000155565b604051908082528060200260200182016040528015620000a2578160200160208202803683370190505b508051620000b991600a91602090910190620000ee565b5060018054600160a060020a031916600160a060020a0395909516949094179093556002919091556003556004555062000298565b8280548282559060005260206000209081019282156200012c579160200282015b828111156200012c5782518255916020019190600101906200010f565b506200013a9291506200013e565b5090565b5b808211156200013a57600081556001016200013f565b7f4e487b7100000000000000000000000000000000000000000000000000000000600052604160045260246000fd5b8051600160a060020a03811681146200019c57600080fd5b919050565b600080600080600060a08688031215620001ba57600080fd5b85516001604060020a0380821115620001d257600080fd5b818801915088601f830112620001e757600080fd5b8151602082821115620001fe57620001fe62000155565b808202604051601f19603f8301168101818110868211171562000225576200022562000155565b60405292835281830193508481018201928c8411156200024457600080fd5b948201945b83861015620002645785518552948201949382019362000249565b99506200027590508a820162000184565b60408b015160608c01516080909c01519a9d919c509a9998509650505050505050565b6110d080620002a86000396000f3fe608060405234801561001057600080fd5b506004361061015f576000357c010000000000000000000000000000000000000000000000000000000090048063704b6c02116100d5578063d0c670b811610099578063d0c670b814610290578063d66d9e19146102a3578063d6b0ee64146102ab578063ddd15b4c146102d6578063decc504f146102de578063fcee45f4146102f157600080fd5b8063704b6c0214610231578063710e5d2f1461024457806383f4eb6314610257578063873aed001461026a578063c564b6271461027d57600080fd5b806329848be31161012757806329848be3146101d35780633ccfd60b146101db5780634cc64f80146101e35780634e71d92d1461020357806354be8be61461020b578063628310b31461021e57600080fd5b8063013eba921461016457806301f59d161461019757806307afe492146101a05780630ae62fe7146101b557806312d2e534146101ca575b600080fd5b610184610172366004610dfd565b60066020526000908152604090205481565b6040519081526020015b60405180910390f35b61018460025481565b6101b36101ae366004610e2d565b610304565b005b6101bd61064b565b60405161018e9190610e46565b61018460035481565b610184603c81565b6101b36106a3565b6101846101f1366004610dfd565b60086020526000908152604090205481565b6101b3610700565b6101b3610219366004610ea3565b610847565b61018461022c366004610e2d565b61088b565b6101b361023f366004610dfd565b6108ac565b6101b3610252366004610e2d565b610908565b6101b3610265366004610e2d565b61093a565b610184610278366004610dfd565b61096c565b61018461028b366004610e2d565b610a1f565b6101b361029e366004610dfd565b610a2f565b6101b3610a80565b6001546102be90600160a060020a031681565b604051600160a060020a03909116815260200161018e565b6101bd610ba8565b6101846102ec366004610dfd565b610bfe565b6101846102ff366004610e2d565b610c8c565b806009818154811061031857610318610f60565b9060005260206000200154600a828154811061033657610336610f60565b9060005260206000200154106103965760405160e560020a62461bcd02815260206004820152600c60248201527f4c6f742069732066756c6c2e000000000000000000000000000000000000000060448201526064015b60405180910390fd5b61039f82610c8c565b6103a833610bfe565b10156103f95760405160e560020a62461bcd02815260206004820152601260248201527f496e73756666696369656e7420554250432e0000000000000000000000000000604482015260640161038d565b8160000361044c5760405160e560020a62461bcd02815260206004820152601660248201527f4c6f7420696e6465782063616e6e6f7420626520302e00000000000000000000604482015260640161038d565b33600090815260086020526040902054156104ac5760405160e560020a62461bcd02815260206004820152601760248201527f596f752061726520616c7265616479207061726b65642e000000000000000000604482015260640161038d565b600454820361053d573360009081526005602052604090205460ff1661053d5760405160e560020a62461bcd02815260206004820152602560248201527f4f6e6c792073746166662063616e207061726b20696e2074686520737461666660448201527f206c6f742e000000000000000000000000000000000000000000000000000000606482015260840161038d565b600154600160a060020a03166379cc67903361055885610c8c565b6040517c010000000000000000000000000000000000000000000000000000000063ffffffff8516028152600160a060020a0390921660048301526024820152604401600060405180830381600087803b1580156105b557600080fd5b505af11580156105c9573d6000803e3d6000fd5b50505050600a82815481106105e0576105e0610f60565b600091825260208220018054916105f683610f92565b90915550503360008181526008602052604090819020849055517fcddbea0c092495e8718375ec92f5371831dcfb5bfe86a2645e974bb42ad997a79061063f9085815260200190565b60405180910390a25050565b6060600980548060200260200160405190810160405280929190818152602001828054801561069957602002820191906000526020600020905b815481526020019060010190808311610685575b5050505050905090565b600054600160a060020a031633146106d05760405160e560020a62461bcd02815260040161038d90610fab565b6040513390303180156108fc02916000818181858888f193505050501580156106fd573d6000803e3d6000fd5b50565b3360009081526006602052604081205490036107875760405160e560020a62461bcd02815260206004820152603b60248201527f596f75206d7573742068617665207061726b656420616e64206c65667420617460448201527f206c65617374206f6e6365206265666f726520636c61696d696e670000000000606482015260840161038d565b60006107923361096c565b9050600081116107e75760405160e560020a62461bcd02815260206004820152601a60248201527f596f752068617665206e6f7468696e6720746f20636c61696d2e000000000000604482015260640161038d565b336000818152600660209081526040808320429055600790915281205561080e9082610d1a565b60405181815233907fd8138f8a3f377c5259ca548e70e4c2de94f129f5a11036a15b69513cba2b426a906020015b60405180910390a250565b600054600160a060020a031633146108745760405160e560020a62461bcd02815260040161038d90610fab565b8051610887906009906020840190610d9d565b5050565b6009818154811061089b57600080fd5b600091825260209091200154905081565b600054600160a060020a031633146108d95760405160e560020a62461bcd02815260040161038d90610fab565b6000805473ffffffffffffffffffffffffffffffffffffffff1916600160a060020a0392909216919091179055565b600054600160a060020a031633146109355760405160e560020a62461bcd02815260040161038d90610fab565b600255565b600054600160a060020a031633146109675760405160e560020a62461bcd02815260040161038d90610fab565b600355565b600160a060020a03811660009081526006602052604081205480820361099a57610997603c42611008565b90505b6000603c6109a88342611008565b6109b2919061101b565b90508015806109d85750600160a060020a03841660009081526007602052604090205481105b156109e7575060009392505050565b600354600160a060020a038516600090815260076020526040902054610a0d9083611008565b610a179190611040565b949350505050565b600a818154811061089b57600080fd5b600054600160a060020a03163314610a5c5760405160e560020a62461bcd02815260040161038d90610fab565b600160a060020a03166000908152600560205260409020805460ff19166001179055565b336000908152600860205260408120549003610ae15760405160e560020a62461bcd02815260206004820152601360248201527f596f7520617265206e6f74207061726b65642e00000000000000000000000000604482015260640161038d565b336000908152600660205260408120549003610b0a573360009081526006602052604090204290555b336000908152600860209081526040808320546007909252822080549192610b3183610f92565b9190505550600a8181548110610b4957610b49610f60565b60009182526020822001805491610b5f83611057565b90915550503360008181526008602052604080822091909155517faf65ecdc8a0d3ea90c8344c89e7001864fddf59dfdf41da2994463fe99049a599061083c9084815260200190565b6060600a8054806020026020016040519081016040528092919081815260200182805480156106995760200282019190600052602060002090815481526020019060010190808311610685575050505050905090565b6001546040517f70a08231000000000000000000000000000000000000000000000000000000008152600160a060020a03838116600483015260009216906370a0823190602401602060405180830381865afa158015610c62573d6000803e3d6000fd5b505050506040513d601f19601f82011682018060405250810190610c86919061106e565b92915050565b6000600a8281548110610ca157610ca1610f60565b9060005260206000200154600003610cbb57506000919050565b60098281548110610cce57610cce610f60565b9060005260206000200154600a8381548110610cec57610cec610f60565b90600052602060002001546001610d039190611087565b600254610d109190611040565b610c86919061101b565b6001546040517f40c10f19000000000000000000000000000000000000000000000000000000008152600160a060020a03848116600483015260248201849052909116906340c10f1990604401600060405180830381600087803b158015610d8157600080fd5b505af1158015610d95573d6000803e3d6000fd5b505050505050565b828054828255906000526020600020908101928215610dd8579160200282015b82811115610dd8578251825591602001919060010190610dbd565b50610de4929150610de8565b5090565b5b80821115610de45760008155600101610de9565b600060208284031215610e0f57600080fd5b8135600160a060020a0381168114610e2657600080fd5b9392505050565b600060208284031215610e3f57600080fd5b5035919050565b6020808252825182820181905260009190848201906040850190845b81811015610e7e57835183529284019291840191600101610e62565b50909695505050505050565b60e060020a634e487b7102600052604160045260246000fd5b60006020808385031215610eb657600080fd5b823567ffffffffffffffff80821115610ece57600080fd5b818501915085601f830112610ee257600080fd5b813581811115610ef457610ef4610e8a565b838102604051601f19603f83011681018181108582111715610f1857610f18610e8a565b604052918252848201925083810185019188831115610f3657600080fd5b938501935b82851015610f5457843584529385019392850192610f3b565b98975050505050505050565b60e060020a634e487b7102600052603260045260246000fd5b60e060020a634e487b7102600052601160045260246000fd5b600060018201610fa457610fa4610f79565b5060010190565b60208082526022908201527f4f6e6c792061646d696e2063616e2063616c6c20746869732066756e6374696f60408201527f6e2e000000000000000000000000000000000000000000000000000000000000606082015260800190565b81810381811115610c8657610c86610f79565b60008261103b5760e060020a634e487b7102600052601260045260246000fd5b500490565b8082028115828204841417610c8657610c86610f79565b60008161106657611066610f79565b506000190190565b60006020828403121561108057600080fd5b5051919050565b80820180821115610c8657610c86610f7956fea264697066735822122036618b1dcb52b9df729ed041228bd357def80f8d811fa225db9b47ceec933ecf64736f6c63430008110033",
  "immutableReferences": {},
  "source": "// SPDX-License-Identifier: MIT\npragma solidity >=0.4.22 <0.9.0;\n\n// import IERC20 from openzeppelin\nimport \"@openzeppelin/contracts/token/ERC20/IERC20.sol\";\n\nabstract contract IUBPC is IERC20 {\n  function mint(address account, uint256 amount) public virtual;\n  function claim_airdrop() public virtual;\n  function setChainPark(address _chainParkAddr) public virtual;\n  function burn(uint amount) public virtual;\n  function burnFrom(address account, uint amount) public virtual;\n}\n\ncontract ChainPark  {\n\n  // In reality this would be set to 1 day, but for testing purposes we set it to 1 minute\n  uint public constant CLAIM_WAIT_PERIOD = 1 minutes; // 1 day\n  // We dont want to wait days to be able to test claim, so we set it to 1 minute\n\n  address admin;\n  address public UBPC_CONTRACT; // address of the UBParkingCredits contract\n\n  uint public maxFee; // the cost to park if you are the last person to park\n  uint public dailyIncome; // the amount you will earn if you do not park for a day\n  \n  uint staffLot; // lotIndex of lot that is reserved for staff\n  mapping(address=>bool) staff;\n\n  mapping(address=>uint) public lastClaimed; // timestamp\n  mapping(address=>uint) parksSinceClaim;\n\n  mapping(address=>uint) public currentlyParked; // 0 if not parked, otherwise lotIndex\n\n  uint[] public lotMaxCapacities; // index 0 is not used. Lots are 1-indexed so that 0 can be used to represent not parked\n  uint[] public lotCurrentCapacities;\n\n\n  event Parked(address indexed user, uint lotIndex);\n  event Left(address indexed user, uint lotIndex);\n  event Claimed(address indexed user, uint amount);\n\n  modifier onlyAdmin() {\n    require(msg.sender == admin, \"Only admin can call this function.\");\n    _;\n  }\n\n  modifier notFull(uint lotIndex) {\n    require(lotCurrentCapacities[lotIndex] < lotMaxCapacities[lotIndex], \"Lot is full.\");\n    _;\n  }\n\n  constructor(uint[] memory _lotMaxCapacities, address _ubpcContractAddr, uint256 _maxFee, uint _dailyIncome, uint _staffLot) {\n    admin = msg.sender;\n    lotMaxCapacities = _lotMaxCapacities;\n    lotCurrentCapacities = new uint[](_lotMaxCapacities.length);\n    UBPC_CONTRACT = _ubpcContractAddr;\n    maxFee = _maxFee;\n    dailyIncome = _dailyIncome;\n    staffLot = _staffLot;\n  }\n\n\n  function getFee(uint lotIndex) public view returns (uint) {\n    if (lotCurrentCapacities[lotIndex] == 0) {\n      return 0; // free to park if no one is parked\n    }\n    return maxFee * (lotCurrentCapacities[lotIndex] + 1) / lotMaxCapacities[lotIndex];\n  }\n\n  function park(uint lotIndex) public notFull(lotIndex) {\n    require(checkUBPCBalance(msg.sender) >= getFee(lotIndex), \"Insufficient UBPC.\");\n    require(lotIndex != 0, \"Lot index cannot be 0.\");\n    require(currentlyParked[msg.sender] == 0, \"You are already parked.\");\n\n    if (lotIndex == staffLot) {\n      require(staff[msg.sender], \"Only staff can park in the staff lot.\");\n    }\n\n    IUBPC(UBPC_CONTRACT).burnFrom(msg.sender, getFee(lotIndex));\n\n    lotCurrentCapacities[lotIndex]++;\n    currentlyParked[msg.sender] = lotIndex;\n    emit Parked(msg.sender, lotIndex);\n  }\n\n\n  function leave() public {\n    require(currentlyParked[msg.sender] != 0, \"You are not parked.\");\n    if (lastClaimed[msg.sender] == 0) {\n      lastClaimed[msg.sender] = block.timestamp;\n    }\n    uint lotIndex = currentlyParked[msg.sender];\n    parksSinceClaim[msg.sender]++;\n    lotCurrentCapacities[lotIndex]--;\n    currentlyParked[msg.sender] = 0;\n    emit Left(msg.sender, lotIndex);\n  }\n\n  function claim() public {\n    require(lastClaimed[msg.sender] != 0, \"You must have parked and left at least once before claiming\");\n    uint amount = getClaimAmmount(msg.sender);\n    require(amount > 0, \"You have nothing to claim.\");\n    lastClaimed[msg.sender] = block.timestamp;\n    parksSinceClaim[msg.sender] = 0;\n    mintUBPC(msg.sender, amount); // call mint function of UBPC contract\n    emit Claimed(msg.sender, amount);\n  }\n\n  function getClaimAmmount(address user) public view returns (uint) {\n\n    uint usersLastClaimTime = lastClaimed[user];\n\n    if (usersLastClaimTime == 0) { // if user has never claimed, let them claim one periods worth\n      usersLastClaimTime = block.timestamp - CLAIM_WAIT_PERIOD;\n    }\n\n    uint periodsSinceClaim = (block.timestamp - usersLastClaimTime) / CLAIM_WAIT_PERIOD;\n\n    if (periodsSinceClaim == 0 || periodsSinceClaim < parksSinceClaim[user]) {\n      return 0;\n    }\n\n    return (periodsSinceClaim - parksSinceClaim[user]) * dailyIncome;\n  }\n\n  function checkUBPCBalance(address user) public view returns (uint) {\n    return IUBPC(UBPC_CONTRACT).balanceOf(user);\n  }\n\n  function mintUBPC(address account, uint256 amount) internal {\n    IUBPC(UBPC_CONTRACT).mint(account, amount);\n  }\n\n  function withdraw() public onlyAdmin {\n    payable(msg.sender).transfer(address(this).balance);\n  }\n\n  function getLotMaxCapacities() public view returns (uint[] memory) {\n    return lotMaxCapacities;\n  }\n\n  function getLotCurrentCapacities() public view returns (uint[] memory) {\n    return lotCurrentCapacities;\n  }\n\n  function setMaxCapacities(uint[] memory _lotMaxCapacities) public onlyAdmin {\n    lotMaxCapacities = _lotMaxCapacities;\n  }\n\n  function setMaxFee(uint256 _maxFee) public onlyAdmin {\n    maxFee = _maxFee;\n  }\n\n  function setDailyIncome(uint _dailyIncome) public onlyAdmin {\n    dailyIncome = _dailyIncome;\n  }\n\n  function setStaff(address _staffAddr) public onlyAdmin {\n    staff[_staffAddr] = true;\n  }\n\n  function setAdmin(address _newAdmin) public onlyAdmin {\n    admin = _newAdmin;\n  }\n}\n",
  "sourcePath": "/home/sib/eth/UB-Chain-Park/truffle/contracts/ChainPark.sol",
  "compiler": {
    "name": "solc",
    "version": "0.8.17+commit.8df45f5f.Emscripten.clang"
  },
  "schemaVersion": "3.4.10",
  "updatedAt": "2022-12-09T01:08:59.657Z",
  "networkType": "ethereum",
  "devdoc": {
    "kind": "dev",
    "methods": {},
    "version": 1
  },
  "userdoc": {
    "kind": "user",
    "methods": {},
    "version": 1
  }
}