{
  "contractName": "ChainPark",
  "abi": [
    {
      "inputs": [
        {
          "internalType": "uint256[]",
          "name": "_lotMaxCapacities",
          "type": "uint256[]"
        },
        {
          "internalType": "enum ChainPark.lotType[]",
          "name": "_lotTypes",
          "type": "uint8[]"
        },
        {
          "internalType": "uint256",
          "name": "_maxFee",
          "type": "uint256"
        },
        {
          "internalType": "uint256",
          "name": "_dailyIncome",
          "type": "uint256"
        }
      ],
      "stateMutability": "nonpayable",
      "type": "constructor"
    },
    {
      "anonymous": false,
      "inputs": [
        {
          "indexed": true,
          "internalType": "address",
          "name": "user",
          "type": "address"
        },
        {
          "indexed": false,
          "internalType": "uint256",
          "name": "amount",
          "type": "uint256"
        }
      ],
      "name": "Claimed",
      "type": "event"
    },
    {
      "anonymous": false,
      "inputs": [
        {
          "indexed": true,
          "internalType": "address",
          "name": "user",
          "type": "address"
        },
        {
          "indexed": false,
          "internalType": "uint256",
          "name": "lotIndex",
          "type": "uint256"
        }
      ],
      "name": "Left",
      "type": "event"
    },
    {
      "anonymous": false,
      "inputs": [
        {
          "indexed": true,
          "internalType": "address",
          "name": "user",
          "type": "address"
        },
        {
          "indexed": false,
          "internalType": "uint256",
          "name": "lotIndex",
          "type": "uint256"
        }
      ],
      "name": "Parked",
      "type": "event"
    },
    {
      "inputs": [
        {
          "internalType": "uint256",
          "name": "",
          "type": "uint256"
        }
      ],
      "name": "lotCurrentCapacities",
      "outputs": [
        {
          "internalType": "uint256",
          "name": "",
          "type": "uint256"
        }
      ],
      "stateMutability": "view",
      "type": "function",
      "constant": true
    },
    {
      "inputs": [
        {
          "internalType": "uint256",
          "name": "",
          "type": "uint256"
        }
      ],
      "name": "lotMaxCapacities",
      "outputs": [
        {
          "internalType": "uint256",
          "name": "",
          "type": "uint256"
        }
      ],
      "stateMutability": "view",
      "type": "function",
      "constant": true
    },
    {
      "inputs": [],
      "name": "maxFee",
      "outputs": [
        {
          "internalType": "uint256",
          "name": "",
          "type": "uint256"
        }
      ],
      "stateMutability": "view",
      "type": "function",
      "constant": true
    },
    {
      "inputs": [
        {
          "internalType": "uint256[]",
          "name": "_lotMaxCapacities",
          "type": "uint256[]"
        }
      ],
      "name": "setMaxCapacities",
      "outputs": [],
      "stateMutability": "nonpayable",
      "type": "function"
    },
    {
      "inputs": [
        {
          "internalType": "enum ChainPark.lotType[]",
          "name": "_lotTypes",
          "type": "uint8[]"
        }
      ],
      "name": "setLotTypes",
      "outputs": [],
      "stateMutability": "nonpayable",
      "type": "function"
    },
    {
      "inputs": [
        {
          "internalType": "uint256",
          "name": "_maxFee",
          "type": "uint256"
        }
      ],
      "name": "setMaxFee",
      "outputs": [],
      "stateMutability": "nonpayable",
      "type": "function"
    },
    {
      "inputs": [
        {
          "internalType": "uint256",
          "name": "_dailyIncome",
          "type": "uint256"
        }
      ],
      "name": "setDailyIncome",
      "outputs": [],
      "stateMutability": "nonpayable",
      "type": "function"
    },
    {
      "inputs": [
        {
          "internalType": "uint256",
          "name": "lotIndex",
          "type": "uint256"
        }
      ],
      "name": "getFee",
      "outputs": [
        {
          "internalType": "uint256",
          "name": "",
          "type": "uint256"
        }
      ],
      "stateMutability": "view",
      "type": "function",
      "constant": true
    },
    {
      "inputs": [
        {
          "internalType": "uint256",
          "name": "lotIndex",
          "type": "uint256"
        }
      ],
      "name": "park",
      "outputs": [],
      "stateMutability": "payable",
      "type": "function",
      "payable": true
    },
    {
      "inputs": [],
      "name": "leave",
      "outputs": [],
      "stateMutability": "nonpayable",
      "type": "function"
    },
    {
      "inputs": [],
      "name": "claim",
      "outputs": [],
      "stateMutability": "nonpayable",
      "type": "function"
    }
  ],
  "bytecode": "0x60806040523480156200001157600080fd5b506040516200121e3803806200121e8339810160408190526200003491620002fc565b600182905560008054600160a060020a03191633179055825162000060906009906020860190620000e2565b50835162000076906007906020870190620001a0565b5083516001604060020a03811115620000935762000093620001f5565b604051908082528060200260200182016040528015620000bd578160200160208202803683370190505b508051620000d491600891602090910190620001a0565b5060025550620003ff915050565b82805482825590600052602060002090601f016020900481019282156200018e5791602002820160005b838211156200015d57835183826101000a81548160ff021916908360028111156200013b576200013b620003d0565b021790555092602001926001016020816000010492830192600103026200010c565b80156200018c5782816101000a81549060ff02191690556001016020816000010492830192600103026200015d565b505b506200019c929150620001de565b5090565b8280548282559060005260206000209081019282156200018e579160200282015b828111156200018e578251825591602001919060010190620001c1565b5b808211156200019c5760008155600101620001df565b7f4e487b7100000000000000000000000000000000000000000000000000000000600052604160045260246000fd5b604051601f8201601f191681016001604060020a03811182821017156200024f576200024f620001f5565b604052919050565b60006001604060020a03821115620002735762000273620001f5565b5060209081020190565b600082601f8301126200028f57600080fd5b81516020620002a8620002a28362000257565b62000224565b82815291810284018101918181019086841115620002c557600080fd5b8286015b84811015620002f157805160038110620002e35760008081fd5b8352918301918301620002c9565b509695505050505050565b600080600080608085870312156200031357600080fd5b84516001604060020a03808211156200032b57600080fd5b818701915087601f8301126200034057600080fd5b8151602062000353620002a28362000257565b8281529181028401810191818101908b8411156200037057600080fd5b948201945b83861015620003905785518252948201949082019062000375565b918a0151919850909350505080821115620003aa57600080fd5b50620003b9878288016200027d565b604087015160609097015195989097509350505050565b7f4e487b7100000000000000000000000000000000000000000000000000000000600052602160045260246000fd5b610e0f806200040f6000396000f3fe6080604052600436106100b9576000357c0100000000000000000000000000000000000000000000000000000000900480636c041462116100815780636c04146214610150578063710e5d2f1461017057806383f4eb6314610190578063c564b627146101b0578063d66d9e19146101d0578063fcee45f4146101e557600080fd5b806301f59d16146100be57806307afe492146100e65780634e71d92d146100fb57806354be8be614610110578063628310b314610130575b600080fd5b3480156100ca57600080fd5b506100d460015481565b60405190815260200160405180910390f35b6100f96100f4366004610af4565b610205565b005b34801561010757600080fd5b506100f96103b6565b34801561011c57600080fd5b506100f961012b366004610b7b565b6104f4565b34801561013c57600080fd5b506100d461014b366004610af4565b610541565b34801561015c57600080fd5b506100f961016b366004610c0e565b610562565b34801561017c57600080fd5b506100f961018b366004610af4565b6105af565b34801561019c57600080fd5b506100f96101ab366004610af4565b6105ee565b3480156101bc57600080fd5b506100d46101cb366004610af4565b61062d565b3480156101dc57600080fd5b506100f961063d565b3480156101f157600080fd5b506100d4610200366004610af4565b61072f565b806007818154811061021957610219610c9f565b90600052602060002001546008828154811061023757610237610c9f565b9060005260206000200154106102975760405160e560020a62461bcd02815260206004820152600c60248201527f4c6f742069732066756c6c2e000000000000000000000000000000000000000060448201526064015b60405180910390fd5b6102a08261072f565b3410156102f25760405160e560020a62461bcd02815260206004820152601360248201527f496e73756666696369656e742066756e64732e00000000000000000000000000604482015260640161028e565b33600090815260066020526040902054600019146103555760405160e560020a62461bcd02815260206004820152601760248201527f596f752061726520616c7265616479207061726b65642e000000000000000000604482015260640161028e565b60006009838154811061036a5761036a610c9f565b90600052602060002090602091828204019190069054906101000a900460ff16600281111561039b5761039b610cb8565b036103ad576103a9826107c3565b5050565b6103a982610953565b3360009081526004602052604081205462015180906103d59042610cea565b6103df9190610cfd565b3360009081526005602052604090205490915081116104435760405160e560020a62461bcd02815260206004820152601e60248201527f596f752068617665206e6f74207061726b656420666f722061206461792e0000604482015260640161028e565b600254336000908152600560205260408120549091906104639084610cea565b61046d9190610d22565b336000818152600460209081526040808320429055600590915280822082905551929350909183156108fc0291849190818181858888f193505050501580156104ba573d6000803e3d6000fd5b5060405181815233907fd8138f8a3f377c5259ca548e70e4c2de94f129f5a11036a15b69513cba2b426a9060200160405180910390a25050565b60005473ffffffffffffffffffffffffffffffffffffffff16331461052e5760405160e560020a62461bcd02815260040161028e90610d39565b80516103a99060079060208401906109e9565b6007818154811061055157600080fd5b600091825260209091200154905081565b60005473ffffffffffffffffffffffffffffffffffffffff16331461059c5760405160e560020a62461bcd02815260040161028e90610d39565b80516103a9906009906020840190610a34565b60005473ffffffffffffffffffffffffffffffffffffffff1633146105e95760405160e560020a62461bcd02815260040161028e90610d39565b600155565b60005473ffffffffffffffffffffffffffffffffffffffff1633146106285760405160e560020a62461bcd02815260040161028e90610d39565b600255565b6008818154811061055157600080fd5b3360009081526006602052604090205460010161069f5760405160e560020a62461bcd02815260206004820152601360248201527f596f7520617265206e6f74207061726b65642e00000000000000000000000000604482015260640161028e565b3360009081526006602052604090205460088054829081106106c3576106c3610c9f565b600091825260208220018054916106d983610d96565b909155505033600081815260066020526040908190206000199055517faf65ecdc8a0d3ea90c8344c89e7001864fddf59dfdf41da2994463fe99049a59906107249084815260200190565b60405180910390a250565b60006008828154811061074457610744610c9f565b906000526020600020015460000361075e57506000919050565b6007828154811061077157610771610c9f565b90600052602060002001546008838154811061078f5761078f610c9f565b906000526020600020015460016107a69190610dad565b6001546107b39190610d22565b6107bd9190610cfd565b92915050565b3360009081526003602052604090205460ff1661084b5760405160e560020a62461bcd02815260206004820152602260248201527f4f6e6c792073746166662063616e2063616c6c20746869732066756e6374696f60448201527f6e2e000000000000000000000000000000000000000000000000000000000000606482015260840161028e565b60016009828154811061086057610860610c9f565b90600052602060002090602091828204019190069054906101000a900460ff16600281111561089157610891610cb8565b036108e15760405160e560020a62461bcd02815260206004820152601e60248201527f54686973206c6f7420697320666f722073747564656e7473206f6e6c792e0000604482015260640161028e565b600881815481106108f4576108f4610c9f565b6000918252602082200180549161090a83610dc0565b90915550503360008181526006602052604090819020839055517fcddbea0c092495e8718375ec92f5371831dcfb5bfe86a2645e974bb42ad997a7906107249084815260200190565b60006009828154811061096857610968610c9f565b90600052602060002090602091828204019190069054906101000a900460ff16600281111561099957610999610cb8565b036108e15760405160e560020a62461bcd02815260206004820152601b60248201527f54686973206c6f7420697320666f72207374616666206f6e6c792e0000000000604482015260640161028e565b828054828255906000526020600020908101928215610a24579160200282015b82811115610a24578251825591602001919060010190610a09565b50610a30929150610adf565b5090565b82805482825590600052602060002090601f01602090048101928215610a245791602002820160005b83821115610aa957835183826101000a81548160ff02191690836002811115610a8857610a88610cb8565b02179055509260200192600101602081600001049283019260010302610a5d565b8015610ad65782816101000a81549060ff0219169055600101602081600001049283019260010302610aa9565b5050610a309291505b5b80821115610a305760008155600101610ae0565b600060208284031215610b0657600080fd5b5035919050565b60e060020a634e487b7102600052604160045260246000fd5b604051601f8201601f1916810167ffffffffffffffff81118282101715610b4f57610b4f610b0d565b604052919050565b600067ffffffffffffffff821115610b7157610b71610b0d565b5060209081020190565b60006020808385031215610b8e57600080fd5b823567ffffffffffffffff811115610ba557600080fd5b8301601f81018513610bb657600080fd5b8035610bc9610bc482610b57565b610b26565b81815290830282018301908381019087831115610be557600080fd5b928401925b82841015610c0357833582529284019290840190610bea565b979650505050505050565b60006020808385031215610c2157600080fd5b823567ffffffffffffffff811115610c3857600080fd5b8301601f81018513610c4957600080fd5b8035610c57610bc482610b57565b81815290830282018301908381019087831115610c7357600080fd5b928401925b82841015610c0357833560038110610c905760008081fd5b82529284019290840190610c78565b60e060020a634e487b7102600052603260045260246000fd5b60e060020a634e487b7102600052602160045260246000fd5b60e060020a634e487b7102600052601160045260246000fd5b818103818111156107bd576107bd610cd1565b600082610d1d5760e060020a634e487b7102600052601260045260246000fd5b500490565b80820281158282048414176107bd576107bd610cd1565b60208082526022908201527f4f6e6c792061646d696e2063616e2063616c6c20746869732066756e6374696f60408201527f6e2e000000000000000000000000000000000000000000000000000000000000606082015260800190565b600081610da557610da5610cd1565b506000190190565b808201808211156107bd576107bd610cd1565b600060018201610dd257610dd2610cd1565b506001019056fea26469706673582212206951cdffbcd75c8331ce573461922a06aefef077e05c6d10151bd280e94b6f6864736f6c63430008110033",
  "immutableReferences": {},
  "source": "// SPDX-License-Identifier: MIT\npragma solidity >=0.4.22 <0.9.0;\n\ncontract ChainPark {\n  address admin;\n  uint256 public maxFee; // the cost to park if you are the last person to park\n  uint dailyIncome; // the amount you will earn if you do not park for a day\n  uint constant NOT_PARKED = 2**256 - 1; // use max uint to represent not parked\n  mapping(address=>bool) staff;\n  mapping(address=>uint) lastClaimed; // timestamp\n  mapping(address=>uint) parksSinceClaim;\n  mapping(address=>uint) currentlyParked; // NOT_PARKED if not parked, otherwise lotIndex\n  uint[] public lotMaxCapacities;\n  uint[] public lotCurrentCapacities;\n  enum lotType {Staff, Student, Both}\n  lotType[] lotTypes;\n\n  event Parked(address indexed user, uint lotIndex);\n  event Left(address indexed user, uint lotIndex);\n  event Claimed(address indexed user, uint amount);\n\n  modifier onlyAdmin() {\n    require(msg.sender == admin, \"Only admin can call this function.\");\n    _;\n  }\n\n  modifier onlyStaff() {\n    require(staff[msg.sender], \"Only staff can call this function.\");\n    _;\n  }\n\n  modifier notFull(uint lotIndex) {\n    require(lotCurrentCapacities[lotIndex] < lotMaxCapacities[lotIndex], \"Lot is full.\");\n    _;\n  }\n\n  constructor(uint[] memory _lotMaxCapacities, lotType[] memory _lotTypes, uint256 _maxFee, uint _dailyIncome) {\n    maxFee = _maxFee;\n    admin = msg.sender;\n    lotTypes = _lotTypes;\n    lotMaxCapacities = _lotMaxCapacities;\n    lotCurrentCapacities = new uint[](_lotMaxCapacities.length);\n    dailyIncome = _dailyIncome;\n  }\n\n  function setMaxCapacities(uint[] memory _lotMaxCapacities) public onlyAdmin {\n    lotMaxCapacities = _lotMaxCapacities;\n  }\n\n  function setLotTypes(lotType[] memory _lotTypes) public onlyAdmin {\n    lotTypes = _lotTypes;\n  }\n\n  function setMaxFee(uint256 _maxFee) public onlyAdmin {\n    maxFee = _maxFee;\n  }\n\n  function setDailyIncome(uint _dailyIncome) public onlyAdmin {\n    dailyIncome = _dailyIncome;\n  }\n\n  function getFee(uint lotIndex) public view returns (uint) {\n    if (lotCurrentCapacities[lotIndex] == 0) {\n      return 0;\n    }\n    return maxFee * (lotCurrentCapacities[lotIndex] + 1) / lotMaxCapacities[lotIndex];\n  }\n\n  function park(uint lotIndex) public payable notFull(lotIndex) {\n    require(msg.value >= getFee(lotIndex), \"Insufficient funds.\");\n    require(currentlyParked[msg.sender] == NOT_PARKED, \"You are already parked.\");\n    if (lotTypes[lotIndex] == lotType.Staff) {\n      parkStaff(lotIndex);\n    } else {\n      parkStudent(lotIndex);\n    }\n  }\n\n  function parkStudent(uint lotIndex) private {\n    require(lotTypes[lotIndex] != lotType.Staff, \"This lot is for staff only.\");\n    lotCurrentCapacities[lotIndex]++;\n    currentlyParked[msg.sender] = lotIndex;\n    emit Parked(msg.sender, lotIndex);\n  }\n\n  function parkStaff(uint lotIndex) private onlyStaff {\n    require(lotTypes[lotIndex] != lotType.Student, \"This lot is for students only.\");\n    lotCurrentCapacities[lotIndex]++;\n    currentlyParked[msg.sender] = lotIndex;\n    emit Parked(msg.sender, lotIndex);\n  }\n\n  function leave() public {\n    require(currentlyParked[msg.sender] != NOT_PARKED, \"You are not parked.\");\n    uint lotIndex = uint(currentlyParked[msg.sender]);\n    lotCurrentCapacities[lotIndex]--;\n    currentlyParked[msg.sender] = NOT_PARKED;\n    emit Left(msg.sender, lotIndex);\n  }\n\n  function claim() public {\n    uint daysSinceClaim = (block.timestamp - lastClaimed[msg.sender]) / 1 days;\n    require(daysSinceClaim > parksSinceClaim[msg.sender], \"You have not parked for a day.\");\n    uint amount = (daysSinceClaim - parksSinceClaim[msg.sender]) * dailyIncome; // you will not get paid for the days you parked\n    lastClaimed[msg.sender] = block.timestamp;\n    parksSinceClaim[msg.sender] = 0;\n    payable(msg.sender).transfer(amount);\n    emit Claimed(msg.sender, amount);\n  }\n}\n",
  "sourcePath": "/home/sib/eth/UB-Chain-Park/truffle/contracts/ChainPark.sol",
  "compiler": {
    "name": "solc",
    "version": "0.8.17+commit.8df45f5f.Emscripten.clang"
  },
  "schemaVersion": "3.4.10",
  "updatedAt": "2022-10-28T00:24:05.470Z",
  "networkType": "ethereum",
  "devdoc": {
    "kind": "dev",
    "methods": {},
    "version": 1
  },
  "userdoc": {
    "kind": "user",
    "methods": {},
    "version": 1
  }
}