{
  "contractName": "ChainPark",
  "abi": [
    {
      "inputs": [
        {
          "internalType": "uint256[]",
          "name": "_lotMaxCapacities",
          "type": "uint256[]"
        },
        {
          "internalType": "address",
          "name": "_ubpcContractAddr",
          "type": "address"
        },
        {
          "internalType": "uint256",
          "name": "_maxFee",
          "type": "uint256"
        },
        {
          "internalType": "uint256",
          "name": "_dailyIncome",
          "type": "uint256"
        }
      ],
      "stateMutability": "nonpayable",
      "type": "constructor"
    },
    {
      "anonymous": false,
      "inputs": [
        {
          "indexed": true,
          "internalType": "address",
          "name": "user",
          "type": "address"
        },
        {
          "indexed": false,
          "internalType": "uint256",
          "name": "amount",
          "type": "uint256"
        }
      ],
      "name": "Claimed",
      "type": "event"
    },
    {
      "anonymous": false,
      "inputs": [
        {
          "indexed": true,
          "internalType": "address",
          "name": "user",
          "type": "address"
        },
        {
          "indexed": false,
          "internalType": "uint256",
          "name": "lotIndex",
          "type": "uint256"
        }
      ],
      "name": "Left",
      "type": "event"
    },
    {
      "anonymous": false,
      "inputs": [
        {
          "indexed": true,
          "internalType": "address",
          "name": "user",
          "type": "address"
        },
        {
          "indexed": false,
          "internalType": "uint256",
          "name": "lotIndex",
          "type": "uint256"
        }
      ],
      "name": "Parked",
      "type": "event"
    },
    {
      "inputs": [
        {
          "internalType": "address",
          "name": "",
          "type": "address"
        }
      ],
      "name": "currentlyParked",
      "outputs": [
        {
          "internalType": "uint256",
          "name": "",
          "type": "uint256"
        }
      ],
      "stateMutability": "view",
      "type": "function",
      "constant": true
    },
    {
      "inputs": [
        {
          "internalType": "uint256",
          "name": "",
          "type": "uint256"
        }
      ],
      "name": "lotCurrentCapacities",
      "outputs": [
        {
          "internalType": "uint256",
          "name": "",
          "type": "uint256"
        }
      ],
      "stateMutability": "view",
      "type": "function",
      "constant": true
    },
    {
      "inputs": [
        {
          "internalType": "uint256",
          "name": "",
          "type": "uint256"
        }
      ],
      "name": "lotMaxCapacities",
      "outputs": [
        {
          "internalType": "uint256",
          "name": "",
          "type": "uint256"
        }
      ],
      "stateMutability": "view",
      "type": "function",
      "constant": true
    },
    {
      "inputs": [],
      "name": "maxFee",
      "outputs": [
        {
          "internalType": "uint256",
          "name": "",
          "type": "uint256"
        }
      ],
      "stateMutability": "view",
      "type": "function",
      "constant": true
    },
    {
      "inputs": [
        {
          "internalType": "uint256",
          "name": "lotIndex",
          "type": "uint256"
        }
      ],
      "name": "getFee",
      "outputs": [
        {
          "internalType": "uint256",
          "name": "",
          "type": "uint256"
        }
      ],
      "stateMutability": "view",
      "type": "function",
      "constant": true
    },
    {
      "inputs": [
        {
          "internalType": "uint256",
          "name": "lotIndex",
          "type": "uint256"
        }
      ],
      "name": "park",
      "outputs": [],
      "stateMutability": "payable",
      "type": "function",
      "payable": true
    },
    {
      "inputs": [],
      "name": "leave",
      "outputs": [],
      "stateMutability": "nonpayable",
      "type": "function"
    },
    {
      "inputs": [],
      "name": "claim",
      "outputs": [],
      "stateMutability": "nonpayable",
      "type": "function"
    },
    {
      "inputs": [],
      "name": "withdraw",
      "outputs": [],
      "stateMutability": "nonpayable",
      "type": "function"
    },
    {
      "inputs": [],
      "name": "getLotMaxCapacities",
      "outputs": [
        {
          "internalType": "uint256[]",
          "name": "",
          "type": "uint256[]"
        }
      ],
      "stateMutability": "view",
      "type": "function",
      "constant": true
    },
    {
      "inputs": [],
      "name": "getLotCurrentCapacities",
      "outputs": [
        {
          "internalType": "uint256[]",
          "name": "",
          "type": "uint256[]"
        }
      ],
      "stateMutability": "view",
      "type": "function",
      "constant": true
    },
    {
      "inputs": [
        {
          "internalType": "uint256[]",
          "name": "_lotMaxCapacities",
          "type": "uint256[]"
        }
      ],
      "name": "setMaxCapacities",
      "outputs": [],
      "stateMutability": "nonpayable",
      "type": "function"
    },
    {
      "inputs": [
        {
          "internalType": "uint256",
          "name": "_maxFee",
          "type": "uint256"
        }
      ],
      "name": "setMaxFee",
      "outputs": [],
      "stateMutability": "nonpayable",
      "type": "function"
    },
    {
      "inputs": [
        {
          "internalType": "uint256",
          "name": "_dailyIncome",
          "type": "uint256"
        }
      ],
      "name": "setDailyIncome",
      "outputs": [],
      "stateMutability": "nonpayable",
      "type": "function"
    },
    {
      "inputs": [
        {
          "internalType": "address",
          "name": "newAdmin",
          "type": "address"
        }
      ],
      "name": "setAdmin",
      "outputs": [],
      "stateMutability": "nonpayable",
      "type": "function"
    }
  ],
  "bytecode": "0x60806040523480156200001157600080fd5b5060405162000f9438038062000f9483398101604081905262000034916200019b565b60008054600160a060020a0319163317905583516200005b906007906020870190620000e8565b5083516001604060020a038111156200007857620000786200014f565b604051908082528060200260200182016040528015620000a2578160200160208202803683370190505b508051620000b991600891602090910190620000e8565b5060018054600160a060020a031916600160a060020a0394909416939093179092556002556003555062000287565b82805482825590600052602060002090810192821562000126579160200282015b828111156200012657825182559160200191906001019062000109565b506200013492915062000138565b5090565b5b8082111562000134576000815560010162000139565b7f4e487b7100000000000000000000000000000000000000000000000000000000600052604160045260246000fd5b8051600160a060020a03811681146200019657600080fd5b919050565b60008060008060808587031215620001b257600080fd5b84516001604060020a0380821115620001ca57600080fd5b818701915087601f830112620001df57600080fd5b8151602082821115620001f657620001f66200014f565b808202604051601f19603f830116810181811086821117156200021d576200021d6200014f565b60405292835281830193508481018201928b8411156200023c57600080fd5b948201945b838610156200025c5785518552948201949382019362000241565b98506200026d90508982016200017e565b60408a01516060909a0151989b909a509650505050505050565b610cfd80620002976000396000f3fe608060405260043610610105576000357c010000000000000000000000000000000000000000000000000000000090048063628310b3116100a7578063c564b62711610076578063c564b62714610261578063d66d9e1914610281578063ddd15b4c14610296578063fcee45f4146102ab57600080fd5b8063628310b3146101e1578063704b6c0214610201578063710e5d2f1461022157806383f4eb631461024157600080fd5b80633ccfd60b116100e35780633ccfd60b1461016a5780634cc64f801461017f5780634e71d92d146101ac57806354be8be6146101c157600080fd5b806301f59d161461010a57806307afe492146101335780630ae62fe714610148575b600080fd5b34801561011657600080fd5b5061012060025481565b6040519081526020015b60405180910390f35b610146610141366004610a43565b6102cb565b005b34801561015457600080fd5b5061015d6104e9565b60405161012a9190610a5c565b34801561017657600080fd5b50610146610541565b34801561018b57600080fd5b5061012061019a366004610aa0565b60066020526000908152604090205481565b3480156101b857600080fd5b5061014661059e565b3480156101cd57600080fd5b506101466101dc366004610ae9565b6106d5565b3480156101ed57600080fd5b506101206101fc366004610a43565b610719565b34801561020d57600080fd5b5061014661021c366004610aa0565b61073a565b34801561022d57600080fd5b5061014661023c366004610a43565b610796565b34801561024d57600080fd5b5061014661025c366004610a43565b6107c8565b34801561026d57600080fd5b5061012061027c366004610a43565b6107fa565b34801561028d57600080fd5b5061014661080a565b3480156102a257600080fd5b5061015d6108f9565b3480156102b757600080fd5b506101206102c6366004610a43565b61094f565b80600781815481106102df576102df610ba6565b9060005260206000200154600882815481106102fd576102fd610ba6565b90600052602060002001541061035d5760405160e560020a62461bcd02815260206004820152600c60248201527f4c6f742069732066756c6c2e000000000000000000000000000000000000000060448201526064015b60405180910390fd5b6103668261094f565b3410156103b85760405160e560020a62461bcd02815260206004820152601360248201527f496e73756666696369656e742066756e64732e000000000000000000000000006044820152606401610354565b8160000361040b5760405160e560020a62461bcd02815260206004820152601660248201527f4c6f7420696e6465782063616e6e6f7420626520302e000000000000000000006044820152606401610354565b336000908152600660205260409020541561046b5760405160e560020a62461bcd02815260206004820152601760248201527f596f752061726520616c7265616479207061726b65642e0000000000000000006044820152606401610354565b6008828154811061047e5761047e610ba6565b6000918252602082200180549161049483610bd8565b90915550503360008181526006602052604090819020849055517fcddbea0c092495e8718375ec92f5371831dcfb5bfe86a2645e974bb42ad997a7906104dd9085815260200190565b60405180910390a25050565b6060600780548060200260200160405190810160405280929190818152602001828054801561053757602002820191906000526020600020905b815481526020019060010190808311610523575b5050505050905090565b600054600160a060020a0316331461056e5760405160e560020a62461bcd02815260040161035490610bf1565b6040513390303180156108fc02916000818181858888f1935050505015801561059b573d6000803e3d6000fd5b50565b3360009081526004602052604081205462015180906105bd9042610c4e565b6105c79190610c61565b33600090815260056020526040902054909150811161062b5760405160e560020a62461bcd02815260206004820152601e60248201527f596f752068617665206e6f74207061726b656420666f722061206461792e00006044820152606401610354565b6003543360009081526005602052604081205490919061064b9084610c4e565b6106559190610c86565b336000818152600460209081526040808320429055600590915280822082905551929350909183156108fc0291849190818181858888f193505050501580156106a2573d6000803e3d6000fd5b5060405181815233907fd8138f8a3f377c5259ca548e70e4c2de94f129f5a11036a15b69513cba2b426a906020016104dd565b600054600160a060020a031633146107025760405160e560020a62461bcd02815260040161035490610bf1565b80516107159060079060208401906109e3565b5050565b6007818154811061072957600080fd5b600091825260209091200154905081565b600054600160a060020a031633146107675760405160e560020a62461bcd02815260040161035490610bf1565b6000805473ffffffffffffffffffffffffffffffffffffffff1916600160a060020a0392909216919091179055565b600054600160a060020a031633146107c35760405160e560020a62461bcd02815260040161035490610bf1565b600255565b600054600160a060020a031633146107f55760405160e560020a62461bcd02815260040161035490610bf1565b600355565b6008818154811061072957600080fd5b33600090815260066020526040812054900361086b5760405160e560020a62461bcd02815260206004820152601360248201527f596f7520617265206e6f74207061726b65642e000000000000000000000000006044820152606401610354565b33600090815260066020526040902054600880548290811061088f5761088f610ba6565b600091825260208220018054916108a583610c9d565b90915550503360008181526006602052604080822091909155517faf65ecdc8a0d3ea90c8344c89e7001864fddf59dfdf41da2994463fe99049a59906108ee9084815260200190565b60405180910390a250565b606060088054806020026020016040519081016040528092919081815260200182805480156105375760200282019190600052602060002090815481526020019060010190808311610523575050505050905090565b60006008828154811061096457610964610ba6565b906000526020600020015460000361097e57506000919050565b6007828154811061099157610991610ba6565b9060005260206000200154600883815481106109af576109af610ba6565b906000526020600020015460016109c69190610cb4565b6002546109d39190610c86565b6109dd9190610c61565b92915050565b828054828255906000526020600020908101928215610a1e579160200282015b82811115610a1e578251825591602001919060010190610a03565b50610a2a929150610a2e565b5090565b5b80821115610a2a5760008155600101610a2f565b600060208284031215610a5557600080fd5b5035919050565b6020808252825182820181905260009190848201906040850190845b81811015610a9457835183529284019291840191600101610a78565b50909695505050505050565b600060208284031215610ab257600080fd5b8135600160a060020a0381168114610ac957600080fd5b9392505050565b60e060020a634e487b7102600052604160045260246000fd5b60006020808385031215610afc57600080fd5b823567ffffffffffffffff80821115610b1457600080fd5b818501915085601f830112610b2857600080fd5b813581811115610b3a57610b3a610ad0565b838102604051601f19603f83011681018181108582111715610b5e57610b5e610ad0565b604052918252848201925083810185019188831115610b7c57600080fd5b938501935b82851015610b9a57843584529385019392850192610b81565b98975050505050505050565b60e060020a634e487b7102600052603260045260246000fd5b60e060020a634e487b7102600052601160045260246000fd5b600060018201610bea57610bea610bbf565b5060010190565b60208082526022908201527f4f6e6c792061646d696e2063616e2063616c6c20746869732066756e6374696f60408201527f6e2e000000000000000000000000000000000000000000000000000000000000606082015260800190565b818103818111156109dd576109dd610bbf565b600082610c815760e060020a634e487b7102600052601260045260246000fd5b500490565b80820281158282048414176109dd576109dd610bbf565b600081610cac57610cac610bbf565b506000190190565b808201808211156109dd576109dd610bbf56fea264697066735822122097bb77ff4810ebac93110d9b47f47c954d897f938ea52fe57ddfeae2d094506964736f6c63430008110033",
  "immutableReferences": {},
  "source": "// SPDX-License-Identifier: MIT\npragma solidity >=0.4.22 <0.9.0;\n\n// import IERC20 from openzeppelin\nimport \"@openzeppelin/contracts/token/ERC20/IERC20.sol\";\n\ncontract ChainPark {\n  address admin;\n  IERC20 UBPC_CONTRACT;\n  uint256 public maxFee; // the cost to park if you are the last person to park\n  uint dailyIncome; // the amount you will earn if you do not park for a day\n  //uint constant NOT_PARKED = 2**256 - 1; // use max uint to represent not parked\n  // mapping(address=>bool) staff;\n  mapping(address=>uint) lastClaimed; // timestamp\n  mapping(address=>uint) parksSinceClaim;\n  mapping(address=>uint) public currentlyParked; // NOT_PARKED if not parked, otherwise lotIndex\n  uint[] public lotMaxCapacities; // index 0 is not used. Lots are 1-indexed so that 0 can be used to represent not parked\n  uint[] public lotCurrentCapacities;\n  // enum lotType {Staff, Student, Both}\n  // lotType[] lotTypes;\n\n\n  event Parked(address indexed user, uint lotIndex);\n  event Left(address indexed user, uint lotIndex);\n  event Claimed(address indexed user, uint amount);\n\n  modifier onlyAdmin() {\n    require(msg.sender == admin, \"Only admin can call this function.\");\n    _;\n  }\n\n  // modifier onlyStaff() {\n  //   require(staff[msg.sender], \"Only staff can call this function.\");\n  //   _;\n  // }\n\n  modifier notFull(uint lotIndex) {\n    require(lotCurrentCapacities[lotIndex] < lotMaxCapacities[lotIndex], \"Lot is full.\");\n    _;\n  }\n\n  constructor(uint[] memory _lotMaxCapacities, address _ubpcContractAddr, uint256 _maxFee, uint _dailyIncome) {\n    admin = msg.sender;\n    lotMaxCapacities = _lotMaxCapacities;\n    lotCurrentCapacities = new uint[](_lotMaxCapacities.length);\n    UBPC_CONTRACT = IERC20(_ubpcContractAddr);\n    maxFee = _maxFee;\n    dailyIncome = _dailyIncome;\n  }\n\n\n  function getFee(uint lotIndex) public view returns (uint) {\n    if (lotCurrentCapacities[lotIndex] == 0) {\n      return 0;\n    }\n    return maxFee * (lotCurrentCapacities[lotIndex] + 1) / lotMaxCapacities[lotIndex];\n  }\n\n  function park(uint lotIndex) public payable notFull(lotIndex) {\n    require(msg.value >= getFee(lotIndex), \"Insufficient funds.\");\n    require(lotIndex != 0, \"Lot index cannot be 0.\");\n    require(currentlyParked[msg.sender] == 0, \"You are already parked.\");\n\n    // if (lotTypes[lotIndex] == lotType.Staff) {\n    //   parkStaff(lotIndex);\n    // } else {\n    //   parkStudent(lotIndex);\n    // }\n\n    lotCurrentCapacities[lotIndex]++;\n    currentlyParked[msg.sender] = lotIndex;\n    emit Parked(msg.sender, lotIndex);\n  }\n\n  // function parkStudent(uint lotIndex) private {\n  //   require(lotTypes[lotIndex] != lotType.Staff, \"This lot is for staff only.\");\n  //   lotCurrentCapacities[lotIndex]++;\n  //   currentlyParked[msg.sender] = lotIndex;\n  //   emit Parked(msg.sender, lotIndex);\n  // }\n\n  // function parkStaff(uint lotIndex) private onlyStaff {\n  //   require(lotTypes[lotIndex] != lotType.Student, \"This lot is for students only.\");\n  //   lotCurrentCapacities[lotIndex]++;\n  //   currentlyParked[msg.sender] = lotIndex;\n  //   emit Parked(msg.sender, lotIndex);\n  // }\n\n  function leave() public {\n    require(currentlyParked[msg.sender] != 0, \"You are not parked.\");\n    uint lotIndex = uint(currentlyParked[msg.sender]);\n    lotCurrentCapacities[lotIndex]--;\n    currentlyParked[msg.sender] = 0;\n    emit Left(msg.sender, lotIndex);\n  }\n\n  function claim() public { // this will interact with the ERC20 token contract eventualy\n    uint daysSinceClaim = (block.timestamp - lastClaimed[msg.sender]) / 1 days;\n    require(daysSinceClaim > parksSinceClaim[msg.sender], \"You have not parked for a day.\");\n    uint amount = (daysSinceClaim - parksSinceClaim[msg.sender]) * dailyIncome; // you will not get paid for the days you parked\n    lastClaimed[msg.sender] = block.timestamp;\n    parksSinceClaim[msg.sender] = 0;\n    payable(msg.sender).transfer(amount);\n    emit Claimed(msg.sender, amount);\n  }\n\n  function withdraw() public onlyAdmin {\n    payable(msg.sender).transfer(address(this).balance);\n  }\n\n  // function addStaff(address staffMember) public onlyAdmin {\n  //   staff[staffMember] = true;\n  // }\n\n  function getLotMaxCapacities() public view returns (uint[] memory) {\n    return lotMaxCapacities;\n  }\n\n  function getLotCurrentCapacities() public view returns (uint[] memory) {\n    return lotCurrentCapacities;\n  }\n\n  function setMaxCapacities(uint[] memory _lotMaxCapacities) public onlyAdmin {\n    lotMaxCapacities = _lotMaxCapacities;\n  }\n\n  // function setLotTypes(lotType[] memory _lotTypes) public onlyAdmin {\n  //   lotTypes = _lotTypes;\n  // }\n\n  function setMaxFee(uint256 _maxFee) public onlyAdmin {\n    maxFee = _maxFee;\n  }\n\n  function setDailyIncome(uint _dailyIncome) public onlyAdmin {\n    dailyIncome = _dailyIncome;\n  }\n\n  function setAdmin(address newAdmin) public onlyAdmin {\n    admin = newAdmin;\n  }\n}\n",
  "sourcePath": "/home/sib/eth/UB-Chain-Park/truffle/contracts/ChainPark.sol",
  "compiler": {
    "name": "solc",
    "version": "0.8.17+commit.8df45f5f.Emscripten.clang"
  },
  "schemaVersion": "3.4.10",
  "updatedAt": "2022-12-03T00:25:22.982Z",
  "networkType": "ethereum",
  "devdoc": {
    "kind": "dev",
    "methods": {},
    "version": 1
  },
  "userdoc": {
    "kind": "user",
    "methods": {},
    "version": 1
  }
}