{
  "contractName": "ChainPark",
  "abi": [
    {
      "inputs": [
        {
          "internalType": "uint256[]",
          "name": "_lotMaxCapacities",
          "type": "uint256[]"
        },
        {
          "internalType": "enum ChainPark.lotType[]",
          "name": "_lotTypes",
          "type": "uint8[]"
        },
        {
          "internalType": "uint256",
          "name": "_maxFee",
          "type": "uint256"
        },
        {
          "internalType": "uint256",
          "name": "_dailyIncome",
          "type": "uint256"
        }
      ],
      "stateMutability": "nonpayable",
      "type": "constructor"
    },
    {
      "anonymous": false,
      "inputs": [
        {
          "indexed": true,
          "internalType": "address",
          "name": "user",
          "type": "address"
        },
        {
          "indexed": false,
          "internalType": "uint256",
          "name": "amount",
          "type": "uint256"
        }
      ],
      "name": "Claimed",
      "type": "event"
    },
    {
      "anonymous": false,
      "inputs": [
        {
          "indexed": true,
          "internalType": "address",
          "name": "user",
          "type": "address"
        },
        {
          "indexed": false,
          "internalType": "uint256",
          "name": "lotIndex",
          "type": "uint256"
        }
      ],
      "name": "Left",
      "type": "event"
    },
    {
      "anonymous": false,
      "inputs": [
        {
          "indexed": true,
          "internalType": "address",
          "name": "user",
          "type": "address"
        },
        {
          "indexed": false,
          "internalType": "uint256",
          "name": "lotIndex",
          "type": "uint256"
        }
      ],
      "name": "Parked",
      "type": "event"
    },
    {
      "inputs": [
        {
          "internalType": "address",
          "name": "",
          "type": "address"
        }
      ],
      "name": "currentlyParked",
      "outputs": [
        {
          "internalType": "uint256",
          "name": "",
          "type": "uint256"
        }
      ],
      "stateMutability": "view",
      "type": "function",
      "constant": true
    },
    {
      "inputs": [
        {
          "internalType": "uint256",
          "name": "",
          "type": "uint256"
        }
      ],
      "name": "lotCurrentCapacities",
      "outputs": [
        {
          "internalType": "uint256",
          "name": "",
          "type": "uint256"
        }
      ],
      "stateMutability": "view",
      "type": "function",
      "constant": true
    },
    {
      "inputs": [
        {
          "internalType": "uint256",
          "name": "",
          "type": "uint256"
        }
      ],
      "name": "lotMaxCapacities",
      "outputs": [
        {
          "internalType": "uint256",
          "name": "",
          "type": "uint256"
        }
      ],
      "stateMutability": "view",
      "type": "function",
      "constant": true
    },
    {
      "inputs": [],
      "name": "maxFee",
      "outputs": [
        {
          "internalType": "uint256",
          "name": "",
          "type": "uint256"
        }
      ],
      "stateMutability": "view",
      "type": "function",
      "constant": true
    },
    {
      "inputs": [
        {
          "internalType": "uint256",
          "name": "lotIndex",
          "type": "uint256"
        }
      ],
      "name": "getFee",
      "outputs": [
        {
          "internalType": "uint256",
          "name": "",
          "type": "uint256"
        }
      ],
      "stateMutability": "view",
      "type": "function",
      "constant": true
    },
    {
      "inputs": [
        {
          "internalType": "uint256",
          "name": "lotIndex",
          "type": "uint256"
        }
      ],
      "name": "park",
      "outputs": [],
      "stateMutability": "payable",
      "type": "function",
      "payable": true
    },
    {
      "inputs": [],
      "name": "leave",
      "outputs": [],
      "stateMutability": "nonpayable",
      "type": "function"
    },
    {
      "inputs": [],
      "name": "claim",
      "outputs": [],
      "stateMutability": "nonpayable",
      "type": "function"
    },
    {
      "inputs": [],
      "name": "withdraw",
      "outputs": [],
      "stateMutability": "nonpayable",
      "type": "function"
    },
    {
      "inputs": [
        {
          "internalType": "address",
          "name": "staffMember",
          "type": "address"
        }
      ],
      "name": "addStaff",
      "outputs": [],
      "stateMutability": "nonpayable",
      "type": "function"
    },
    {
      "inputs": [
        {
          "internalType": "uint256[]",
          "name": "_lotMaxCapacities",
          "type": "uint256[]"
        }
      ],
      "name": "setMaxCapacities",
      "outputs": [],
      "stateMutability": "nonpayable",
      "type": "function"
    },
    {
      "inputs": [
        {
          "internalType": "enum ChainPark.lotType[]",
          "name": "_lotTypes",
          "type": "uint8[]"
        }
      ],
      "name": "setLotTypes",
      "outputs": [],
      "stateMutability": "nonpayable",
      "type": "function"
    },
    {
      "inputs": [
        {
          "internalType": "uint256",
          "name": "_maxFee",
          "type": "uint256"
        }
      ],
      "name": "setMaxFee",
      "outputs": [],
      "stateMutability": "nonpayable",
      "type": "function"
    },
    {
      "inputs": [
        {
          "internalType": "uint256",
          "name": "_dailyIncome",
          "type": "uint256"
        }
      ],
      "name": "setDailyIncome",
      "outputs": [],
      "stateMutability": "nonpayable",
      "type": "function"
    },
    {
      "inputs": [
        {
          "internalType": "address",
          "name": "newAdmin",
          "type": "address"
        }
      ],
      "name": "setAdmin",
      "outputs": [],
      "stateMutability": "nonpayable",
      "type": "function"
    }
  ],
  "bytecode": "0x60806040523480156200001157600080fd5b506040516200143f3803806200143f8339810160408190526200003491620002fc565b600182905560008054600160a060020a03191633179055825162000060906009906020860190620000e2565b50835162000076906007906020870190620001a0565b5083516001604060020a03811115620000935762000093620001f5565b604051908082528060200260200182016040528015620000bd578160200160208202803683370190505b508051620000d491600891602090910190620001a0565b5060025550620003ff915050565b82805482825590600052602060002090601f016020900481019282156200018e5791602002820160005b838211156200015d57835183826101000a81548160ff021916908360028111156200013b576200013b620003d0565b021790555092602001926001016020816000010492830192600103026200010c565b80156200018c5782816101000a81549060ff02191690556001016020816000010492830192600103026200015d565b505b506200019c929150620001de565b5090565b8280548282559060005260206000209081019282156200018e579160200282015b828111156200018e578251825591602001919060010190620001c1565b5b808211156200019c5760008155600101620001df565b7f4e487b7100000000000000000000000000000000000000000000000000000000600052604160045260246000fd5b604051601f8201601f191681016001604060020a03811182821017156200024f576200024f620001f5565b604052919050565b60006001604060020a03821115620002735762000273620001f5565b5060209081020190565b600082601f8301126200028f57600080fd5b81516020620002a8620002a28362000257565b62000224565b82815291810284018101918181019086841115620002c557600080fd5b8286015b84811015620002f157805160038110620002e35760008081fd5b8352918301918301620002c9565b509695505050505050565b600080600080608085870312156200031357600080fd5b84516001604060020a03808211156200032b57600080fd5b818701915087601f8301126200034057600080fd5b8151602062000353620002a28362000257565b8281529181028401810191818101908b8411156200037057600080fd5b948201945b83861015620003905785518252948201949082019062000375565b918a0151919850909350505080821115620003aa57600080fd5b50620003b9878288016200027d565b604087015160609097015195989097509350505050565b7f4e487b7100000000000000000000000000000000000000000000000000000000600052602160045260246000fd5b611030806200040f6000396000f3fe608060405260043610610105576000357c010000000000000000000000000000000000000000000000000000000090048063628310b3116100a757806383f4eb631161007657806383f4eb631461025e578063c564b6271461027e578063d66d9e191461029e578063fcee45f4146102b357600080fd5b8063628310b3146101de5780636c041462146101fe578063704b6c021461021e578063710e5d2f1461023e57600080fd5b80634cc64f80116100e35780634cc64f801461015c5780634e71d92d14610189578063522e4c8a1461019e57806354be8be6146101be57600080fd5b806301f59d161461010a57806307afe492146101325780633ccfd60b14610147575b600080fd5b34801561011657600080fd5b5061012060015481565b60405190815260200160405180910390f35b610145610140366004610ce5565b6102d3565b005b34801561015357600080fd5b506101456104d4565b34801561016857600080fd5b50610120610177366004610cfe565b60066020526000908152604090205481565b34801561019557600080fd5b50610145610531565b3480156101aa57600080fd5b506101456101b9366004610cfe565b61066f565b3480156101ca57600080fd5b506101456101d9366004610d9c565b6106c0565b3480156101ea57600080fd5b506101206101f9366004610ce5565b610700565b34801561020a57600080fd5b50610145610219366004610e2f565b610721565b34801561022a57600080fd5b50610145610239366004610cfe565b610761565b34801561024a57600080fd5b50610145610259366004610ce5565b6107bd565b34801561026a57600080fd5b50610145610279366004610ce5565b6107ef565b34801561028a57600080fd5b50610120610299366004610ce5565b610821565b3480156102aa57600080fd5b50610145610831565b3480156102bf57600080fd5b506101206102ce366004610ce5565b610920565b80600781815481106102e7576102e7610ec0565b90600052602060002001546008828154811061030557610305610ec0565b9060005260206000200154106103655760405160e560020a62461bcd02815260206004820152600c60248201527f4c6f742069732066756c6c2e000000000000000000000000000000000000000060448201526064015b60405180910390fd5b61036e82610920565b3410156103c05760405160e560020a62461bcd02815260206004820152601360248201527f496e73756666696369656e742066756e64732e00000000000000000000000000604482015260640161035c565b816000036104135760405160e560020a62461bcd02815260206004820152601660248201527f4c6f7420696e6465782063616e6e6f7420626520302e00000000000000000000604482015260640161035c565b33600090815260066020526040902054156104735760405160e560020a62461bcd02815260206004820152601760248201527f596f752061726520616c7265616479207061726b65642e000000000000000000604482015260640161035c565b60006009838154811061048857610488610ec0565b90600052602060002090602091828204019190069054906101000a900460ff1660028111156104b9576104b9610ed9565b036104cb576104c7826109b4565b5050565b6104c782610b44565b600054600160a060020a031633146105015760405160e560020a62461bcd02815260040161035c90610ef2565b6040513390303180156108fc02916000818181858888f1935050505015801561052e573d6000803e3d6000fd5b50565b3360009081526004602052604081205462015180906105509042610f68565b61055a9190610f7b565b3360009081526005602052604090205490915081116105be5760405160e560020a62461bcd02815260206004820152601e60248201527f596f752068617665206e6f74207061726b656420666f722061206461792e0000604482015260640161035c565b600254336000908152600560205260408120549091906105de9084610f68565b6105e89190610fa0565b336000818152600460209081526040808320429055600590915280822082905551929350909183156108fc0291849190818181858888f19350505050158015610635573d6000803e3d6000fd5b5060405181815233907fd8138f8a3f377c5259ca548e70e4c2de94f129f5a11036a15b69513cba2b426a9060200160405180910390a25050565b600054600160a060020a0316331461069c5760405160e560020a62461bcd02815260040161035c90610ef2565b600160a060020a03166000908152600360205260409020805460ff19166001179055565b600054600160a060020a031633146106ed5760405160e560020a62461bcd02815260040161035c90610ef2565b80516104c7906007906020840190610bda565b6007818154811061071057600080fd5b600091825260209091200154905081565b600054600160a060020a0316331461074e5760405160e560020a62461bcd02815260040161035c90610ef2565b80516104c7906009906020840190610c25565b600054600160a060020a0316331461078e5760405160e560020a62461bcd02815260040161035c90610ef2565b6000805473ffffffffffffffffffffffffffffffffffffffff1916600160a060020a0392909216919091179055565b600054600160a060020a031633146107ea5760405160e560020a62461bcd02815260040161035c90610ef2565b600155565b600054600160a060020a0316331461081c5760405160e560020a62461bcd02815260040161035c90610ef2565b600255565b6008818154811061071057600080fd5b3360009081526006602052604081205490036108925760405160e560020a62461bcd02815260206004820152601360248201527f596f7520617265206e6f74207061726b65642e00000000000000000000000000604482015260640161035c565b3360009081526006602052604090205460088054829081106108b6576108b6610ec0565b600091825260208220018054916108cc83610fb7565b90915550503360008181526006602052604080822091909155517faf65ecdc8a0d3ea90c8344c89e7001864fddf59dfdf41da2994463fe99049a59906109159084815260200190565b60405180910390a250565b60006008828154811061093557610935610ec0565b906000526020600020015460000361094f57506000919050565b6007828154811061096257610962610ec0565b90600052602060002001546008838154811061098057610980610ec0565b906000526020600020015460016109979190610fce565b6001546109a49190610fa0565b6109ae9190610f7b565b92915050565b3360009081526003602052604090205460ff16610a3c5760405160e560020a62461bcd02815260206004820152602260248201527f4f6e6c792073746166662063616e2063616c6c20746869732066756e6374696f60448201527f6e2e000000000000000000000000000000000000000000000000000000000000606482015260840161035c565b600160098281548110610a5157610a51610ec0565b90600052602060002090602091828204019190069054906101000a900460ff166002811115610a8257610a82610ed9565b03610ad25760405160e560020a62461bcd02815260206004820152601e60248201527f54686973206c6f7420697320666f722073747564656e7473206f6e6c792e0000604482015260640161035c565b60088181548110610ae557610ae5610ec0565b60009182526020822001805491610afb83610fe1565b90915550503360008181526006602052604090819020839055517fcddbea0c092495e8718375ec92f5371831dcfb5bfe86a2645e974bb42ad997a7906109159084815260200190565b600060098281548110610b5957610b59610ec0565b90600052602060002090602091828204019190069054906101000a900460ff166002811115610b8a57610b8a610ed9565b03610ad25760405160e560020a62461bcd02815260206004820152601b60248201527f54686973206c6f7420697320666f72207374616666206f6e6c792e0000000000604482015260640161035c565b828054828255906000526020600020908101928215610c15579160200282015b82811115610c15578251825591602001919060010190610bfa565b50610c21929150610cd0565b5090565b82805482825590600052602060002090601f01602090048101928215610c155791602002820160005b83821115610c9a57835183826101000a81548160ff02191690836002811115610c7957610c79610ed9565b02179055509260200192600101602081600001049283019260010302610c4e565b8015610cc75782816101000a81549060ff0219169055600101602081600001049283019260010302610c9a565b5050610c219291505b5b80821115610c215760008155600101610cd1565b600060208284031215610cf757600080fd5b5035919050565b600060208284031215610d1057600080fd5b8135600160a060020a0381168114610d2757600080fd5b9392505050565b60e060020a634e487b7102600052604160045260246000fd5b604051601f8201601f1916810167ffffffffffffffff81118282101715610d7057610d70610d2e565b604052919050565b600067ffffffffffffffff821115610d9257610d92610d2e565b5060209081020190565b60006020808385031215610daf57600080fd5b823567ffffffffffffffff811115610dc657600080fd5b8301601f81018513610dd757600080fd5b8035610dea610de582610d78565b610d47565b81815290830282018301908381019087831115610e0657600080fd5b928401925b82841015610e2457833582529284019290840190610e0b565b979650505050505050565b60006020808385031215610e4257600080fd5b823567ffffffffffffffff811115610e5957600080fd5b8301601f81018513610e6a57600080fd5b8035610e78610de582610d78565b81815290830282018301908381019087831115610e9457600080fd5b928401925b82841015610e2457833560038110610eb15760008081fd5b82529284019290840190610e99565b60e060020a634e487b7102600052603260045260246000fd5b60e060020a634e487b7102600052602160045260246000fd5b60208082526022908201527f4f6e6c792061646d696e2063616e2063616c6c20746869732066756e6374696f60408201527f6e2e000000000000000000000000000000000000000000000000000000000000606082015260800190565b60e060020a634e487b7102600052601160045260246000fd5b818103818111156109ae576109ae610f4f565b600082610f9b5760e060020a634e487b7102600052601260045260246000fd5b500490565b80820281158282048414176109ae576109ae610f4f565b600081610fc657610fc6610f4f565b506000190190565b808201808211156109ae576109ae610f4f565b600060018201610ff357610ff3610f4f565b506001019056fea26469706673582212205a649a4c27899fd654b977753b5b7742e8c556c1ebf8b01d5274fd8a5b7e3c3f64736f6c63430008110033",
  "immutableReferences": {},
  "source": "// SPDX-License-Identifier: MIT\npragma solidity >=0.4.22 <0.9.0;\n\ncontract ChainPark {\n  address admin;\n  uint256 public maxFee; // the cost to park if you are the last person to park\n  uint dailyIncome; // the amount you will earn if you do not park for a day\n  //uint constant NOT_PARKED = 2**256 - 1; // use max uint to represent not parked\n  mapping(address=>bool) staff;\n  mapping(address=>uint) lastClaimed; // timestamp\n  mapping(address=>uint) parksSinceClaim;\n  mapping(address=>uint) public currentlyParked; // NOT_PARKED if not parked, otherwise lotIndex\n  uint[] public lotMaxCapacities; // index 0 is not used. Lots are 1-indexed so that 0 can be used to represent not parked\n  uint[] public lotCurrentCapacities;\n  enum lotType {Staff, Student, Both}\n  lotType[] lotTypes;\n\n  event Parked(address indexed user, uint lotIndex);\n  event Left(address indexed user, uint lotIndex);\n  event Claimed(address indexed user, uint amount);\n\n  modifier onlyAdmin() {\n    require(msg.sender == admin, \"Only admin can call this function.\");\n    _;\n  }\n\n  modifier onlyStaff() {\n    require(staff[msg.sender], \"Only staff can call this function.\");\n    _;\n  }\n\n  modifier notFull(uint lotIndex) {\n    require(lotCurrentCapacities[lotIndex] < lotMaxCapacities[lotIndex], \"Lot is full.\");\n    _;\n  }\n\n  constructor(uint[] memory _lotMaxCapacities, lotType[] memory _lotTypes, uint256 _maxFee, uint _dailyIncome) {\n    maxFee = _maxFee;\n    admin = msg.sender;\n    lotTypes = _lotTypes;\n    lotMaxCapacities = _lotMaxCapacities;\n    lotCurrentCapacities = new uint[](_lotMaxCapacities.length);\n    dailyIncome = _dailyIncome;\n  }\n\n\n  function getFee(uint lotIndex) public view returns (uint) {\n    if (lotCurrentCapacities[lotIndex] == 0) {\n      return 0;\n    }\n    return maxFee * (lotCurrentCapacities[lotIndex] + 1) / lotMaxCapacities[lotIndex];\n  }\n\n  function park(uint lotIndex) public payable notFull(lotIndex) {\n    require(msg.value >= getFee(lotIndex), \"Insufficient funds.\");\n    require(lotIndex != 0, \"Lot index cannot be 0.\");\n    require(currentlyParked[msg.sender] == 0, \"You are already parked.\");\n\n    if (lotTypes[lotIndex] == lotType.Staff) {\n      parkStaff(lotIndex);\n    } else {\n      parkStudent(lotIndex);\n    }\n  }\n\n  function parkStudent(uint lotIndex) private {\n    require(lotTypes[lotIndex] != lotType.Staff, \"This lot is for staff only.\");\n    lotCurrentCapacities[lotIndex]++;\n    currentlyParked[msg.sender] = lotIndex;\n    emit Parked(msg.sender, lotIndex);\n  }\n\n  function parkStaff(uint lotIndex) private onlyStaff {\n    require(lotTypes[lotIndex] != lotType.Student, \"This lot is for students only.\");\n    lotCurrentCapacities[lotIndex]++;\n    currentlyParked[msg.sender] = lotIndex;\n    emit Parked(msg.sender, lotIndex);\n  }\n\n  function leave() public {\n    require(currentlyParked[msg.sender] != 0, \"You are not parked.\");\n    uint lotIndex = uint(currentlyParked[msg.sender]);\n    lotCurrentCapacities[lotIndex]--;\n    currentlyParked[msg.sender] = 0;\n    emit Left(msg.sender, lotIndex);\n  }\n\n  function claim() public { // this will interact with the ERC20 token contract eventualy\n    uint daysSinceClaim = (block.timestamp - lastClaimed[msg.sender]) / 1 days;\n    require(daysSinceClaim > parksSinceClaim[msg.sender], \"You have not parked for a day.\");\n    uint amount = (daysSinceClaim - parksSinceClaim[msg.sender]) * dailyIncome; // you will not get paid for the days you parked\n    lastClaimed[msg.sender] = block.timestamp;\n    parksSinceClaim[msg.sender] = 0;\n    payable(msg.sender).transfer(amount);\n    emit Claimed(msg.sender, amount);\n  }\n\n  function withdraw() public onlyAdmin {\n    payable(msg.sender).transfer(address(this).balance);\n  }\n\n  function addStaff(address staffMember) public onlyAdmin {\n    staff[staffMember] = true;\n  }\n\n\n  function setMaxCapacities(uint[] memory _lotMaxCapacities) public onlyAdmin {\n    lotMaxCapacities = _lotMaxCapacities;\n  }\n\n  function setLotTypes(lotType[] memory _lotTypes) public onlyAdmin {\n    lotTypes = _lotTypes;\n  }\n\n  function setMaxFee(uint256 _maxFee) public onlyAdmin {\n    maxFee = _maxFee;\n  }\n\n  function setDailyIncome(uint _dailyIncome) public onlyAdmin {\n    dailyIncome = _dailyIncome;\n  }\n\n  function setAdmin(address newAdmin) public onlyAdmin {\n    admin = newAdmin;\n  }\n}\n",
  "sourcePath": "/home/sib/eth/UB-Chain-Park/truffle/contracts/ChainPark.sol",
  "compiler": {
    "name": "solc",
    "version": "0.8.17+commit.8df45f5f.Emscripten.clang"
  },
  "schemaVersion": "3.4.10",
  "updatedAt": "2022-11-14T18:14:27.544Z",
  "networkType": "ethereum",
  "devdoc": {
    "kind": "dev",
    "methods": {},
    "version": 1
  },
  "userdoc": {
    "kind": "user",
    "methods": {},
    "version": 1
  }
}