{
  "contractName": "ChainPark",
  "abi": [
    {
      "inputs": [
        {
          "internalType": "uint256[]",
          "name": "_lotMaxCapacities",
          "type": "uint256[]"
        },
        {
          "internalType": "enum ChainPark.lotType[]",
          "name": "_lotTypes",
          "type": "uint8[]"
        },
        {
          "internalType": "uint256",
          "name": "_maxFee",
          "type": "uint256"
        },
        {
          "internalType": "uint256",
          "name": "_dailyIncome",
          "type": "uint256"
        }
      ],
      "stateMutability": "nonpayable",
      "type": "constructor"
    },
    {
      "anonymous": false,
      "inputs": [
        {
          "indexed": true,
          "internalType": "address",
          "name": "user",
          "type": "address"
        },
        {
          "indexed": false,
          "internalType": "uint256",
          "name": "amount",
          "type": "uint256"
        }
      ],
      "name": "Claimed",
      "type": "event"
    },
    {
      "anonymous": false,
      "inputs": [
        {
          "indexed": true,
          "internalType": "address",
          "name": "user",
          "type": "address"
        },
        {
          "indexed": false,
          "internalType": "uint256",
          "name": "lotIndex",
          "type": "uint256"
        }
      ],
      "name": "Left",
      "type": "event"
    },
    {
      "anonymous": false,
      "inputs": [
        {
          "indexed": true,
          "internalType": "address",
          "name": "user",
          "type": "address"
        },
        {
          "indexed": false,
          "internalType": "uint256",
          "name": "lotIndex",
          "type": "uint256"
        }
      ],
      "name": "Parked",
      "type": "event"
    },
    {
      "inputs": [
        {
          "internalType": "uint256",
          "name": "",
          "type": "uint256"
        }
      ],
      "name": "lotCurrentCapacities",
      "outputs": [
        {
          "internalType": "uint256",
          "name": "",
          "type": "uint256"
        }
      ],
      "stateMutability": "view",
      "type": "function"
    },
    {
      "inputs": [
        {
          "internalType": "uint256",
          "name": "",
          "type": "uint256"
        }
      ],
      "name": "lotMaxCapacities",
      "outputs": [
        {
          "internalType": "uint256",
          "name": "",
          "type": "uint256"
        }
      ],
      "stateMutability": "view",
      "type": "function"
    },
    {
      "inputs": [],
      "name": "maxFee",
      "outputs": [
        {
          "internalType": "uint256",
          "name": "",
          "type": "uint256"
        }
      ],
      "stateMutability": "view",
      "type": "function"
    },
    {
      "inputs": [
        {
          "internalType": "uint256",
          "name": "lotIndex",
          "type": "uint256"
        }
      ],
      "name": "getFee",
      "outputs": [
        {
          "internalType": "uint256",
          "name": "",
          "type": "uint256"
        }
      ],
      "stateMutability": "view",
      "type": "function"
    },
    {
      "inputs": [
        {
          "internalType": "uint256",
          "name": "lotIndex",
          "type": "uint256"
        }
      ],
      "name": "park",
      "outputs": [],
      "stateMutability": "payable",
      "type": "function"
    },
    {
      "inputs": [],
      "name": "leave",
      "outputs": [],
      "stateMutability": "nonpayable",
      "type": "function"
    },
    {
      "inputs": [],
      "name": "claim",
      "outputs": [],
      "stateMutability": "nonpayable",
      "type": "function"
    },
    {
      "inputs": [
        {
          "internalType": "address",
          "name": "staffMember",
          "type": "address"
        }
      ],
      "name": "addStaff",
      "outputs": [],
      "stateMutability": "nonpayable",
      "type": "function"
    },
    {
      "inputs": [
        {
          "internalType": "uint256[]",
          "name": "_lotMaxCapacities",
          "type": "uint256[]"
        }
      ],
      "name": "setMaxCapacities",
      "outputs": [],
      "stateMutability": "nonpayable",
      "type": "function"
    },
    {
      "inputs": [
        {
          "internalType": "enum ChainPark.lotType[]",
          "name": "_lotTypes",
          "type": "uint8[]"
        }
      ],
      "name": "setLotTypes",
      "outputs": [],
      "stateMutability": "nonpayable",
      "type": "function"
    },
    {
      "inputs": [
        {
          "internalType": "uint256",
          "name": "_maxFee",
          "type": "uint256"
        }
      ],
      "name": "setMaxFee",
      "outputs": [],
      "stateMutability": "nonpayable",
      "type": "function"
    },
    {
      "inputs": [
        {
          "internalType": "uint256",
          "name": "_dailyIncome",
          "type": "uint256"
        }
      ],
      "name": "setDailyIncome",
      "outputs": [],
      "stateMutability": "nonpayable",
      "type": "function"
    },
    {
      "inputs": [
        {
          "internalType": "address",
          "name": "newAdmin",
          "type": "address"
        }
      ],
      "name": "setAdmin",
      "outputs": [],
      "stateMutability": "nonpayable",
      "type": "function"
    }
  ],
  "bytecode": "0x60806040523480156200001157600080fd5b506040516200137a3803806200137a8339810160408190526200003491620002fc565b600182905560008054600160a060020a03191633179055825162000060906009906020860190620000e2565b50835162000076906007906020870190620001a0565b5083516001604060020a03811115620000935762000093620001f5565b604051908082528060200260200182016040528015620000bd578160200160208202803683370190505b508051620000d491600891602090910190620001a0565b5060025550620003ff915050565b82805482825590600052602060002090601f016020900481019282156200018e5791602002820160005b838211156200015d57835183826101000a81548160ff021916908360028111156200013b576200013b620003d0565b021790555092602001926001016020816000010492830192600103026200010c565b80156200018c5782816101000a81549060ff02191690556001016020816000010492830192600103026200015d565b505b506200019c929150620001de565b5090565b8280548282559060005260206000209081019282156200018e579160200282015b828111156200018e578251825591602001919060010190620001c1565b5b808211156200019c5760008155600101620001df565b7f4e487b7100000000000000000000000000000000000000000000000000000000600052604160045260246000fd5b604051601f8201601f191681016001604060020a03811182821017156200024f576200024f620001f5565b604052919050565b60006001604060020a03821115620002735762000273620001f5565b5060209081020190565b600082601f8301126200028f57600080fd5b81516020620002a8620002a28362000257565b62000224565b82815291810284018101918181019086841115620002c557600080fd5b8286015b84811015620002f157805160038110620002e35760008081fd5b8352918301918301620002c9565b509695505050505050565b600080600080608085870312156200031357600080fd5b84516001604060020a03808211156200032b57600080fd5b818701915087601f8301126200034057600080fd5b8151602062000353620002a28362000257565b8281529181028401810191818101908b8411156200037057600080fd5b948201945b83861015620003905785518252948201949082019062000375565b918a0151919850909350505080821115620003aa57600080fd5b50620003b9878288016200027d565b604087015160609097015195989097509350505050565b7f4e487b7100000000000000000000000000000000000000000000000000000000600052602160045260246000fd5b610f6b806200040f6000396000f3fe6080604052600436106100df576000357c0100000000000000000000000000000000000000000000000000000000900480636c0414621161009c57806383f4eb631161007657806383f4eb63146101f6578063c564b62714610216578063d66d9e1914610236578063fcee45f41461024b57600080fd5b80636c04146214610196578063704b6c02146101b6578063710e5d2f146101d657600080fd5b806301f59d16146100e457806307afe4921461010c5780634e71d92d14610121578063522e4c8a1461013657806354be8be614610156578063628310b314610176575b600080fd5b3480156100f057600080fd5b506100fa60015481565b60405190815260200160405180910390f35b61011f61011a366004610c20565b61026b565b005b34801561012d57600080fd5b5061011f61046c565b34801561014257600080fd5b5061011f610151366004610c39565b6105aa565b34801561016257600080fd5b5061011f610171366004610cd7565b6105fb565b34801561018257600080fd5b506100fa610191366004610c20565b61063b565b3480156101a257600080fd5b5061011f6101b1366004610d6a565b61065c565b3480156101c257600080fd5b5061011f6101d1366004610c39565b61069c565b3480156101e257600080fd5b5061011f6101f1366004610c20565b6106f8565b34801561020257600080fd5b5061011f610211366004610c20565b61072a565b34801561022257600080fd5b506100fa610231366004610c20565b61075c565b34801561024257600080fd5b5061011f61076c565b34801561025757600080fd5b506100fa610266366004610c20565b61085b565b806007818154811061027f5761027f610dfb565b90600052602060002001546008828154811061029d5761029d610dfb565b9060005260206000200154106102fd5760405160e560020a62461bcd02815260206004820152600c60248201527f4c6f742069732066756c6c2e000000000000000000000000000000000000000060448201526064015b60405180910390fd5b6103068261085b565b3410156103585760405160e560020a62461bcd02815260206004820152601360248201527f496e73756666696369656e742066756e64732e0000000000000000000000000060448201526064016102f4565b816000036103ab5760405160e560020a62461bcd02815260206004820152601660248201527f4c6f7420696e6465782063616e6e6f7420626520302e0000000000000000000060448201526064016102f4565b336000908152600660205260409020541561040b5760405160e560020a62461bcd02815260206004820152601760248201527f596f752061726520616c7265616479207061726b65642e00000000000000000060448201526064016102f4565b60006009838154811061042057610420610dfb565b90600052602060002090602091828204019190069054906101000a900460ff16600281111561045157610451610e14565b036104635761045f826108ef565b5050565b61045f82610a7f565b33600090815260046020526040812054620151809061048b9042610e46565b6104959190610e59565b3360009081526005602052604090205490915081116104f95760405160e560020a62461bcd02815260206004820152601e60248201527f596f752068617665206e6f74207061726b656420666f722061206461792e000060448201526064016102f4565b600254336000908152600560205260408120549091906105199084610e46565b6105239190610e7e565b336000818152600460209081526040808320429055600590915280822082905551929350909183156108fc0291849190818181858888f19350505050158015610570573d6000803e3d6000fd5b5060405181815233907fd8138f8a3f377c5259ca548e70e4c2de94f129f5a11036a15b69513cba2b426a9060200160405180910390a25050565b600054600160a060020a031633146105d75760405160e560020a62461bcd0281526004016102f490610e95565b600160a060020a03166000908152600360205260409020805460ff19166001179055565b600054600160a060020a031633146106285760405160e560020a62461bcd0281526004016102f490610e95565b805161045f906007906020840190610b15565b6007818154811061064b57600080fd5b600091825260209091200154905081565b600054600160a060020a031633146106895760405160e560020a62461bcd0281526004016102f490610e95565b805161045f906009906020840190610b60565b600054600160a060020a031633146106c95760405160e560020a62461bcd0281526004016102f490610e95565b6000805473ffffffffffffffffffffffffffffffffffffffff1916600160a060020a0392909216919091179055565b600054600160a060020a031633146107255760405160e560020a62461bcd0281526004016102f490610e95565b600155565b600054600160a060020a031633146107575760405160e560020a62461bcd0281526004016102f490610e95565b600255565b6008818154811061064b57600080fd5b3360009081526006602052604081205490036107cd5760405160e560020a62461bcd02815260206004820152601360248201527f596f7520617265206e6f74207061726b65642e0000000000000000000000000060448201526064016102f4565b3360009081526006602052604090205460088054829081106107f1576107f1610dfb565b6000918252602082200180549161080783610ef2565b90915550503360008181526006602052604080822091909155517faf65ecdc8a0d3ea90c8344c89e7001864fddf59dfdf41da2994463fe99049a59906108509084815260200190565b60405180910390a250565b60006008828154811061087057610870610dfb565b906000526020600020015460000361088a57506000919050565b6007828154811061089d5761089d610dfb565b9060005260206000200154600883815481106108bb576108bb610dfb565b906000526020600020015460016108d29190610f09565b6001546108df9190610e7e565b6108e99190610e59565b92915050565b3360009081526003602052604090205460ff166109775760405160e560020a62461bcd02815260206004820152602260248201527f4f6e6c792073746166662063616e2063616c6c20746869732066756e6374696f60448201527f6e2e00000000000000000000000000000000000000000000000000000000000060648201526084016102f4565b60016009828154811061098c5761098c610dfb565b90600052602060002090602091828204019190069054906101000a900460ff1660028111156109bd576109bd610e14565b03610a0d5760405160e560020a62461bcd02815260206004820152601e60248201527f54686973206c6f7420697320666f722073747564656e7473206f6e6c792e000060448201526064016102f4565b60088181548110610a2057610a20610dfb565b60009182526020822001805491610a3683610f1c565b90915550503360008181526006602052604090819020839055517fcddbea0c092495e8718375ec92f5371831dcfb5bfe86a2645e974bb42ad997a7906108509084815260200190565b600060098281548110610a9457610a94610dfb565b90600052602060002090602091828204019190069054906101000a900460ff166002811115610ac557610ac5610e14565b03610a0d5760405160e560020a62461bcd02815260206004820152601b60248201527f54686973206c6f7420697320666f72207374616666206f6e6c792e000000000060448201526064016102f4565b828054828255906000526020600020908101928215610b50579160200282015b82811115610b50578251825591602001919060010190610b35565b50610b5c929150610c0b565b5090565b82805482825590600052602060002090601f01602090048101928215610b505791602002820160005b83821115610bd557835183826101000a81548160ff02191690836002811115610bb457610bb4610e14565b02179055509260200192600101602081600001049283019260010302610b89565b8015610c025782816101000a81549060ff0219169055600101602081600001049283019260010302610bd5565b5050610b5c9291505b5b80821115610b5c5760008155600101610c0c565b600060208284031215610c3257600080fd5b5035919050565b600060208284031215610c4b57600080fd5b8135600160a060020a0381168114610c6257600080fd5b9392505050565b60e060020a634e487b7102600052604160045260246000fd5b604051601f8201601f1916810167ffffffffffffffff81118282101715610cab57610cab610c69565b604052919050565b600067ffffffffffffffff821115610ccd57610ccd610c69565b5060209081020190565b60006020808385031215610cea57600080fd5b823567ffffffffffffffff811115610d0157600080fd5b8301601f81018513610d1257600080fd5b8035610d25610d2082610cb3565b610c82565b81815290830282018301908381019087831115610d4157600080fd5b928401925b82841015610d5f57833582529284019290840190610d46565b979650505050505050565b60006020808385031215610d7d57600080fd5b823567ffffffffffffffff811115610d9457600080fd5b8301601f81018513610da557600080fd5b8035610db3610d2082610cb3565b81815290830282018301908381019087831115610dcf57600080fd5b928401925b82841015610d5f57833560038110610dec5760008081fd5b82529284019290840190610dd4565b60e060020a634e487b7102600052603260045260246000fd5b60e060020a634e487b7102600052602160045260246000fd5b60e060020a634e487b7102600052601160045260246000fd5b818103818111156108e9576108e9610e2d565b600082610e795760e060020a634e487b7102600052601260045260246000fd5b500490565b80820281158282048414176108e9576108e9610e2d565b60208082526022908201527f4f6e6c792061646d696e2063616e2063616c6c20746869732066756e6374696f60408201527f6e2e000000000000000000000000000000000000000000000000000000000000606082015260800190565b600081610f0157610f01610e2d565b506000190190565b808201808211156108e9576108e9610e2d565b600060018201610f2e57610f2e610e2d565b506001019056fea2646970667358221220d939a62b551dc115a847ef71c8f600aa7ffd3da1a3c461ab89255399f3ab6d8364736f6c63430008110033",
  "immutableReferences": {},
  "source": "// SPDX-License-Identifier: MIT\npragma solidity >=0.4.22 <0.9.0;\n\ncontract ChainPark {\n  address admin;\n  uint256 public maxFee; // the cost to park if you are the last person to park\n  uint dailyIncome; // the amount you will earn if you do not park for a day\n  //uint constant NOT_PARKED = 2**256 - 1; // use max uint to represent not parked\n  mapping(address=>bool) staff;\n  mapping(address=>uint) lastClaimed; // timestamp\n  mapping(address=>uint) parksSinceClaim;\n  mapping(address=>uint) currentlyParked; // NOT_PARKED if not parked, otherwise lotIndex\n  uint[] public lotMaxCapacities; // index 0 is not used. Lots are 1-indexed so that 0 can be used to represent not parked\n  uint[] public lotCurrentCapacities;\n  enum lotType {Staff, Student, Both}\n  lotType[] lotTypes;\n\n  event Parked(address indexed user, uint lotIndex);\n  event Left(address indexed user, uint lotIndex);\n  event Claimed(address indexed user, uint amount);\n\n  modifier onlyAdmin() {\n    require(msg.sender == admin, \"Only admin can call this function.\");\n    _;\n  }\n\n  modifier onlyStaff() {\n    require(staff[msg.sender], \"Only staff can call this function.\");\n    _;\n  }\n\n  modifier notFull(uint lotIndex) {\n    require(lotCurrentCapacities[lotIndex] < lotMaxCapacities[lotIndex], \"Lot is full.\");\n    _;\n  }\n\n  constructor(uint[] memory _lotMaxCapacities, lotType[] memory _lotTypes, uint256 _maxFee, uint _dailyIncome) {\n    maxFee = _maxFee;\n    admin = msg.sender;\n    lotTypes = _lotTypes;\n    lotMaxCapacities = _lotMaxCapacities;\n    lotCurrentCapacities = new uint[](_lotMaxCapacities.length);\n    dailyIncome = _dailyIncome;\n  }\n\n\n  function getFee(uint lotIndex) public view returns (uint) {\n    if (lotCurrentCapacities[lotIndex] == 0) {\n      return 0;\n    }\n    return maxFee * (lotCurrentCapacities[lotIndex] + 1) / lotMaxCapacities[lotIndex];\n  }\n\n  function park(uint lotIndex) public payable notFull(lotIndex) {\n    require(msg.value >= getFee(lotIndex), \"Insufficient funds.\");\n    require(lotIndex != 0, \"Lot index cannot be 0.\");\n    require(currentlyParked[msg.sender] == 0, \"You are already parked.\");\n\n    if (lotTypes[lotIndex] == lotType.Staff) {\n      parkStaff(lotIndex);\n    } else {\n      parkStudent(lotIndex);\n    }\n  }\n\n  function parkStudent(uint lotIndex) private {\n    require(lotTypes[lotIndex] != lotType.Staff, \"This lot is for staff only.\");\n    lotCurrentCapacities[lotIndex]++;\n    currentlyParked[msg.sender] = lotIndex;\n    emit Parked(msg.sender, lotIndex);\n  }\n\n  function parkStaff(uint lotIndex) private onlyStaff {\n    require(lotTypes[lotIndex] != lotType.Student, \"This lot is for students only.\");\n    lotCurrentCapacities[lotIndex]++;\n    currentlyParked[msg.sender] = lotIndex;\n    emit Parked(msg.sender, lotIndex);\n  }\n\n  function leave() public {\n    require(currentlyParked[msg.sender] != 0, \"You are not parked.\");\n    uint lotIndex = uint(currentlyParked[msg.sender]);\n    lotCurrentCapacities[lotIndex]--;\n    currentlyParked[msg.sender] = 0;\n    emit Left(msg.sender, lotIndex);\n  }\n\n  function claim() public { // this will interact with the ERC20 token contract eventualy\n    uint daysSinceClaim = (block.timestamp - lastClaimed[msg.sender]) / 1 days;\n    require(daysSinceClaim > parksSinceClaim[msg.sender], \"You have not parked for a day.\");\n    uint amount = (daysSinceClaim - parksSinceClaim[msg.sender]) * dailyIncome; // you will not get paid for the days you parked\n    lastClaimed[msg.sender] = block.timestamp;\n    parksSinceClaim[msg.sender] = 0;\n    payable(msg.sender).transfer(amount);\n    emit Claimed(msg.sender, amount);\n  }\n\n  function addStaff(address staffMember) public onlyAdmin {\n    staff[staffMember] = true;\n  }\n\n\n  function setMaxCapacities(uint[] memory _lotMaxCapacities) public onlyAdmin {\n    lotMaxCapacities = _lotMaxCapacities;\n  }\n\n  function setLotTypes(lotType[] memory _lotTypes) public onlyAdmin {\n    lotTypes = _lotTypes;\n  }\n\n  function setMaxFee(uint256 _maxFee) public onlyAdmin {\n    maxFee = _maxFee;\n  }\n\n  function setDailyIncome(uint _dailyIncome) public onlyAdmin {\n    dailyIncome = _dailyIncome;\n  }\n\n  function setAdmin(address newAdmin) public onlyAdmin {\n    admin = newAdmin;\n  }\n}\n",
  "sourcePath": "/Users/sebastianrichel/Documents/School/CSE 456/Chain-Park/truffle/contracts/ChainPark.sol",
  "compiler": {
    "name": "solc",
    "version": "0.8.17+commit.8df45f5f.Emscripten.clang"
  },
  "schemaVersion": "3.4.10",
  "updatedAt": "2022-10-31T14:11:26.189Z",
  "devdoc": {
    "kind": "dev",
    "methods": {},
    "version": 1
  },
  "userdoc": {
    "kind": "user",
    "methods": {},
    "version": 1
  }
}