{
  "contractName": "UBParkingCredits",
  "abi": [
    {
      "inputs": [
        {
          "internalType": "uint256",
          "name": "initalSupply",
          "type": "uint256"
        }
      ],
      "stateMutability": "nonpayable",
      "type": "constructor"
    },
    {
      "anonymous": false,
      "inputs": [
        {
          "indexed": true,
          "internalType": "address",
          "name": "owner",
          "type": "address"
        },
        {
          "indexed": true,
          "internalType": "address",
          "name": "spender",
          "type": "address"
        },
        {
          "indexed": false,
          "internalType": "uint256",
          "name": "value",
          "type": "uint256"
        }
      ],
      "name": "Approval",
      "type": "event"
    },
    {
      "anonymous": false,
      "inputs": [
        {
          "indexed": true,
          "internalType": "address",
          "name": "from",
          "type": "address"
        },
        {
          "indexed": true,
          "internalType": "address",
          "name": "to",
          "type": "address"
        },
        {
          "indexed": false,
          "internalType": "uint256",
          "name": "value",
          "type": "uint256"
        }
      ],
      "name": "Transfer",
      "type": "event"
    },
    {
      "inputs": [],
      "name": "AIRDROP_AMOUNT",
      "outputs": [
        {
          "internalType": "uint256",
          "name": "",
          "type": "uint256"
        }
      ],
      "stateMutability": "view",
      "type": "function",
      "constant": true
    },
    {
      "inputs": [
        {
          "internalType": "address",
          "name": "owner",
          "type": "address"
        },
        {
          "internalType": "address",
          "name": "spender",
          "type": "address"
        }
      ],
      "name": "allowance",
      "outputs": [
        {
          "internalType": "uint256",
          "name": "",
          "type": "uint256"
        }
      ],
      "stateMutability": "view",
      "type": "function",
      "constant": true
    },
    {
      "inputs": [
        {
          "internalType": "address",
          "name": "spender",
          "type": "address"
        },
        {
          "internalType": "uint256",
          "name": "amount",
          "type": "uint256"
        }
      ],
      "name": "approve",
      "outputs": [
        {
          "internalType": "bool",
          "name": "",
          "type": "bool"
        }
      ],
      "stateMutability": "nonpayable",
      "type": "function"
    },
    {
      "inputs": [
        {
          "internalType": "address",
          "name": "account",
          "type": "address"
        }
      ],
      "name": "balanceOf",
      "outputs": [
        {
          "internalType": "uint256",
          "name": "",
          "type": "uint256"
        }
      ],
      "stateMutability": "view",
      "type": "function",
      "constant": true
    },
    {
      "inputs": [],
      "name": "decimals",
      "outputs": [
        {
          "internalType": "uint8",
          "name": "",
          "type": "uint8"
        }
      ],
      "stateMutability": "view",
      "type": "function",
      "constant": true
    },
    {
      "inputs": [
        {
          "internalType": "address",
          "name": "spender",
          "type": "address"
        },
        {
          "internalType": "uint256",
          "name": "subtractedValue",
          "type": "uint256"
        }
      ],
      "name": "decreaseAllowance",
      "outputs": [
        {
          "internalType": "bool",
          "name": "",
          "type": "bool"
        }
      ],
      "stateMutability": "nonpayable",
      "type": "function"
    },
    {
      "inputs": [
        {
          "internalType": "address",
          "name": "spender",
          "type": "address"
        },
        {
          "internalType": "uint256",
          "name": "addedValue",
          "type": "uint256"
        }
      ],
      "name": "increaseAllowance",
      "outputs": [
        {
          "internalType": "bool",
          "name": "",
          "type": "bool"
        }
      ],
      "stateMutability": "nonpayable",
      "type": "function"
    },
    {
      "inputs": [],
      "name": "name",
      "outputs": [
        {
          "internalType": "string",
          "name": "",
          "type": "string"
        }
      ],
      "stateMutability": "view",
      "type": "function",
      "constant": true
    },
    {
      "inputs": [],
      "name": "symbol",
      "outputs": [
        {
          "internalType": "string",
          "name": "",
          "type": "string"
        }
      ],
      "stateMutability": "view",
      "type": "function",
      "constant": true
    },
    {
      "inputs": [],
      "name": "totalSupply",
      "outputs": [
        {
          "internalType": "uint256",
          "name": "",
          "type": "uint256"
        }
      ],
      "stateMutability": "view",
      "type": "function",
      "constant": true
    },
    {
      "inputs": [
        {
          "internalType": "address",
          "name": "to",
          "type": "address"
        },
        {
          "internalType": "uint256",
          "name": "amount",
          "type": "uint256"
        }
      ],
      "name": "transfer",
      "outputs": [
        {
          "internalType": "bool",
          "name": "",
          "type": "bool"
        }
      ],
      "stateMutability": "nonpayable",
      "type": "function"
    },
    {
      "inputs": [
        {
          "internalType": "address",
          "name": "from",
          "type": "address"
        },
        {
          "internalType": "address",
          "name": "to",
          "type": "address"
        },
        {
          "internalType": "uint256",
          "name": "amount",
          "type": "uint256"
        }
      ],
      "name": "transferFrom",
      "outputs": [
        {
          "internalType": "bool",
          "name": "",
          "type": "bool"
        }
      ],
      "stateMutability": "nonpayable",
      "type": "function"
    },
    {
      "inputs": [
        {
          "internalType": "address",
          "name": "account",
          "type": "address"
        },
        {
          "internalType": "uint256",
          "name": "amount",
          "type": "uint256"
        }
      ],
      "name": "mint",
      "outputs": [],
      "stateMutability": "nonpayable",
      "type": "function"
    },
    {
      "inputs": [],
      "name": "claim_airdrop",
      "outputs": [],
      "stateMutability": "nonpayable",
      "type": "function"
    },
    {
      "inputs": [
        {
          "internalType": "address",
          "name": "_chainParkAddr",
          "type": "address"
        }
      ],
      "name": "setChainPark",
      "outputs": [],
      "stateMutability": "nonpayable",
      "type": "function"
    }
  ],
  "bytecode": "0x60806040523480156200001157600080fd5b50604051620010e6380380620010e6833981016040819052620000349162000207565b6040518060400160405280601181526020017f5542205061726b696e67204372656469740000000000000000000000000000008152506040518060400160405280600481526020017f55425043000000000000000000000000000000000000000000000000000000008152508160039081620000b19190620002f7565b506004620000c08282620002f7565b505060058054600160a060020a03191633908117909155620000ed915082640100000000620000f4810204565b506200040b565b600160a060020a03821662000169576040517f08c379a000000000000000000000000000000000000000000000000000000000815260206004820152601f60248201527f45524332303a206d696e7420746f20746865207a65726f206164647265737300604482015260640160405180910390fd5b620001806000838364010000000062000202810204565b8060026000828254620001949190620003ca565b9091555050600160a060020a038216600081815260208181526040808320805486019055518481527fddf252ad1be2c89b69c2b068fc378daa952ba7f163c4a11628f55a4df523b3ef910160405180910390a3620001fe6000838364010000000062000202810204565b5050565b505050565b6000602082840312156200021a57600080fd5b5051919050565b7f4e487b7100000000000000000000000000000000000000000000000000000000600052604160045260246000fd5b6002810460018216806200026557607f821691505b6020821081036200029f577f4e487b7100000000000000000000000000000000000000000000000000000000600052602260045260246000fd5b50919050565b601f82111562000202576000818152602081206020601f86010481016020861015620002ce5750805b6020601f860104820191505b81811015620002ef57828155600101620002da565b505050505050565b815167ffffffffffffffff81111562000314576200031462000221565b6200032c8162000325845462000250565b84620002a5565b602080601f8311600181146200036857600084156200034b5750858301515b60028086026008870290910a6000190419821617865550620002ef565b600085815260208120601f198616915b82811015620003995788860151825594840194600190910190840162000378565b5085821015620003ba57878501516008601f88160260020a60001904191681555b5050505050600202600101905550565b8082018082111562000405577f4e487b7100000000000000000000000000000000000000000000000000000000600052601160045260246000fd5b92915050565b610ccb806200041b6000396000f3fe608060405234801561001057600080fd5b5060043610610112576000357c01000000000000000000000000000000000000000000000000000000009004806340c10f19116100b4578063a457c2d711610083578063a457c2d7146101fd578063a9059cbb14610210578063da15e5ce14610223578063dd62ed3e1461023657600080fd5b806340c10f19146101af5780636b3af9a9146101c457806370a08231146101cc57806395d89b41146101f557600080fd5b806323b872dd116100f057806323b872dd1461016a5780632b5b68721461017d578063313ce5671461018d578063395093511461019c57600080fd5b806306fdde0314610117578063095ea7b31461013557806318160ddd14610158575b600080fd5b61011f610249565b60405161012c9190610ae3565b60405180910390f35b610148610143366004610b4d565b6102db565b604051901515815260200161012c565b6002545b60405190815260200161012c565b610148610178366004610b77565b6102f5565b61015c68056bc75e2d6310000081565b6040516012815260200161012c565b6101486101aa366004610b4d565b610319565b6101c26101bd366004610b4d565b61033b565b005b6101c26103e8565b61015c6101da366004610bb3565b600160a060020a031660009081526020819052604090205490565b61011f6104c0565b61014861020b366004610b4d565b6104cf565b61014861021e366004610b4d565b610565565b6101c2610231366004610bb3565b610573565b61015c610244366004610bd5565b610625565b60606003805461025890610c08565b80601f016020809104026020016040519081016040528092919081815260200182805461028490610c08565b80156102d15780601f106102a6576101008083540402835291602001916102d1565b820191906000526020600020905b8154815290600101906020018083116102b457829003601f168201915b5050505050905090565b6000336102e9818585610650565b60019150505b92915050565b6000336103038582856107ae565b61030e85858561082b565b506001949350505050565b6000336102e981858561032c8383610625565b6103369190610c5b565b610650565b600654600160a060020a031633146103c35760405160e560020a62461bcd02815260206004820152602660248201527f4f6e6c7920436861696e5061726b2063616e2063616c6c20746869732066756e60448201527f6374696f6e2e000000000000000000000000000000000000000000000000000060648201526084015b60405180910390fd5b6006546103d990600160a060020a0316826102db565b506103e48282610a21565b5050565b3360009081526007602052604090205460ff16156104715760405160e560020a62461bcd02815260206004820152602660248201527f596f75206861766520616c726561647920636c61696d656420796f757220616960448201527f7264726f702e000000000000000000000000000000000000000000000000000060648201526084016103ba565b60065461049090600160a060020a031668056bc75e2d631000006102db565b50336000818152600760205260409020805460ff191660011790556104be9068056bc75e2d63100000610a21565b565b60606004805461025890610c08565b600033816104dd8286610625565b9050838110156105585760405160e560020a62461bcd02815260206004820152602560248201527f45524332303a2064656372656173656420616c6c6f77616e63652062656c6f7760448201527f207a65726f00000000000000000000000000000000000000000000000000000060648201526084016103ba565b61030e8286868403610650565b6000336102e981858561082b565b600554600160a060020a031633146105f65760405160e560020a62461bcd02815260206004820152602260248201527f4f6e6c792061646d696e2063616e2063616c6c20746869732066756e6374696f60448201527f6e2e00000000000000000000000000000000000000000000000000000000000060648201526084016103ba565b6006805473ffffffffffffffffffffffffffffffffffffffff1916600160a060020a0392909216919091179055565b600160a060020a03918216600090815260016020908152604080832093909416825291909152205490565b600160a060020a0383166106ce5760405160e560020a62461bcd028152602060048201526024808201527f45524332303a20617070726f76652066726f6d20746865207a65726f2061646460448201527f726573730000000000000000000000000000000000000000000000000000000060648201526084016103ba565b600160a060020a03821661074d5760405160e560020a62461bcd02815260206004820152602260248201527f45524332303a20617070726f766520746f20746865207a65726f20616464726560448201527f737300000000000000000000000000000000000000000000000000000000000060648201526084016103ba565b600160a060020a0383811660008181526001602090815260408083209487168084529482529182902085905590518481527f8c5be1e5ebec7d5bd14f71427d1e84f3dd0314c0f7b2291e5b200ac8c7c3b925910160405180910390a3505050565b60006107ba8484610625565b9050600019811461082557818110156108185760405160e560020a62461bcd02815260206004820152601d60248201527f45524332303a20696e73756666696369656e7420616c6c6f77616e636500000060448201526064016103ba565b6108258484848403610650565b50505050565b600160a060020a0383166108aa5760405160e560020a62461bcd02815260206004820152602560248201527f45524332303a207472616e736665722066726f6d20746865207a65726f20616460448201527f647265737300000000000000000000000000000000000000000000000000000060648201526084016103ba565b600160a060020a0382166109295760405160e560020a62461bcd02815260206004820152602360248201527f45524332303a207472616e7366657220746f20746865207a65726f206164647260448201527f657373000000000000000000000000000000000000000000000000000000000060648201526084016103ba565b600160a060020a038316600090815260208190526040902054818110156109bb5760405160e560020a62461bcd02815260206004820152602660248201527f45524332303a207472616e7366657220616d6f756e742065786365656473206260448201527f616c616e6365000000000000000000000000000000000000000000000000000060648201526084016103ba565b600160a060020a03848116600081815260208181526040808320878703905593871680835291849020805487019055925185815290927fddf252ad1be2c89b69c2b068fc378daa952ba7f163c4a11628f55a4df523b3ef910160405180910390a3610825565b600160a060020a038216610a7a5760405160e560020a62461bcd02815260206004820152601f60248201527f45524332303a206d696e7420746f20746865207a65726f20616464726573730060448201526064016103ba565b8060026000828254610a8c9190610c5b565b9091555050600160a060020a038216600081815260208181526040808320805486019055518481527fddf252ad1be2c89b69c2b068fc378daa952ba7f163c4a11628f55a4df523b3ef910160405180910390a35050565b600060208083528351808285015260005b81811015610b1057858101830151858201604001528201610af4565b506000604082860101526040601f19601f8301168501019250505092915050565b8035600160a060020a0381168114610b4857600080fd5b919050565b60008060408385031215610b6057600080fd5b610b6983610b31565b946020939093013593505050565b600080600060608486031215610b8c57600080fd5b610b9584610b31565b9250610ba360208501610b31565b9150604084013590509250925092565b600060208284031215610bc557600080fd5b610bce82610b31565b9392505050565b60008060408385031215610be857600080fd5b610bf183610b31565b9150610bff60208401610b31565b90509250929050565b600281046001821680610c1c57607f821691505b602082108103610c55577f4e487b7100000000000000000000000000000000000000000000000000000000600052602260045260246000fd5b50919050565b808201808211156102ef577f4e487b7100000000000000000000000000000000000000000000000000000000600052601160045260246000fdfea2646970667358221220b63ee0158aa00e211058e888a9f1cae67b1b80690f065e45b1b2af8e9cdcccbd64736f6c63430008110033",
  "immutableReferences": {},
  "source": "// SPDX-License-Identifier: MIT\npragma solidity >=0.4.22 <0.9.0;\n\nimport \"@openzeppelin/contracts/token/ERC20/ERC20.sol\";\n\ncontract UBParkingCredits is ERC20 {\n  uint public constant AIRDROP_AMOUNT = 100 ether;\n  address admin;\n  address CHAIN_PARK;\n  mapping(address=>bool) claimed_airdrop;\n\n  modifier onlyAdmin() {\n    require(msg.sender == admin, \"Only admin can call this function.\");\n    _;\n  }\n\n  modifier onlyChainPark() {\n    require(msg.sender == CHAIN_PARK, \"Only ChainPark can call this function.\");\n    _;\n  }\n\n  constructor(uint256 initalSupply) ERC20(\"UB Parking Credit\", \"UBPC\") {\n    admin = msg.sender;\n    _mint(msg.sender, initalSupply);\n  }\n\n  function mint(address account, uint256 amount) public onlyChainPark {\n    approve(CHAIN_PARK, amount);\n    _mint(account, amount);\n  }\n\n  function claim_airdrop() public {\n    require(!claimed_airdrop[msg.sender], \"You have already claimed your airdrop.\");\n    approve(CHAIN_PARK, AIRDROP_AMOUNT);\n    claimed_airdrop[msg.sender] = true;\n    _mint(msg.sender, AIRDROP_AMOUNT);\n  }\n\n\n  function setChainPark(address _chainParkAddr) public onlyAdmin {\n    CHAIN_PARK = _chainParkAddr;\n  }\n\n}\n",
  "sourcePath": "/home/sib/eth/UB-Chain-Park/truffle/contracts/UBParkingCredits.sol",
  "compiler": {
    "name": "solc",
    "version": "0.8.17+commit.8df45f5f.Emscripten.clang"
  },
  "schemaVersion": "3.4.10",
  "updatedAt": "2022-12-04T01:00:11.220Z",
  "networkType": "ethereum",
  "devdoc": {
    "kind": "dev",
    "methods": {
      "allowance(address,address)": {
        "details": "See {IERC20-allowance}."
      },
      "approve(address,uint256)": {
        "details": "See {IERC20-approve}. NOTE: If `amount` is the maximum `uint256`, the allowance is not updated on `transferFrom`. This is semantically equivalent to an infinite approval. Requirements: - `spender` cannot be the zero address."
      },
      "balanceOf(address)": {
        "details": "See {IERC20-balanceOf}."
      },
      "decimals()": {
        "details": "Returns the number of decimals used to get its user representation. For example, if `decimals` equals `2`, a balance of `505` tokens should be displayed to a user as `5.05` (`505 / 10 ** 2`). Tokens usually opt for a value of 18, imitating the relationship between Ether and Wei. This is the value {ERC20} uses, unless this function is overridden; NOTE: This information is only used for _display_ purposes: it in no way affects any of the arithmetic of the contract, including {IERC20-balanceOf} and {IERC20-transfer}."
      },
      "decreaseAllowance(address,uint256)": {
        "details": "Atomically decreases the allowance granted to `spender` by the caller. This is an alternative to {approve} that can be used as a mitigation for problems described in {IERC20-approve}. Emits an {Approval} event indicating the updated allowance. Requirements: - `spender` cannot be the zero address. - `spender` must have allowance for the caller of at least `subtractedValue`."
      },
      "increaseAllowance(address,uint256)": {
        "details": "Atomically increases the allowance granted to `spender` by the caller. This is an alternative to {approve} that can be used as a mitigation for problems described in {IERC20-approve}. Emits an {Approval} event indicating the updated allowance. Requirements: - `spender` cannot be the zero address."
      },
      "name()": {
        "details": "Returns the name of the token."
      },
      "symbol()": {
        "details": "Returns the symbol of the token, usually a shorter version of the name."
      },
      "totalSupply()": {
        "details": "See {IERC20-totalSupply}."
      },
      "transfer(address,uint256)": {
        "details": "See {IERC20-transfer}. Requirements: - `to` cannot be the zero address. - the caller must have a balance of at least `amount`."
      },
      "transferFrom(address,address,uint256)": {
        "details": "See {IERC20-transferFrom}. Emits an {Approval} event indicating the updated allowance. This is not required by the EIP. See the note at the beginning of {ERC20}. NOTE: Does not update the allowance if the current allowance is the maximum `uint256`. Requirements: - `from` and `to` cannot be the zero address. - `from` must have a balance of at least `amount`. - the caller must have allowance for ``from``'s tokens of at least `amount`."
      }
    },
    "version": 1
  },
  "userdoc": {
    "kind": "user",
    "methods": {},
    "version": 1
  }
}